:020000040800F2
:1000000080230124750300087B1A0008FD04000802
:10001000791A0008D3040008C11E0008000000007F
:10002000000000000000000000000000B102000815
:10003000D5040008000000000D030008651B00083F
:100040008F0300088F0300088F0300088F03000848
:100050008F0300088F0300088F0300088F03000838
:100060008F0300088F0300088F0300088F03000828
:100070008F0300088F0300088F0300088F03000818
:100080008F0300088F0300088F0300088F03000808
:100090008F0300088F0300088F0300088F030008F8
:1000A0008F0300088F0300088F0300088F030008E8
:1000B0008F0300088F0300088F0300088F030008D8
:1000C0008F0300088F0300088F0300088F030008C8
:1000D0008F030008D91D00088F0300088F03000854
:1000E0008F0300088F030008000000008F03000842
:1000F0008F0300088F0300088F0300088F03000898
:100100008F0300088F0300088F0300088F03000887
:100110008F0300088F0300088F0300088F03000877
:100120008F0300088F0300088F0300088F03000867
:100130008F0300088F0300088F0300088F03000857
:1001400000000000000000000000000000000000AF
:100150008F0300088F0300088F0300088F03000837
:100160008F0300088F0300088F0300088F03000827
:100170008F0300088F0300088F0300088F03000817
:100180008F0300088F0300088F0300088F03000807
:100190008F0300088F0300088F0300088F030008F7
:1001A0008F0300088F0300088F0300088F030008E7
:1001B0008F0300088F0300088F0300088F030008D7
:1001C0008F0300088F0300088F0300088F030008C7
:1001D0008F0300088F0300088F0300088F030008B7
:1001E0008F0300088F0300088F0300088F030008A7
:1001F0008F0300088F0300088F0300088F03000897
:100200008F0300088F0300088F0300088F03000886
:100210008F0300088F0300088F0300088F03000876
:100220008F0300088F0300088F0300080000000000
:100230008F0300088F030008000000008F030008F0
:100240008F0300088F0300088F0300088F03000846
:100250008F0300088F0300088F0300088F03000836
:100260008F0300088F0300088F0300088F03000826
:100270008F0300088F0300088F03000800000000B0
:100280008F0300088F0300088F03000800000000A0
:10029000000000008F030008DFF810D000F0EAF83B
:1002A0000048004795220008AFF300808023012416
:1002B0002D4B19680868B0E8F04F80F30988BFF348
:1002C0006F8F4FF0000080F311887047000000002E
:1002D00008480068006880F308884FF0000080F349
:1002E000148862B661B6BFF34F8FBFF36F8F00DF24
:1002F00000BF00BF08ED00E0DFF80C00016841F42A
:1003000070010160704700BF88ED00E0EFF30980E5
:10031000BFF36F8F144B1A681EF0100F08BF20ED4B
:10032000108A20E9F04F106009B44FF0400072B617
:1003300080F31188BFF34F8FBFF36F8F62B603F066
:100340003DFA4FF0000080F3118809BC1968086875
:10035000B0E8F04F1EF0100F08BFB0EC108A80F329
:100360000988BFF36F8F704734000024EFF30580D6
:10037000704700000648804706480047FEE7FEE752
:10038000FEE7FEE7FEE7FEE7FEE7FEE7FEE7FEE745
:10039000FD1C00089902000800487047A88C00085E
:1003A00040EA01039B0703D009E008C9121F08C0F7
:1003B000042AFAD203E011F8013B00F8013B521E77
:1003C000F9D27047D2B201E000F8012B491EFBD2EE
:1003D00070470022F6E710B513460A460446194650
:1003E000FFF7F0FF204610BD30B505462A460B4604
:1003F00012F8010B13F8014B08B1A042F8D01CB160
:10040000002802D06D1CF1E7284630BD421C10F8D0
:10041000011B0029FBD1801A704710B5002200E0B3
:10042000521C835C8C5CA34201D1002BF8D1D8B262
:10043000E1B2401A10BD034611F8012B00F8012B60
:10044000002AF9D11846704730B50B460146002006
:100450002022012409E021FA02F59D4205D303FA86
:1004600002F5491B04FA02F52844151EA2F1010207
:10047000F1DC30BD064C074D06E0E06840F00103BA
:1004800094E8070098471034AC42F6D3FFF708FF12
:100490006C8E00088C8E000830B58C1810F8012B7B
:1004A00012F00F0301D110F8013B120906D110F828
:1004B000012B03E010F8015B01F8015B5B1EF9D131
:1004C00001E001F8013B521EFBD1A142E6D300201E
:1004D00030BDFEE77047000010B5044606480068CE
:1004E00001F086FC08B9012010BD0348006801F046
:1004F000C5FC20700020F7E704000024FEE770B57B
:100500001D4616460C4603462A2000F045FA1846BA
:1005100000F052FA304600F04FFA2B2000F03CFA7F
:100520001834A0B200F048FA1835A8B200F044FA26
:10053000BDE870402C2000F02FBA08B500215023F0
:10054000A0220090084600F001F808BD2DE9F04314
:10055000151A5F1A6D1C079E7F1C00247D434FF403
:1005600048576D00BD4202D9A5F548543D46FFF7F6
:10057000C6FFDFF84080DFF840900020414603E0EE
:1005800021F81060401C80B2A842F9D31020C9F8AD
:100590001800A9B2074800F01FFA002C07D0BC428F
:1005A00002D9A4F54854E8E725460024E5E7BDE86C
:1005B000F0830000C80100240004025800F0F6B8DF
:1005C00088B000244FF47A7703F0ACFA0C264FF68B
:1005D000FF7802AD06902246641C0AA102A8E4B28C
:1005E00001F080FC4046FFF7A8FF00215023084699
:1005F000A022CDE9006500F0B3F806A8394603F063
:1006000065FAE8E77468697320697320257500004E
:100610002DE9F043203A1C460C2BD6B206D0102C04
:1006200004D0182C04D0202C02D003E01D4601E099
:100630006206150EA022A2EB5402824238D3C4F106
:1006400050028A4234DB0A19521E93B200EB540264
:10065000521E92B2FFF753FF0C2C4FF6FF700BD0D7
:10066000102C27D0182C40D0202C21D1384900271D
:10067000814601EBC61867E0364906EB46020027C3
:10068000814601EB820811E018F80760002430066B
:1006900001D5002000E0484600F08EF97006641C89
:1006A000060EE4B2062CF2D37F1CFFB2AF42EBD3AE
:1006B000BDE8F08328490027814601EB061811E0C8
:1006C00018F807600024300601D5002000E04846F5
:1006D00000F072F97006641C060EE4B2082CF2D326
:1006E0007F1CFFB2AF42EBD3E2E71C4A06EB4601A8
:1006F0000027814602EB011811E018F8076000247A
:10070000300601D5002000E0484600F055F970069B
:10071000641C060EE4B2062CF2D37F1CFFB2AF427B
:10072000EBD3C5E718F807600024300601D5002098
:1007300000E0484600F040F97006641C060EE4B282
:10074000082CF2D37F1CFFB2AF42EBD3B0E700001E
:10075000185B0008E43E00085843000848490008B8
:100760002DE9F04700F0FF0A0446A0200E46DDE91F
:100770000857C5F15008A0EB55090FE0A14502D27A
:100780007019544686B2B0450DDB2B4631462046E3
:10079000FFF73EFF04EB550084B27F1C3A78A2F1CC
:1007A00020005E28EAD9BDE8F087000010B5794C3A
:1007B0004FF40020A0614000A061C82000F09CFF21
:1007C0001020A061142000F097FF0820A0611120E4
:1007D00000F0E2F8642000F08FFFB12000F0DCF8B8
:1007E000052000F0E1F8102000F0DEF8102000F005
:1007F000DBF8B22000F0D0F8052000F0D5F810208A
:1008000000F0D2F8102000F0CFF8B32000F0C4F8C8
:10081000052000F0C9F8102000F0C6F8102000F004
:10082000C3F8052000F0C0F8102000F0BDF810203B
:1008300000F0BAF8B42000F0AFF8032000F0B4F8EC
:10084000C02000F0A9F8622000F0AEF8022000F00D
:10085000ABF8042000F0A8F8C12000F09DF8C020FB
:1008600000F0A2F8C22000F097F80D2000F09CF8EC
:10087000002000F099F8C32000F08EF88D2000F0E1
:1008800093F86A2000F090F8C42000F085F88D20DD
:1008900000F08AF8EE2000F087F8C52000F07CF820
:1008A0000E2000F081F8E02000F076F8102000F033
:1008B0007BF80E2000F078F8022000F075F8032095
:1008C00000F072F80E2000F06FF8072000F06CF8CE
:1008D000022000F069F8072000F066F80A2000F016
:1008E00063F8122000F060F8272000F05DF8372050
:1008F00000F05AF8002000F057F80D2000F054F8EE
:100900000E2000F051F8102000F04EF8E12000F029
:1009100043F8102000F048F80E2000F045F80320BE
:1009200000F042F8032000F03FF80F2000F03CF800
:10093000062000F039F8022000F036F8082000F018
:1009400033F80A2000F030F8132000F02DF82620AC
:1009500000F02AF8362000F027F8002000F024F8F4
:100960000D2000F021F80E2000F01EF8102000F0FD
:100970001BF83A2000F010F8052000F015F836209A
:1009800000F00AF8A82000F00FF8BDE81040292078
:1009900000F002B8000C0258024A4FF48011916135
:1009A00000F028B800040258024A1021916100F0BA
:1009B00021B8000000040258064A010A00B5C3B27B
:1009C000102090610846FFF7EFFF5DF804EB184632
:1009D000FFF7EABF0004025870B500240D46064632
:1009E00004E036F81400FFF7E7FF641CAC42F8DBC4
:1009F00070BD000012494A686FF30F0242F0010215
:100A00004A600A68C2F34022002AFAD14A69C2F356
:100A10004002002AFAD081F82000086840F40070F3
:100A200008604869C0F3C0000028FAD0886940F027
:100A300008008861886940F01000886170470000F4
:100A400000140058044908B50A6802430A6009689E
:100A50000140009108BD0000E04402582DE9F04734
:100A600004466D480D46844221D06C4884421ED015
:100A70006B4884421BD06B48844218D06A48844239
:100A800015D06A48844212D0694884420FD0694820
:100A900084420CD06848844209D06848844206D019
:100AA0006748844203D0CD2166A001F0E5FB2868A9
:100AB0004FF6FE71401E884203D9CE2161A001F09D
:100AC000DBFB686848B1012807D0022805D003285D
:100AD00003D0CF215BA001F0CFFB286938B10128FA
:100AE00005D0022803D0D02156A001F0C5FB28680C
:100AF00090FAA0F0B0FA80F786E00120B8400640F6
:100B00007ED06868012801D0022824D1A86848B1A5
:100B1000012807D0022805D0032803D0E22149A0EC
:100B200001F0AAFBA968A26806FB06F000EB4003EF
:100B300048439A430243A260E86828B1012803D0E1
:100B4000E82140A001F098FBE968286862688243C8
:100B50004843024362602A69E36806FB06F0804668
:100B600000EB4009504323EA09030343E36068684C
:100B700002283ED1686908B301281FD002281DD081
:100B800003281BD0042819D0052817D0062815D013
:100B9000072813D0082811D009280FD00A280DD013
:100BA0000B280BD00C2809D00D2807D00E2805D013
:100BB0000F2803D0F52123A001F05EFBFF2E0BD8F8
:100BC0006969226A08FB06F07043C0EB00134843D2
:100BD0009A43024322620CE0300A6A6900FB00F18A
:100BE00041434143606AC1EB0113514398430843B9
:100BF00060626968226808FB01F022EA090200E0ED
:100C000001E0024322607F1C2E6836FA07F07FF471
:100C100074AFBDE8F08700000000025800040258DD
:100C200000080258000C0258001002580014025824
:100C300000180258001C02580020025800240258D4
:100C4000002802582E2E2F447269766572732F5336
:100C5000544D3332483778785F48414C5F4472696D
:100C60007665722F5372632F73746D3332683778E1
:100C7000785F6C6C5F6770696F2E63004FF47A71F8
:100C8000B0FBF1F14FF0E020491E4161002181618C
:100C9000052101617047000002480068C0F3002090
:100CA000704700000044025800EE100A9FED102A21
:100CB000DDED000AB8EE401A00EE101AB8EE400A58
:100CC000C1EE001A00EE102AB8EE401A00EE103AFB
:100CD000B8EE400A00EE021A21EE810AB8EE601A60
:100CE000C0EE010ABCEEE00A10EE100A70470000E8
:100CF000000000390649030E51FA80F10A68C0F37A
:100D000004218B401A40CA4040EA0240704700006C
:100D10004C4402582DE9F84F364F002504462E4624
:100D2000386810F0030004D001280BD0022812D13B
:100D30000DE000F025FA70B100F01AFA2E4DC0084F
:100D4000C54008E0FFF7A8FF28B12C4D03E000F0F4
:100D500007FA00B12A4D002020606060A06038686A
:100D6000244F0837C0F305183868C0F3080000F1B5
:100D7000010A381F0168C1F3000119B1391D096862
:100D8000C1F3CC06B8F1000132D081460068C0F34F
:100D9000004050B1386833465246C0F34620401CEC
:100DA00000902846FFF780FF2060D9F80000C0F3CC
:100DB000404058B13868334652464146C0F3064079
:100DC000401C00902846FFF76FFF6060D9F80000D4
:100DD000C0F3804000280BD0386833465246414665
:100DE000C0F30660401C00902846FFF75DFFA0603E
:100DF000BDE8F88F284402580090D00300093D0058
:100E000040787D012DE9F84F374F002504462E46E6
:100E1000386810F0030004D001280BD0022812D14A
:100E20000DE000F0ADF970B100F0A2F92F4DC0084F
:100E3000C54008E0FFF730FF28B12D4D03E000F07A
:100E40008FF900B12B4D002020606060A0603868F1
:100E5000254F1037C0F305383868C0F3080000F19B
:100E6000010A2148001D0168C1F3001119B1391DA3
:100E70000968C1F3CC06B8F1000132D081460068A0
:100E8000C0F3C04050B1386833465246C0F34620E4
:100E9000401C00902846FFF707FF2060D9F80000AB
:100EA000C0F3005058B13868334652464146C0F34B
:100EB0000640401C00902846FFF7F6FE6060D9F817
:100EC0000000C0F3405000280BD03868334652462B
:100ED0004146C0F30660401C00902846FFF7E4FE40
:100EE000A060BDE8F88F0000284402580090D003AD
:100EF00000093D0040787D012DE9F84F384F00256D
:100F000004462E46386810F0030004D001280BD0A8
:100F1000022812D10DE000F033F970B100F028F989
:100F2000304DC008C54008E0FFF7B6FE28B12E4D91
:100F300003E000F015F900B12C4D00202060606046
:100F4000A0603868264F1837C0F305583868244920
:100F5000091DC0F3080000F1010A0868C0F3002071
:100F600018B1381D0068C0F3CC06B8F1000F35D0B9
:100F7000002D33D008688946C0F3805058B13868D6
:100F8000334652464146C0F34620401C0090284656
:100F9000FFF78AFE2060D9F80000C0F3C05058B1B6
:100FA0003868334652464146C0F30640401C009024
:100FB0002846FFF779FE6060D9F80000C0F30060B2
:100FC00000280BD03868334652464146C0F30660CD
:100FD000401C00902846FFF767FEA060BDE8F88F30
:100FE000284402580090D00300093D0040787D015C
:100FF0000248006800F4706070470000184402580E
:10100000FEB5054641480024854208D0A5F1E060C0
:10101000083804D03EA040F2212101F02DF92846E5
:10102000FFF768FE484A4FF440764FF48033811A48
:1010300090424FF47D455FD022DC444A9042A0EBC1
:1010400002010AD010DC424DA0F10800B0F1E060CE
:1010500040D0B0422DD0984229D100F0A1F830B351
:101060006846FFF7CFFE09E0A94201D099421ED1A0
:1010700000F09EF8D8B16846FFF73EFF019C16E0ED
:10108000344A881A914204D008DCB14234D09942E3
:101090000DD1FFF701FE50B12F4C08E0A84201D05E
:1010A000984204D100F074F808B14FF4004420468F
:1010B000FEBD00F011FD0446FFF79AFFC0F30320C8
:1010C000285C00F01F0024FA00F000F0D7FC00F0CC
:1010D000F3FC0FE000F000FD0446FFF789FFC0F3CA
:1010E0000320285C00F01F0024FA00F000F0C6FC8A
:1010F00000F0D2FC0446DAE700F042F80028D6D02F
:1011000000F036F8154CC008C440D0E708030007CB
:101110002E2E2F447269766572732F53544D3332DD
:10112000483778785F48414C5F4472697665722F22
:101130005372632F73746D3332683778785F6C6CD9
:101140005F7263632E630000080003070803010752
:10115000188B00080003010000093D000090D00337
:1011600002480068C0F34040704700000044025845
:101170000248006800F01800704700000044025860
:1011800002480068C0F38000704700000044025825
:1011900002480068C0F340007047000070440258E5
:1011A00002480068C0F3C060704700000044025865
:1011B00002480068C0F340707047000000440258C5
:1011C00003490A6822F00F0202430A6070470000D8
:1011D000184402582DE9F04705468C4801260C4674
:1011E000854213D08A48854210D08A4885420DD066
:1011F000894885420AD08948854207D08848854277
:1012000004D088A040F2591101F036F8206880B16E
:10121000B0F5003F0DD0B0F5802F0AD0B0F5C02F4B
:1012200007D0B0F5C12F04D04FF4AE717DA001F00E
:1012300023F860684FF48007B84205D020B179A048
:1012400040F25D1101F018F8A06803283CD0042892
:101250003AD0052838D0062836D0072834D00828B8
:1012600032D0092830D00A282ED00B282CD00C28B8
:101270002AD00D2828D00E2826D00F2824D01028B8
:1012800022D0112820D012281ED013281CD01428B8
:101290001AD0152818D0162816D0172814D01828B8
:1012A00012D0192810D01A280ED01B280CD01C28B8
:1012B0000AD01D2808D01E2806D01F2804D059A007
:1012C0004FF4AF7100F0D8FFE06838B1B0F1007FA3
:1012D00004D054A040F25F1100F0CEFF206938B175
:1012E000B0F1807F04D04FF4B0714EA000F0C4FF85
:1012F00060694FF0806A4FF00058504507D030B118
:10130000404504D047A040F2611100F0B5FFA0694C
:101310004FF08059B8B1484515D0404513D0B0F1D1
:10132000405F10D0B0F1804F0DD0B0F1A04F0AD087
:10133000B0F1C04F07D0B0F1E04F04D039A04FF466
:10134000B17100F099FFE069B0F5000F05D020B150
:1013500034A040F2631100F08FFF206AB84205D03C
:1013600020B14FF4B2712FA000F086FF2868C0F3BF
:101370000000E8BB216AA069AA680843A168374B4E
:101380001A4011430843A86062696168E8685245E1
:1013900000F080500AD118B1484507D111B105E0DD
:1013A000B94203D1286840F480502860E168606940
:1013B000E2690843216911430843616808432168D1
:1013C00001F4C0210843E968254A11400843E86058
:1013D0002868218820F4006001F400610843286037
:1013E000206AB8420AD1606A30B940F29B1100E02D
:1013F00009E00CA000F040FF606A2864286D20F02E
:101400000100286500263046BDE8F0870030014025
:1014100000380040003C00400034014000500140D2
:10142000001400582E2E2F447269766572732F5364
:10143000544D3332483778785F48414C5F44726985
:101440007665722F5372632F73746D3332683778F9
:10145000785F6C6C5F7370692E630000E0FFBF8F74
:10146000FFFF39D8014908607047000010000024D0
:101470002DE9F05F844F0126DFF810820D46DFF87A
:101480001092B842DFF80CA20446DFF80CB215D077
:10149000444513D04C4511D054450FD05C450DD078
:1014A0007E4884420AD07E48844207D07D488442E8
:1014B00004D07DA040F2031100F0DEFE2868D0B118
:1014C000012818D0022816D0032814D0042812D0DE
:1014D000052810D006280ED007280CD008280AD0DE
:1014E000092808D00A2806D00B2804D04FF48271AE
:1014F0006DA000F0C1FE7B496868884204D96AA0EB
:1015000040F2051100F0B8FEA868B0F1805F08D085
:1015100038B1B0F5805F04D063A04FF4837100F060
:10152000ABFEE868B0F5805F0BD050B1B0F5405F1E
:1015300007D0B0F5005F04D05BA040F2071100F0C7
:101540009BFE286950B1B0F5806F07D0B0F5C06F31
:1015500004D04FF4847154A000F08EFE686950B13D
:10156000042808D0082806D00C2804D04EA040F249
:10157000091100F081FEA86968B1B0F5807F0AD03A
:10158000B0F5007F07D0B0F5407F04D046A04FF4FF
:10159000857100F071FEE86938B1B0F5004F04D0F4
:1015A00041A040F20B1100F067FE2068C0F300007C
:1015B000E8BB2969A868EA690843696911430843D7
:1015C0002168494A114008432060E868616821F4B5
:1015D000405101436160A869A16821F44071014351
:1015E000A160424ABC4201D1104611E04048444546
:1015F0000ED04C450CD054450AD05C4508D0274944
:101600008C42F1D026498C4202D026498C4222D10C
:10161000FFF7F6FCF8B16968E9B12A680026EB69C2
:101620000B2A10D8334FB3F5004FD2B200E019E0C7
:1016300057F82220B0FBF2F017D000EB5100B0FBBE
:10164000F1F080B2E060E068102804D24FF4B87185
:1016500015A000F011FE2888E16A80B221F00F0188
:101660000143E1623046BDE8F09F400000EB5100CD
:10167000B0FBF1F04FF6F07180B20140C0F34200D0
:101680000143E160DFE7000000100140004400403A
:1016900000480040004C0040005000400014014051
:1016A00000780040007C00402E2E2F447269766541
:1016B00072732F53544D3332483778785F48414C1A
:1016C0005F4472697665722F5372632F73746D3342
:1016D00032683778785F6C6C5F75736172742E63F3
:1016E0000000000020BCBE00F369FFEF0803000704
:1016F00008000007288B00084FF0E02108B50A69B0
:101700000092421C00D0401C0A69D20300D5401E42
:101710000028F9D108BD0000014901208861704707
:101720000008025802494FF4803088617047000079
:101730000008025810B501280C4618D96078011924
:101740000CA0FEF76AFE50B1607801190AA0FEF7FE
:1017500064FE40B109A0BDE8104000F0B3BBFFF744
:10176000E1FF0AA0F7E7FFF7D7FF0BA0F3E70DA013
:10177000F1E700006F6E00006F666600636D642025
:1017800077726F6E67210D0A000000004C656420BF
:101790006F6E210D0A0000004C6564206F666621A3
:1017A0000D0A00006E6F20636D64210D0A000000B9
:1017B000F0B587B018216846FEF70BFE8020FFF7D2
:1017C00041F90420FFF73EF90120FFF73BF908201B
:1017D000FFF738F90220FFF735F9154A012090612B
:1017E0001820144EB0611020134FB8610025012459
:1017F000009469461046CDE90145CDE90354FFF751
:101800002DF918206946CDE90004CDE9024530469E
:101810000494FFF723F910206946CDE90004CDE9CF
:10182000024538460494FFF719F907B0F0BD0000EF
:1018300000080258000C02580004025830B591B05C
:1018400028216846FEF7C5FD18210AA8FEF7C1FD4C
:10185000284807252849002451FA80F0016821F022
:10186000E04101602448A830016841F02001016096
:10187000006800F0200010901F489430016841F08B
:101880000201016000680AA900F0020010902820FF
:101890000A9002200B900120CDE90C040820CDE92C
:1018A0000E401648FFF7DAF84FF4C12000904FF4CD
:1018B00080006946CDE90105C000039008944010FE
:1018C00004900994800005908000CDE906040C4C3A
:1018D0002046FFF77FFCE06820F46010E060E068DD
:1018E00040F08040E060206840F00100206011B0CE
:1018F00030BD00000C1C00074C4402580004025884
:101900000014005870B590B020216846FEF761FDC4
:10191000182108A8FEF75DFD51480722514900240F
:1019200051FA80F0016821F0380101604D48A4307F
:10193000016841F010010160006800F010000E9095
:1019400048489430016841F001010160006808A92D
:1019500000F001000E904FF4C06008900220099042
:10196000CDE90A044048CDE90C42FFF777F83F483B
:101970000068C0F30220C0F10701042900D9042146
:10198000021D072A01D2002000E0C01E012303FA35
:1019900001F2521E02F00301814003FA00F2521ECE
:1019A00002F0020001430801314981F800042020BF
:1019B0002F492139C1F800014FF4E1302D4E69461D
:1019C0000294CDE900400C20354603940694CDE9FD
:1019D000044030460794FFF74BFD0521083555E8D4
:1019E000000F61F35F7045E80002002AF7D106F1AD
:1019F0000804304654E8001F21F0606141EA42616A
:101A000044E80013002BF5D1016821F0005101607A
:101A1000816841F480518160816821F400518160C6
:101A2000416821F490414160816821F02A01816080
:101A3000016841F001010160C169C1F34051002911
:101A4000FAD0C169C1F380510029F5D050E8001FD8
:101A500041F0200140E80012002AF7D110B070BD1B
:101A6000080300074C440258000002580CED00E047
:101A700025E000E000100140FEE7FEE704490968A8
:101A8000044A01F00F01515C01F01F01C84070478A
:101A900018440258188B000805490968054A01F0E6
:101AA00070010909515C01F01F01C8407047000036
:101AB0001C440258188B000805490968054A01F4BE
:101AC000E061090A515C01F01F01C8407047000045
:101AD0001C440258188B00080EB50D4900200968F7
:101AE00011F038010AD008290ED010290ED018297B
:101AF00003D16846FFF70EF900980EBDFFF738FBDB
:101B0000C1080448C8400EBD03480EBD03480EBDC1
:101B1000104402580090D00300093D0040787D0138
:101B2000012001F09DF90D4D04462046FEF7D4FC3E
:101B300018B1322001F066FDF7E70849207808392E
:101B400000F012FB0D28F0D10548294601F08CFB6E
:101B50000248083800F001FBE7E70000001F0124FD
:101B60008C000024402010B572B680F31188BFF3BA
:101B70004F8FBFF36F8F62B601F0DAFF18B10449DF
:101B80004FF080500860002080F3118810BD0000E5
:101B900004ED00E0544810B5016821F00F0141F058
:101BA00002010160016801F00F010229FAD14F48DA
:101BB000016821F0070141F0020101604B480C303F
:101BC000016841F4404101600168C1F340310029DE
:101BD000FAD04749086840F4803008600868C0F3CC
:101BE00040400028FAD0424A2832106820F0030012
:101BF00040F002001060101D036843F4803303605E
:101C0000036843F480230360036823F00C0343F06C
:101C100008030360036823F002030360106820F4E4
:101C20007C7040F0500010603148303002686FF333
:101C3000080242F09F020260026822F47E4242F4EF
:101C400000720260026822F4FE0242F480320260F6
:101C5000026822F0FE4242F080720260086840F0A2
:101C6000807008600868C0F340600028FAD008203F
:101C7000FFF7A6FA1E481030016821F0070141F075
:101C800003010160016801F038011829FAD1184CEC
:101C90001834206820F4706020600820FFF790FA64
:101CA000201D016821F0700141F0400101600168D0
:101CB00021F4E06141F480610160206820F070004F
:101CC00040F0400020600A482030016821F0700197
:101CD00041F0400101600748FEF7D0FFBDE8104029
:101CE0000548FFF7BFBB0000002000520C48025817
:101CF0000044025880F0FA020084D7172C4810B52F
:101D0000016841F4700101602A4A106800F00F0078
:101D1000072804D2106820F00F00C01D106026496B
:101D2000086840F001000860234B00201033186061
:101D30000B68224C23400B60136803F00F03072B42
:101D400004D9136823F00F03DB1D13601A4A1832FD
:101D50001060121D1060121D1060174B184A2833B6
:101D60001A601B1D174A1A601B1D174A1A601B1D9B
:101D700018601B1D1A601B1D18601B1D1A601A1DA0
:101D800010600A6822F480220A600B496031086002
:101D90000E4800686FF30F00B0F1005F03D20C49EA
:101DA0000120C1F8080143F2D2000A49086010BDC1
:101DB00088ED00E000200052004402587FEDF6EA72
:101DC000000202020000FF01800201010010005C1D
:101DD00000800051004000520348406AC1B20348ED
:101DE000006800F05BB8000000100140040000240F
:101DF000418802888088891A014491FBF0F200FB37
:101E000012107047002210B5028013464280818074
:101E1000491E02E08418521CA3718A42FADD002098
:101E200010BD43880288934201D101207047831D71
:101E3000D25C0A7001888288491CB1FBF2F302FB74
:101E4000131101800020704730B542888388144602
:101E5000521CB2FBF3F503FB152203889A4201D111
:101E6000012030BD821DA15441888288491CB1FBEC
:101E7000F2F302FB13114180002030BD214610B562
:101E8000FFF7CFFF10B102A000F01CF8207810BDC2
:101E9000B6D3C1D0BFD50D0A0000000010B5FFF7C2
:101EA000D3FF002804D0BDE8104002A000F00AB81B
:101EB00010BD0000B6D3C1D0C2FA0D0A0000000068
:101EC000FEE700000FB4054B10B503A9044A0298C1
:101ED00000F02CF810BC5DF814FB00007D22000817
:101EE000000000240FB4084B10B504A902AA0398FF
:101EF00000F01CF8044602A9002000F029F9204651
:101F000010BC5DF814FB00005121000802E008C875
:101F1000121F08C1002AFAD170477047002001E063
:101F200001C1121F002AFBD1704700002DE9FF4FAD
:101F30008BB09A460F460546002606E025280BD0B2
:101F400052460D9990476D1C761C28780028F5D1D3
:101F50000FB03046BDE8F08F0024A0460122604952
:101F600000E0044315F8013F203B02FA03F0084269
:101F7000F7D128782E2817D115F8010F44F0040462
:101F80002A280ED06FF02F022878A0F130010929FD
:101F90000AD808EB880102EB410100EB01086D1C37
:101FA000F2E757F8048B6D1C287869283ED006DCD0
:101FB0000028CDD063280BD0642804D136E07328E4
:101FC00010D075284BD052460D999047761C85E06D
:101FD00017F8040B8DF8000000208DF80100E94689
:101FE000012003E057F8049B4FF0FF3061074FF0EA
:101FF000000401D40AE0641C44450DDA8442FADB93
:1020000019F804100029F6D106E0641C8442FCDBB8
:1020100019F804100029F8D1264404E019F8010B3E
:1020200052460D999047641EF8D257E001CF4FF009
:102030000A0B002802DA40422D2102E0210504D5D6
:102040002B218DF82410012103E0E10705D0202188
:10205000F7E70DF1200908910CE00021F9E701CF25
:102060004FF00A0BF9E75946FEF7EEF901F130029D
:1020700009F8012D0028F6D1ADEB090000F1200B85
:10208000600701D44FF00108D84502DDA8EB0B0032
:1020900000E000208046002406E009A85246005DCA
:1020A0000D999047641C761C08988442F5DB04E087
:1020B000302052460D999047761CB8F10001A8F1E6
:1020C0000108F5DC05E019F8010B52460D9990471F
:1020D000761CBBF10001ABF1010BF4DC6D1C34E7A5
:1020E0000928010010B504461048FFF7EBFE104820
:1020F000FFF7E8FE0F48FFF7E5FE0F48FFF7E2FEA7
:102100000E48FFF7DFFE0E48FFF7DCFE0DA021466C
:10211000FFF7D8FE04F12400024600F0BBFF0AA13D
:10212000104600F062FF0120608510BDF08C0008B1
:10213000BC8D0008788D0008348D0008008E0008E2
:10214000AC8C0008257300006C7320636D64000084
:102150000A68531C0B6010707047002141604A1ED2
:1021600020F8082B095470472DE9F041054691F8F5
:10217000810001F16C060C4618B10027022821D01D
:1021800032E02649284600F057F8002807DB2349AB
:102190006C3151F8201049B32046884726E01B2DAA
:1021A00004D02946204600F0EBF81FE0022084F816
:1021B000810094F88000855594F88000401C84F8D4
:1021C000800013E094F880008555A5F1610019287E
:1021D0000FD9203019280CD97E2D0AD094F8800010
:1021E000122816D984F8807081F881702846BDE8DD
:1021F000F0810A492846491D00F01EF807491C31A4
:1022000051F820102046884784F8807084F8817047
:10221000ECE7401C81F88000E8E70000588B0008DC
:10222000002141604A1E028000F10802895480F8B2
:10223000801080F8811070470346002000E0401CA9
:102240000A5C9A4202D0002AF9D102E012F0FF0F94
:1022500001D14FF0FF30704770B500240D4606469F
:1022600004E0305D034900F0F8FD641CAC42F8D393
:1022700070BD000000000024704700000449CA69D6
:10228000C2F38012002AFAD0C2B28A6270470000FC
:10229000001001402D481CB5016841F002010160A9
:1022A000006800F002000090294801684FF6FF0224
:1022B0001140284A41F4A061114301600068C0F355
:1022C0000220C0F10701042900D90421021D072AB8
:1022D00001D2002000E0C01E012404FA01F1491ED1
:1022E00001F00301814004FA00F0401E00F00300F9
:1022F00001430801184981F8140DFFF74BFCFFF763
:1023000057FAFFF79BFAFFF7FDFA462000F0A8FD09
:10231000124908604021FFF775FDFEF74FF94FF6AF
:10232000FF70FEF70AF90E48FFF77AFF0D48FFF736
:10233000D9FE0D48002380220CA1CDE900400F48B2
:1023400001F096FB01F004FA00201CBDF444025891
:102350000CED00E00000FA050FE000E004000024AE
:10236000F81E01248C0000240C0000247461736B9F
:102370005F696E697469616C00000000ED330008EC
:10238000F0B442680025B0F9003000F10804622A78
:102390001ED2934204D307E08318521EDE791E72C8
:1023A000B0F900309342F7D30288521C12B2028077
:1023B00043685B1C4360115541680D55B0F900102E
:1023C0004068491C81420AD2F0BC06A0FFF77ABDE2
:1023D00061214160612B01D3602202800D55F0BC68
:1023E000704700001B5B31400000000070B5002406
:1023F000054606E02819054990F86C0000F02DFD0F
:10240000641C95F88000A042F4D870BD0000002440
:1024100090F86E10332915D1B0F9001002E042187F
:10242000537A1372491C42688A42F8D8B0F90030D6
:10243000114612B29A4205DD491E4160042102A0F4
:10244000FFF70ABF704700001B5B3150000000001F
:1024500010B5B0F90010002904DA10BD4218491C6B
:10246000537A137242688A42F8D80188491E018063
:10247000511E41600449082000F0EFFCBDE8104007
:1024800002A0FFF71FBD0000000000241B5B3150BD
:102490000000000070B5154D0446688D002823D05B
:1024A000B4F9001012A0491CFFF70CFD12A0FFF7B1
:1024B00009FD04F10802698D05F12400164600F0BB
:1024C00056FD3046FDF7A2FF01466060401E2080A9
:1024D0003046FFF7C1FE688D401C80B26885298DAB
:1024E000884200D90120688570BD00008C0000245E
:1024F0001B5B2564440000001B5B4B0010B54FF0D4
:10250000FF310180002141600648018D41850D2089
:10251000054900F0A2FCBDE8104003490A2000F084
:102520009CBC00008C00002400000024B0F90010C6
:10253000002904DB491E018001A0FFF7C3BC7047DE
:102540001B5B3144000000004FF0FF31018000218F
:1025500041600248018D4185704700008C000024D5
:102560004268B0F90010521E914204DA491C018001
:1025700001A0FFF7A7BC70471B5B314300000000C0
:1025800070B500F10801044620480E4600F0CAFC70
:10259000050039D06068C0B1B4F900101CA0491C16
:1025A000FFF790FC1CA0FFF78DFC2846FDF72EFFDF
:1025B0006060401E294620803046FDF73CFF616880
:1025C0003046BDE87040FFF747BE14A0FFF77AFC25
:1025D00000240E4D0C2609E000EB810110A0FFF74E
:1025E00071FC0EA0FFF76EFC641CE4B2286A04EBD9
:1025F000840106EB81028258002AEDD1BDE87040CB
:10260000024907A0FFF75EBC70BD00008C000024EB
:102610001B5B2564440000001B5B4B000D0A00009F
:102620002573000070B5144D0446688D002822D033
:10263000B4F9001011A0491CFFF744FC11A0FFF7EA
:1026400041FC04F10802698D05F12400164600F0F2
:102650008EFC3046FDF7DAFE01466060401E2080A9
:102660003046FFF7F9FD688D401E0004000C6885B8
:1026700000D1288D688570BD8C0000241B5B25640B
:10268000440000001B5B4B00F0B5002288B094466C
:1026900001276E4606F802C0521C202AFADB11F808
:1026A000012B02F0070E06EBD20307FA0EF51C7899
:1026B0002C431C70002AF2D1154B08B1014602E0F0
:1026C000196800E0491C087800F0070406EBD00206
:1026D00007FA04F41278224201D00028F2D1084609
:1026E0003C460CE006EBD20502F007022D7804FA16
:1026F00002F73D4202D001F801CB03E0491C0A7801
:10270000002AEFD18842196000D1002008B0F0BD46
:10271000C00100242DE9F0411E4D0F460446EE682D
:102720002868001D00F094FE38B9286890F82C1035
:1027300001208840296981432961601C15D1A7B116
:1027400015492A68486890602B688268DA602A68B0
:102750008368121D5A602A68121D826028684161D0
:102760000868401C0860BDE8F08128683444B44221
:102770004460296805D2E86B091DBDE8F04100F00E
:102780008FBEA86B091D00F08BFEA86A8442EAD2B6
:10279000AC62E8E734000024BC1E01242DE9F041BE
:1027A000044600F0A1FE364EB068401CB0603068B0
:1027B000344F10B1706940B32DE03460B068012827
:1027C00029D1002505EB850007EB800000F05AFEBB
:1027D0006D1C052DF6D32B48643000F053FE2948BC
:1027E000783000F04FFE27488C3000F04BFE254833
:1027F000A03000F047FE2348B43000F043FE2148EB
:102800006430B0631430F06305E03068E16AC06A98
:10281000884200D834600121706A401C70622064D4
:10282000E06A326981401143316100EB800007EBBF
:1028300080004068A0608168E160211D826851606D
:102840008160E06A00EB800007EB8001616157F86E
:102850002010491C47F8201000F056FE706900282F
:102860000CD03068E16AC06A884207D206494FF04E
:1028700080500860BFF34F8FBFF36F8FBDE8F081CA
:1028800034000024081E012404ED00E010B500F01F
:102890002BFE0E4C2068A0B90D4800F0F3FD0C484B
:1028A000143000F0EFFD0A480022E06010211430DF
:1028B0002061052000F0C4FF206010B105A100F0E8
:1028C00061FEBDE8104000F01FBE0000740000244F
:1028D000D01E0124546D72510000000030B4026C0F
:1028E0000B46002A0BD0C1681144C1608468A14224
:1028F00001D30168C160184630BCFDF751BD30BC42
:1029000070472DE9F041856B002617460446026C9E
:1029100082B1C7B1E068FDF743FDE168206C091A98
:10292000E1602268914202D2A168081AE060022F99
:1029300016D017E02068A8B9A06801F081F9064612
:102940000020A0600EE06068FDF72AFD216C606841
:1029500008446060A168884204D32068606001E098
:1029600005B16D1E6D1CA5633046BDE8F08110B544
:102970000446006B00F0D2FD2046BDE8104000F098
:10298000CDBD00000E484FF43841420706D00C4937
:10299000C01D20F00700411AC1F53841094B002243
:1029A00001440839C3E90002143B21F00701196012
:1029B0004A600A600A1AC0E900129A605A607047B9
:1029C000C86500242C000024134E4FF08058134D8E
:1029D000DFF84C90A6F1A00711E000F085FDF0684B
:1029E000C468201D00F034FDA868401EA860686817
:1029F000401E686000F088FD2046FFF7B8FF686859
:102A00000028EAD138680128F9D9C9F80080BFF355
:102A10004F8FBFF36F8FF2E7A81E0124340000240C
:102A200004ED00E02DE9F0470E4699469100174667
:102A3000DDE90984089DA5228246206BFDF7C2FCD2
:102A4000206B6FF0030101EB8701084420F00707BA
:102A500066B100202218315C82F83410315C11B16B
:102A6000401C0A28F6D3002084F83D00052D00D331
:102A70000425E562201DA56400F00FFD04F1180097
:102A800000F00BFD2461C5F1050064624A46514621
:102A9000A061384600F030FAB8F1000F206001D094
:102AA000C8F80040BDE8F08730B5114900E0114694
:102AB0000A688242FBD34B685C18844203D14068A9
:102AC00018444860084643681C18944209D1084CD1
:102AD000143C2468A24209D052681A4442600A6831
:102AE00012680260814200D0086030BD0460F9E7DE
:102AF0002C00002470B50C4D00244160914200610F
:102B000006D8D11A8269914206D2011D286907E0D0
:102B10009A4203D2994201D3012403E0011DE868DF
:102B200000F0BEFC204670BD7400002410B50446C1
:102B300000F0DAFCA06B20B1002400F0E5FC204698
:102B400010BD0124F9E7F1B500260098846CA06B54
:102B5000E16B884210D294F9455000226946204624
:102B6000FFF7CFFE0646681C08D000F085FC8542C2
:102B700002D26D1C84F845503046F8BD606A0028CA
:102B8000FAD004F1240001F0A1F80028F4D00126C5
:102B9000F2E7000070B506460D480D46C068C068F3
:102BA000C468201D00F054FC94F82800410705D5A6
:102BB0002A463146204600F0B1F803E000F0FE005E
:102BC00084F82800216A2046BDE8704008470000CC
:102BD0007400002470B5354E86B05EE00098002881
:102BE00006DA019ADDE9020190470098002854DBDB
:102BF000029C606910B1201D00F02AFC04A800F0BE
:102C0000AFF8054600980A2847D2DFE800F04605ED
:102C100005282B3A0505282B94F828002A4640F071
:102C2000010084F828000198A16903460144204668
:102C3000FFF760FF20B394F82800410707D50198FB
:102C40002A46A1690144204600F068F803E000F03C
:102C5000FE0084F82800216A204688471DE094F889
:102C6000280016E094F828002B461A4640F0010090
:102C700084F828000198A06141192046FFF73AFF27
:102C80000BE094F82800810703D4204600F046FCAE
:102C900003E000F0FE0084F8280030680022694656
:102CA00000F042FE002899D106B070BD74000024E7
:102CB000F8B50D46064600F079FD684600F050F87C
:102CC0000446009810B101F065F8F8BD1148ADB1A7
:102CD00001690968D9B100250068311B2A4600F056
:102CE0006FFC01F057F80028EFD10B494FF08050EE
:102CF0000860BFF34F8FBFF36F8FF8BDA642EBD8CC
:102D000001F048F821463046FFF744FFF8BD0125A1
:102D1000E2E700007400002404ED00E070B5164600
:102D20000C46054604E0A869296A044428468847F9
:102D3000A8692346324601192846FFF7DBFE002822
:102D4000F1D170BD0548816B096821B1816BC968FB
:102D50000968816270474FF0FF31FAE734000024C0
:102D60002DE9F041064600F0DDFE0E4D0446A86850
:102D7000844214D24FF0FF3704E0C068394600683F
:102D8000FFF708FFE86801680029F6D12969C5E95D
:102D90000310012030602046AC60BDE8F0810020C7
:102DA000F8E7000074000024402072B680F3118818
:102DB000BFF34F8FBFF36F8F62B6FEE7084CE0683A
:102DC000016839B1002139B10020FFF771FFFFF729
:102DD00001FFF4E70121F6E7C0680068F5E70000AD
:102DE000740000242DE9F041044600F07DFB94F9C5
:102DF000455004F124060FE0A06C18B12046FFF7FF
:102E0000A2FE04E0606A48B1304600F05FFF08B1FE
:102E100000F066FC6D1E6DB2002DEDDC4FF0FF364C
:102E200084F8456000F070FB00F05EFB94F94450BC
:102E300004F1100709E0206948B1384600F046FF68
:102E400008B100F04DFC6D1E6DB2002DF3DC84F86E
:102E50004460BDE8F04100F057BBFFF70FBA000037
:102E600070B50025044600F0A1FC224E306808B978
:102E7000FFF788FDCCB304F00700C0F11000C14398
:102E80008C4232D8211800292FDD706881422CD85D
:102E9000184A14321046046801E02246044660686D
:102EA000884202D220680028F7D1306884421CD0C2
:102EB00015682068106008356068421A102A04D925
:102EC000601842606160FFF7EFFD61687068401A4A
:102ED0007060B268904200D2B06041F00040606023
:102EE00000202060F068401CF06000F053FF28468E
:102EF00070BD000018000024031F10B54FF080744F
:102F00001C601B1F21F001011960191F044B0B608D
:102F100014390A60091F44386FF002020A6010BDBC
:102F2000A92D00082DE9F0474FF000088946FF253C
:102F30000746444611E000EB86004946FDF754FA87
:102F400048B1396A01EB8601401AA84203D210F059
:102F5000FF05884608D0641CE4B2386A04EB840696
:102F600010F826100029E6D14046BDE8F087F0B5FC
:102F700083888B421FD30388491E194489B20329D1
:102F800000D9091F8BB2C1185B1C9BB2897B032B34
:102F900000D90023034400259C7B0B46A14206D3A5
:102FA00010E0C6185F1A5B1CB67C9BB2D655A342D4
:102FB000F7D3581A1554F0BDC6185F1A5B1CB67CBF
:102FC0009BB2D655FE2BF7D3002307E0C6185F1A35
:102FD0001744B67C5B1C9BB287F8FE60A342F5D316
:102FE000581A104480F8FE50F0BD2DE9F041044617
:102FF0000D460846FDF70AFA83B2FD2B04F10E02D6
:1030000046D816E02088401C80B22080032800D9D2
:1030100000202080A688761EA6802789865CB7427D
:10302000A6EB0706A1EB060100D9FE39A181805C61
:103030002081A189C1F1FD009842E3DBA08803282B
:10304000E0D06188A07A88546088401C80B260809B
:10305000032800D900206080A08804F11206401CDB
:10306000A08000200FE06789295CB9556189491C5F
:1030700089B26181FD2900D900216181A189491CA2
:10308000A181401C80B29842EDD36188A07A885417
:10309000BDE8F08100210180418081800181418172
:1030A000818170472DE9F04704460E4605880020CF
:1030B000A188002931D03046FDF7A8F983B2B4F8D1
:1030C000049000222DE060196D1CADB2817B032DB0
:1030D00000D900256019807B814201D8401A02E0A6
:1030E000C1F1FE07384480B2984218D1501C87B213
:1030F00000200EE004EB010C16F800809CF812C0D2
:10310000C4450CD1491C89B2FD2900D90021401CBD
:1031100080B29842EED317B13846BDE8F087521C12
:1031200092B29145CFD80020F7E7000070B5002497
:103130000D4601283CD9687841191EA0FDF76DF9AC
:1031400000281ED0687841191BA0FDF766F90028F9
:103150002CD06878411919A0FDF75FF9002824D117
:1031600017A0FEF7AFFE1CA0FEF7ACFE1DA0FEF7F9
:10317000A9FE21A0FEF7A6FE25A0BDE87040FEF73F
:10318000A1BE2B4D0C2608E000EB810129A0FEF723
:1031900099FE10A0FEF796FE641C286A04EB8401D9
:1031A00006EB81028258002AEED170BD22A0E4E72E
:1031B00026A0E2E7636D64002D7600002D68000014
:1031C0007573656167653A206C73205B6F70746915
:1031D0006F6E735D0D0A00006F7074696F6E733AE5
:1031E000200D0A0009202D6820093A2073686F77A6
:1031F0002068656C700D0A0009202D7620093A20A0
:1032000073686F772076657273696F6E0D0A0000C0
:103210000920636D6420093A2073686F7720616C20
:103220006C20636F6D6D616E64730D0A00000000A9
:103230008C000024257300006C732076657273691E
:103240006F6E20312E302E0D0A0000006C73206E40
:10325000656564206D6F726520617267756D656E5E
:103260007473210D0A0000002DE9F04381460C46DD
:1032700024300A2506469DB0FFF714FF28B92078B0
:1032800018B121463046FFF7B0FE2046FDF7BEF8E4
:10329000642803D925A0FEF715FE3FE02AA12046A9
:1032A000FFF7F2F906462146484600F05DF80700B0
:1032B0000ED00DF10A00E84621468DF80050FDF7CA
:1032C000BAF82046FDF7A2F80B300125C4B21BE086
:1032D000FDF762F800682178405C10F0980F1DD06F
:1032E0001AA03146FEF7EEFD18E008EB0400314667
:1032F00008F80540FDF79FF83046FDF787F82044B1
:10330000401C6D1CC4B2EDB200200FA1FFF7BCF948
:103310000600EAD117B169462846B84711A04946C8
:10332000FEF7D0FD1DB0BDE8F0830000746869733E
:1033300020636F6D6D616E6420697320746F6F2000
:103340006C6F6E672E0D0A00200000006E6F206308
:103350006F6D6D616E64206E616D65643A202573DA
:103360000D0A0000257300002DE9F04100240F46EE
:103370000C26054606E000EB81013846FDF74DF8C6
:1033800058B1641C286A04EB840106EB8102825860
:10339000002AF0D10020BDE8F08104EB8401286A06
:1033A00006EB81014058F6E770B50D46064607A0CA
:1033B000FEF788FD002406E0285D2146421907A09B
:1033C000FEF780FD641CB442F6D370BD746573745F
:1033D00020636F6D6D616E643A0D0A0070617261F9
:1033E000732025643A2025730D0A00001CB500F0F7
:1033F0007BF80D49042000238022CDE900010E480E
:103400000AA100F035FB0D49022000234202CDE95C
:1034100000010E480AA100F02BFB002000F00AF981
:10342000BDE81C4000F070B8080000244C43445F25
:1034300053686F7700000000C1050008C401002434
:103440005368656C6C5F496E69740000211B00084D
:10345000D0E9013201699A60D0E901235A604A68D3
:10346000824201D182684A60002202610868401EDF
:1034700008600868704700000148806870470000D5
:10348000340000244FF0FF3200F10801C0E90112BE
:10349000C160016100210160704700210161704736
:1034A00030B50C68621C02D000F1080202E002692B
:1034B00004E01A4653681D68A542FAD953684B6068
:1034C00099608A60516008610168491C016030BDE3
:1034D00042684A6093688B609368596091600861A4
:1034E0000168491C01607047402072B680F3118862
:1034F000BFF34F8FBFF36F8F62B602480168491C5C
:10350000016070478800002403490868401E086075
:1035100001D180F3118870478800002470B500281D
:103520001BD0A0F108046068002816DA2168002981
:1035300013D120F00040606000F038F9074D60685A
:103540006968084468602046FFF7AEFA2869401CA5
:103550002861BDE8704000F01DBC70BD180000245B
:103560004FF0E0200021016181614FF47A7204493B
:103570000968B1FBF2F1491E416107210161704701
:1035800010000024002370B5002915D00B4D002237
:1035900005EBC2046668864202D105EBC20307E070
:1035A0001BB955F8326006B92346521C082AEFD3DE
:1035B000002B01D0C3E9001070BD0000C81D01241C
:1035C00070B515460E460446FFF78EFF94F9441079
:1035D0000020491C01D184F8440094F94510491C8D
:1035E00001D184F84500FFF78FFFA06B28B904F1E3
:1035F00024002A46314600F08BF82046BDE8704092
:10360000FFF7F0BB020010B509D000F0CFF80021A1
:103610001046FFF77FF800F0BDFB002807D10449F2
:103620004FF080500860BFF34F8FBFF36F8F10BD16
:1036300004ED00E070B50446FFF756FF214D04B9D4
:103640002C68201DFFF704FF58B9E06A1E4A00EB02
:10365000800152F8211021B9012181402869884355
:103660002861A06A18B104F11800FFF7F1FE686A3A
:10367000401C68622868844208D11348211DA0308C
:10368000FFF726FF6868401C686004E0A868401ED9
:10369000A860FFF757FBFFF737FF2868844202D086
:1036A0002046FFF764F9686900280AD02868844238
:1036B00007D106494FF080500860BFF34F8FBFF32A
:1036C0006F8F70BD34000024081E012404ED00E05B
:1036D00002490A6A0260C9684160704734000024E8
:1036E00001490120C86170473400002402460748A0
:1036F00010B50C46016810461831FFF7D1FE204680
:10370000BDE810400121FFF705B800003400002497
:103710000E4BF0B40C4641681D68E9618D681E6867
:1037200035621D688E68183575601D6818358D60A6
:10373000196888620168491C01600AB14FF0FF34C2
:1037400011462046F0BCFEF7E5BF0000340000241F
:103750007CB51248002582222B4611A1CDE90050EC
:10376000114800F085F90D4C2C3C012814D100F0D3
:103770009BFB012810D1402072B680F31188BFF363
:103780004F8FBFF36F8F62B64FF0FF30A062012002
:103790006061E56000F034F8206B7CBD60000024BF
:1037A00049444C4500000000C92900080248416B0B
:1037B000491C416370470000340000240E4A506BDE
:1037C00010B10120D06170470020D06110690B4911
:1037D000B0FA80F0C0F11F0000EB800001EB800028
:1037E00000F10803416849684160994201D1496884
:1037F0004160C8681060704734000024081E01242E
:103800000C4810B5016841F470010160016841F095
:1038100070410160FFF7A4FE074900200860FCF733
:103820006BFD0648016841F040410160FCF750FD26
:10383000002010BD20ED00E08800002434EF00E0FF
:103840002DE9F041050017460E464FF000041CD04C
:10385000601EB0FBF5F0B04217D305FB06F010F187
:10386000550F12D85430FFF7FBFA04000DD004F1C5
:1038700054006EB120600121C4E90F56204600F0CB
:1038800009F884F850700021A1642046BDE8F08159
:103890002460F0E72DE9F04104000E464FF00105E9
:1038A0003BD0E06BC0B3AF1EB7FBF0F1206C8142A0
:1038B00033D3FFF719FED4E90F20216802FB001172
:1038C000A1600021A163216861600A46D4E90F016B
:1038D000401E00FB0121E16084F8447084F84570CB
:1038E00004F1100046B1FFF7CDFD04F12400FFF70D
:1038F000C9FDFFF709FE11E021690029F9D000F0A8
:10390000E5F90028F5D007494FF080500860BFF373
:103910004F8FBFF36F8FECE7FFE700252846BDE828
:10392000F081000004ED00E02DE9F7470026DFF804
:10393000E49083B08A464FF0805804463746FFF73C
:10394000D3FDA56BC5B151462046FEF7C7FF6D1EDE
:10395000A563206950B104F1100000F0B7F928B157
:10396000C9F80080BFF34F8FBFF36F8FFFF7CCFD17
:10397000012006B0BDE8F087059808B11EB106E049
:10398000FFF7C2FD27E06846FFF7A2FE0126FFF71A
:10399000BBFDFFF70BFFFFF7A7FD94F94400401CA8
:1039A00001D184F8447094F94500401C01D184F899
:1039B0004570FFF7A9FD05A9684600F02DF800281D
:1039C00020460AD0FFF70EFA00F0E4F92046FFF790
:1039D000ADF80028B3D00020CBE7FFF7A7F890B1EF
:1039E000059904F12400FFF781FE2046FFF7FAF95C
:1039F00000F0D0F90028A2D1C9F80080BFF34F8FA2
:103A0000BFF36F8F9BE72046FFF7ECF900F0C2F998
:103A100095E7000004ED00E02DE9F0410D46044675
:103A2000FFF762FD114EF26863682868D11A471CDF
:103A30000AD02768D6F820C00026674506D09342F2
:103A400004D801242E600BE0002409E0884205D947
:103A5000401A28602046FFF73BFEF5E701242E6060
:103A6000FFF752FD2046BDE8F0810000340000243D
:103A70002DE9FF5F994616468A4683469000DDE9A8
:103A80000E87FFF7EDF905001DD05820FFF7E8F984
:103A9000040015D05821FCF79CFC00212563CDE9DA
:103AA00000874B463246CDE9024151465846FEF763
:103AB000B9FF2046FEF772FE012004B0BDE8F09F7A
:103AC0002846FFF72BFD4FF0FF30F6E770B50024D6
:103AD0000D460346FFF76AFE1048C2681868411990
:103AE000904202D9884202D804E0884201D891422B
:103AF00000D9012419601CB1881A0021FEF70AFEC2
:103B000000F048F938B906494FF080500860BFF31B
:103B10004F8FBFF36F8F204670BD0000340000242C
:103B200004ED00E00148C068704700003400002444
:103B30002DE9F041404E0025706B28B1B069401C62
:103B4000B0612846BDE8F081F468641CF46008D1D7
:103B5000B06BF16BB163F063306A401C3062FFF709
:103B6000F1F8B06ADFF8D4E084420BD34FF0000CD8
:103B7000B06B0068A0B1B06BC068C168486884428F
:103B800011D2B0623068C06A00EB80005EF820009D
:103B9000012800D90125F0690028D2D00125D0E7FD
:103BA0004FF0FF30EDE7D1E9023248699A60D1E980
:103BB00002235A600A1D4368934201D1CB684360D7
:103BC000C1F814C003685B1E0360886A88B1D1E93C
:103BD00007379F60D1E907377B6001F11803476819
:103BE0009F4201D10B6A4360C1F828C003685B1E85
:103BF0000360C86A0123376983403B43336100EBAC
:103C000080000EEB8000406888608368CB6083682A
:103C10005A608260C86A00EB80000EEB80024A6145
:103C20005EF82020521C4EF82020C86A3168C96A0C
:103C300088429DD901259BE734000024081E0124F9
:103C400010B504004FF000003BD0E16C491EE16468
:103C5000A36CE26A9A4234D0002932D1201DFFF7CA
:103C6000F7FB1849012230B994F82C000B6902FACD
:103C700000F083430B61A06CE062C0F10500A0611D
:103C8000E06A0B6982401A430A610F4A00EB800028
:103C900002EB80004068A0608168E160211D8368BC
:103CA00059608160E06A00EB800002EB8000606197
:103CB000E06A00EB800052F82010491C42F8201006
:103CC000012010BD34000024081E012470B5C06816
:103CD000C068D0E90732816A9A60D0E907235A6048
:103CE00000F118024B68934201D1036A4B60002532
:103CF00085620B685B1E0B60244B596B012499B1E4
:103D0000234D6968C1618E6806628E6872608A6040
:103D100085622968491C2960C06A1968C96A884295
:103D200032D90120DC6170BDD0E902624169B26024
:103D3000D0E902267260021D4E68964201D1C66823
:103D40004E6045610D686D1E0D60C16A1E6904FA02
:103D500001F535431D610E4D01EB81018C3D05EBF5
:103D60008101496881608E68C6608E6872608A6071
:103D7000C16A01EB810105EB8102426155F8212006
:103D8000521C45F82120C7E7002070BD34000024F4
:103D9000941E01242DE9F0470024A146FFF7A4FB5F
:103DA0003E4D686B401E6863686B002871D1A8683F
:103DB0000026DFF8ECC04FF00108E0BB69E0DCF85A
:103DC0000C00C468D4E90721A06A9160D4E9071205
:103DD000516004F1180142688A4201D1216A4160B0
:103DE000A6620168491E0160D4E902216069916000
:103DF000D4E902125160211D42688A4201D1E26871
:103E0000426066610268521E0260E06A43462F69A2
:103E100008FA00F23A432A61214A00EB80008C3A0A
:103E200002EB80004068A0608768E760876879607F
:103E30008160E06A00E00FE000EB800002EB8001AF
:103E4000616152F82010491C42F82010E06A29688C
:103E5000C96A884200D3EB61DCF800000028AED1CB
:103E60000CB1FEF76FFFAC693CB14746FFF760FE4F
:103E700000B1EF61641EF9D1AE61E86948B109494A
:103E80004FF080504FF001090860BFF34F8FBFF330
:103E90006F8FFFF739FB4846BDE8F08734000024F8
:103EA000941E012404ED00E01CB50024FEF7EEFC96
:103EB0000848006860B1074904200023091D4FF439
:103EC0008272CDE90001064803A1FFF7D1FD044647
:103ED00020461CBD74000024546D7220537663008C
:103EE000BD2D0008000000000000000000000000E0
:103EF0000000202020202000002000002828500062
:103F0000000000000000000000005050F85050F881
:103F100050500000002070A8A0603028A870200039
:103F2000000048A8B0A87434544800000000205095
:103F3000506CA8A894680000404080000000000079
:103F40000000000008101020202020201010080081
:103F500040202010101010102020400000000020F1
:103F6000A87070A82000000000000010107C101045
:103F70000000000000000000000000004040800041
:103F80000000000000FC0000000000000000000035
:103F9000000000000040000000040808101020206D
:103FA0004040800000007088888888888870000001
:103FB0000000206020202020207000000000708879
:103FC0008810204080F80000000070880830080841
:103FD0008870000000001030305090F81038000059
:103FE0000000F88080F088088870000000003048E9
:103FF00080B0C88888700000000078081010202069
:104000002020000000007088887088888870000078
:104010000000708888986808906000000000000028
:104020002000000000200000000000000020000030
:104030000020200000000810204040201008000050
:1040400000000000FC00FC00000000000000402018
:104050001008081020400000000070888810202000
:10406000002000000000384494B4B4B84438000084
:10407000000020203050507848CC00000000F0486C
:104080004870484848F000000000788880808080B0
:10409000887000000000F0484848484848F0000098
:1040A0000000F8485070504048F800000000F84800
:1040B0005070504040E000000000384880809C88EC
:1040C000483000000000CC484878484848CC000000
:1040D0000000F8202020202020F8000000007C10A4
:1040E00010101010101090E00000EC485060504884
:1040F00048EC00000000E0404040404044FC00002C
:104100000000DCD8D8D8A8A8A8AC00000000DC4883
:104110006868585848E800000000708888888888D7
:10412000887000000000F0484870404040E0000007
:1041300000007088888888E8987018000000F048AF
:104140004870504848EC00000000788880601008F3
:1041500088F000000000F8A8202020202070000037
:104160000000CC4848484848483000000000CC488F
:1041700048505030202000000000A8A8A8A8705087
:10418000505000000000D8505020205050D800005F
:104190000000D85050502020207000000000F890FF
:1041A0001020204048F80000382020202020202027
:1041B0002020380000404020202010101008080067
:1041C000701010101010101010107000205000000F
:1041D00000000000000000000000000000000000DF
:1041E000000000FC40200000000000000000000073
:1041F0000000000000304838483C000000C040404B
:1042000040704848487000000000000000384840F6
:10421000483000000018080808384848483C0000AA
:1042200000000000003048784038000000182420CA
:10423000207820202078000000000000003C48305A
:104240004038443800C040404070484848EC0000C6
:1042500000202000006020202070000000101000CE
:1042600000301010101010E000C040404058506066
:1042700050C8000000E020202020202020F800006E
:104280000000000000F0A8A8A8A80000000000009E
:1042900000F0484848EC00000000000000304848AA
:1042A000483000000000000000F04848487040E03E
:1042B00000000000003848484838081C0000000092
:1042C00000D8604040E0000000000000007840306E
:1042D000087800000000002020782020203800000E
:1042E0000000000000D84848483C000000000000E2
:1042F00000D85050202000000000000000A8A87046
:10430000505000000000000000D8502050D800009D
:104310000000000000CC4848301020C00000000021
:1043200000781020207800001810101010301010A5
:104330001010180010101010101010101010101085
:1043400060202020201020202020600068900000A5
:10435000000000000000000000000000000000005D
:1043600000000000000000000000001010101010FD
:10437000101000001010000000122424480000005B
:1043800000000000000000000000001212127E2455
:1043900024247E24242400000000083C4A4A483893
:1043A0000C0A0A4A4A3C080800000044A4A8A8B025
:1043B000541A2A2A4A440000000000304848485055
:1043C0006EA49498897600000060202040000000D0
:1043D0000000000000000000000204080810101097
:1043E00010101008080402000040201010080808EF
:1043F0000808081010204000000000001010D638F7
:1044000038D6101000000000000000000008080866
:104410007F08080800000000000000000000000005
:1044200000000000602020400000000000000000AC
:104430007E000000000000000000000000000000FE
:10444000000000006060000000000204040408088E
:10445000101010202040400000000018244242426A
:1044600042424242241800000000000838080808B0
:1044700008080808083E00000000003C42424202D2
:1044800004081020427E00000000003C424202046A
:1044900018040242423C0000000000040C0C1424EA
:1044A00024447F04041F00000000007E4040407848
:1044B0004402024244380000000000182440405CDE
:1044C00062424242221C00000000007E42040408B6
:1044D00008101010101000000000003C424242245E
:1044E00018244242423C000000000038444242424C
:1044F000463A0202241800000000000000001818CC
:10450000000000001818000000000000000000106B
:10451000000000000010101000000002040810202D
:1045200040201008040200000000000000007E008F
:10453000007E000000000000000000402010080481
:1045400002040810204000000000003C42426204C7
:10455000080808001818000000000038445AAAAAE9
:10456000AAAAAA5C423C00000000001010182828EB
:10457000243C444242E70000000000F844444478F0
:104580004442424244F800000000003E4242808023
:104590008080804244380000000000F844424242DB
:1045A0004242424244F80000000000FC4248487881
:1045B0004848404242FC0000000000FC4248487865
:1045C0004848404040E000000000003C44448080F7
:1045D000808E844444380000000000E7424242429A
:1045E0007E42424242E700000000007C10101010A2
:1045F00010101010107C00000000003E0808080891
:1046000008080808080888F0000000EE44485070C8
:104610005048484444EE0000000000E04040404064
:104620004040404042FE0000000000EE6C6C6C6CAC
:104630006C54545454D60000000000C762625252B9
:104640004A4A4A4646E2000000000038448282821C
:104650008282828244380000000000FC42424242D2
:104660007C40404040E000000000003844828282EC
:10467000828282B24C380600000000FC4242427C3A
:104680004848444442E300000000003E42424020CB
:1046900018040242427C0000000000FE921010103C
:1046A0001010101010380000000000E74242424293
:1046B00042424242423C0000000000E742424424A1
:1046C0002428281810100000000000D65454545418
:1046D000546C282828280000000000E742242418F1
:1046E0001818242442E70000000000EE4444282863
:1046F00010101010103800000000007E840408081C
:104700001020204242FC0000001E1010101010105B
:104710001010101010101E0000004020202010105B
:1047200010080804040402020078080808080808B1
:104730000808080808087800001824000000000095
:104740000000000000000000000000000000000069
:1047500000000000000000FF0060100000000000EA
:104760000000000000000000000000000000003811
:10477000440C34444C36000000000000C040405857
:104780006442424264580000000000000000001C27
:1047900022404040221C0000000000000602023EB1
:1047A00042424242463B0000000000000000003C44
:1047B00042427E40423C0000000000000C12107C8F
:1047C00010101010107C0000000000000000003EDF
:1047D000444438403C42423C00000000C040405C41
:1047E0006242424242E700000000003030000070A8
:1047F00010101010107C00000000000C0C00001CB9
:10480000040404040404447800000000C040404E46
:104810004850704844EE0000000000107010101066
:1048200010101010107C000000000000000000FEBE
:104830004949494949ED000000000000000000DC42
:104840006242424242E70000000000000000003CDB
:1048500042424242423C000000000000000000D8FA
:1048600064424242645840E0000000000000001A28
:1048700026424242261A020700000000000000EE15
:104880003220202020F80000000000000000003E40
:1048900042403C02427C0000000000000010107CFE
:1048A00010101010120C000000000000000000C6E4
:1048B00042424242463B000000000000000000EE81
:1048C000444428281010000000000000000000DB15
:1048D000894A5A5424240000000000000000007699
:1048E00024181818246E000000000000000000E7E3
:1048F0004224241818101060000000000000007E00
:1049000044081010227E0000000304040404040480
:104910000804040404040300080808080808080838
:10492000080808080808080800C0202020202020C7
:10493000102020202020C000205A04000000000089
:104940000000000000000000000000000000000067
:104950000000000000000000000000000000000057
:104960000000000000000000000000000000000047
:104970000000000000000000000000000000000037
:1049800006000600060006000600060006000200FB
:1049900004000400040000000000000006000600FF
:1049A0000600000000000000000000000660066035
:1049B0000CC019801100220000000000000000005F
:1049C00000000000000000000000000000000000E7
:1049D00000000000000000000000000000000000D7
:1049E00008400840084008407FE07FE01040108009
:1049F0001080108010807FE07FE020802080208069
:104A00002080000000000000000000000000020004
:104A100002000F801AC032C033C032001A000E00EC
:104A200007000380038002C032C03AC032C0128047
:104A30000F00020002000000000000000000000063
:104A4000708050808900890089008A008A005C009B
:104A500075C005400A200A20122012201220214091
:104A600021C0000000000000000000000000000065
:104A70001C0036003600360036003600340019E0DF
:104A800038805880CC80CC80C680C700C31063902B
:104A90003CE0000000000000000000003000380092
:104AA00008000800100020000000000000000000C6
:104AB00000000000000000000000000000000000F6
:104AC0000000000000000000000000000020004086
:104AD0000080010001000200020004000400040044
:104AE00004000400040004000200020001000100B0
:104AF0000080004000200000000000004000200076
:104B00001000080008000400040002000200020077
:104B10000200020002000200040004000800080075
:104B20001000200040000000000000000000000015
:104B300000000000020003000200623072F00B80EF
:104B40000F807AF0623002000200020000000000D4
:104B50000000000000000000000000000000000055
:104B6000000000000000020002000200020002003B
:104B70007FF00200020002000200020000000000BC
:104B80000000000000000000000000000000000025
:104B90000000000000000000000000000000000015
:104BA000000000000000000000000000300038009D
:104BB00008000800100020000000000000000000B5
:104BC00000000000000000000000000000000000E5
:104BD0007FE0000000000000000000000000000076
:104BE00000000000000000000000000000000000C5
:104BF00000000000000000000000000000000000B5
:104C00000000000000000000000000003800380034
:104C100038000000000000000000000000200060DC
:104C2000004000C00080008001000100020002007E
:104C30000600040004000800080010001000300006
:104C400020006000400000000000000000000000A4
:104C500000000F00198030C030C06060606060608C
:104C60006060606060606060606030C030C019800B
:104C70000F00000000000000000000000000000025
:104C8000000002003E0006000600060006000600C6
:104C900006000600060006000600060006000600E4
:104CA0003FC0000000000000000000000000000005
:104CB00000001F00218040C060C060C000C00080B4
:104CC00001800300060004000800104020406040FE
:104CD0007FC0000000000000000000000000000095
:104CE00000001E006300618061800180018003007C
:104CF0000E000180008000C000C060C060C0618004
:104D00001F00000000000000000000000000000084
:104D100000000180018003800580058009801180EA
:104D20001180218041807FF001800180018001801D
:104D300007E000000000000000000000000000008C
:104D400000003FC0200020002000200020002F0095
:104D5000318020C000C000C060C060C041802180A0
:104D60001F00000000000000000000000000000024
:104D70000000078018C030C030002000600067804D
:104D800068C070606060606060602060304018C023
:104D90000F00000000000000000000000000000004
:104DA00000001FE030602040208000800080010073
:104DB00001000200020002000600060006000600D4
:104DC00006000000000000000000000000000000DD
:104DD00000001F8030C0606060606060304038C09C
:104DE0000F00138030C0606060606060606030C041
:104DF0000F80000000000000000000000000000024
:104E000000000F00308030C0604060606060606013
:104E100060E031601E60006000C000C03080318002
:104E20001E00000000000000000000000000000064
:104E30000000000000000000000000000700070064
:104E4000070000000000000000000000070007004D
:104E5000070000000000000000000000000000004B
:104E60000000000000000000000000000600060036
:104E7000000000000000000000000000000006002C
:104E80000600020004000400000000000000000012
:104E90000020004000800100020004000800100013
:104EA0002000100008000400020001000080004003
:104EB00000200000000000000000000000000000D2
:104EC0000000000000000000000000007FE0000083
:104ED000000000007FE00000000000000000000073
:104EE00000000000000000000000000000000000C2
:104EF00020001000080004000200010000800040B3
:104F000000200040008001000200040008001000A2
:104F10002000000000000000000000000000000071
:104F2000000007C01860203020303030303000E002
:104F300001800200020002000000000007000700DC
:104F4000070000000000000000000000000000005A
:104F5000070018C0304033A026A066A065A06D20D1
:104F60006D206D206D206D4027803020304018C0AE
:104F70000F00000000000000000000000000000022
:104F80000000060006000A000B00090009001100DD
:104F9000118010801F8020C020C020404040406011
:104FA000F0F0000000000000000000000000000021
:104FB00000007F0031C030C030C030C030C0318010
:104FC0003F0030C03040306030603060306030C012
:104FD0007F800000000000000000000000000000D2
:104FE000000007C018C03060302020206000600042
:104FF000600060006000600060203020304018C019
:105000000F00000000000000000000000000000091
:105010000000FE00318030C030C030603060306051
:105020003060306030603060306030C030C031801F
:10503000FE00000000000000000000000000000072
:105040000000FFC060C0602060206000610061005F
:105050007F006100610061006000602060206040AE
:10506000FFC0000000000000000000000000000081
:105070000000FFC060C0602060206000610061002F
:105080007F006100610061006000600060006000FE
:10509000F800000000000000000000000000000018
:1050A00000000F0018803040304020406000600059
:1050B0006000600063F060C060C030C030C018C0E5
:1050C0000F000000000000000000000000000000D1
:1050D0000000F0F060606060606060606060606070
:1050E0007FE0606060606060606060606060606021
:1050F000F0F00000000000000000000000000000D0
:1051000000003FC00600060006000600060006007C
:10511000060006000600060006000600060006005F
:105120003FC0000000000000000000000000000080
:1051300000001FE00300030003000300030003005E
:105140000300030003000300030003000300030047
:105150000300630066003C00000000000000000047
:105160000000F3C0618063006200640068006C00AE
:10517000740076006200630061006180608060C03E
:10518000F1E000000000000000000000000000004E
:105190000000F800600060006000600060006000D7
:1051A000600060006000600060006020602060407F
:1051B000FFC0000000000000000000000000000030
:1051C0000000E0E061C061C071C071C072C072C017
:1051D00052C05AC05AC05CC04CC04CC04CC048C041
:1051E000E1E00000000000000000000000000000FE
:1051F000000071F03040384038402C402C402640B0
:10520000264022402340214021C021C020C020C090
:10521000F840000000000000000000000000000056
:1052200000000F00198030C0304060606060606036
:1052300060606060606060606060304030C01980B5
:105240000F0000000000000000000000000000004F
:105250000000FF0060C0606060606060606060606F
:1052600061C07F006000600060006000600060005E
:10527000F800000000000000000000000000000036
:1052800000000F00198030C03040606060606060D6
:1052900060606060606060606E60324033C0198042
:1052A0000F0001E000C0000000000000000000004E
:1052B0000000FF8060C0606060606060606060C02F
:1052C0007F00620063006100618060C060C0606058
:1052D000F07000000000000000000000000000006E
:1052E00000001F4030C060406040600070003C0023
:1052F0001F0007C001C000E040604060606030C037
:105300000F8000000000000000000000000000000E
:1053100000007FE04620861086100600060006008A
:10532000060006000600060006000600060006004D
:105330001F800000000000000000000000000000CE
:10534000000078E030403040304030403040304065
:1053500030403040304030403040304030401880A5
:105360000F0000000000000000000000000000002E
:105370000000F0E06040208020803080308011000C
:105380001100190019000A000A000E000C000400A8
:105390000400000000000000000000000000000009
:1053A0000000EF7046204220622062202640264006
:1053B0002740274039403980198019801180110019
:1053C00011000000000000000000000000000000CC
:1053D000000079E030801080188009000D00060080
:1053E0000400060006000B0009001180108020C098
:1053F00071E000000000000000000000000000005C
:105400000000F0F0602020403040108018801D0027
:105410000D000E000600060006000600060006004D
:105420001F800000000000000000000000000000DD
:1054300000003FE0304060C0408001800100020079
:105440000200040004000800180010203020204052
:105450007FC00000000000000000000007C0040042
:10546000040004000400040004000400040004001C
:10547000040004000400040004000400040004000C
:105480000400040007C0000000000000000000004D
:105490002000200010001000080008000800040090
:1054A00004000200020003000100010000800080EF
:1054B0000040004000400020000000003E000200CC
:1054C00002000200020002000200020002000200CC
:1054D00002000200020002000200020002000200BC
:1054E000020002003E0000000000060009001080DB
:1054F00000000000000000000000000000000000AC
:10550000000000000000000000000000000000009B
:10551000000000000000000000000000000000008B
:10552000000000000000000000000000000000007B
:10553000000000000000000000000000000000006B
:10554000000000000000FFF000000000180006004E
:10555000000000000000000000000000000000004B
:10556000000000000000000000000000000000003B
:10557000000000000000000000000000000000002B
:105580000000000000000000000000000F8030C09C
:1055900030C000C007C038C070C060C060C071D0EB
:1055A0003E7000000000000000000000000000004D
:1055B00010007000300030003000300033803CC0FC
:1055C000386030603060306030603060304038C00B
:1055D0002780000000000000000000000000000024
:1055E0000000000000000000000000000F003180FB
:1055F0003180618060006000600060403040308039
:105600000F0000000000000000000000000000008B
:10561000004003C000C000C000C000C01EC031C0B8
:1056200030C060C060C060C060C060C020C031E0F9
:105630001E800000000000000000000000000000CC
:10564000000000000000000000000000078018C0FB
:105650001040306030603FE03000300018201840CB
:1056600007800000000000000000000000000000B3
:10567000000003C006600C600C000C007F800C0072
:105680000C000C000C000C000C000C000C000C00BA
:105690003F8000000000000000000000000000004B
:1056A0000000000000000000000000000FE01B6090
:1056B00031803180318019801F0030003F0033C0BD
:1056C00060C060C071C01F0000000000000000004A
:1056D000100070003000300030003000378038C0DB
:1056E00030C030C030C030C030C030C030C030C03A
:1056F00079E0000000000000000000000000000051
:105700000000060006000000000002003E00060047
:105710000600060006000600060006000600060059
:105720003FC000000000000000000000000000007A
:105730000000038003800000000000800F800180D3
:105740000180018001800180018001800180018051
:105750000180018033003E000000000000000000D6
:1057600010007000300030003000300031C03100D7
:105770003100320036003A0031003180308030C0D4
:1057800079E00000000000000000000000000000C0
:1057900002003E00060006000600060006000600A5
:1057A00006000600060006000600060006000600C9
:1057B0003FC00000000000000000000000000000EA
:1057C000000000000000000000000000ECE0776036
:1057D0006660666066606660666066606660666099
:1057E000FFF00000000000000000000000000000CA
:1057F000000000000000000000000000778038C0BA
:1058000030C030C030C030C030C030C030C030C018
:1058100079E000000000000000000000000000002F
:105820000000000000000000000000000F001980D0
:1058300030C06060606060606060606030C030C0D8
:105840000F00000000000000000000000000000049
:10585000000000000000000000000000778038C059
:1058600030603060306030603060306030C038C0F0
:105870003780300030007C00000000000000000095
:105880000000000000000000000000001E4031C0C9
:1058900030C060C060C060C060C060C020C031C0A7
:1058A0001EC000C000C003E00000000000000000B7
:1058B000000000000000000000000000F9C01A60B5
:1058C0001C601800180018001800180018001800B4
:1058D000FF000000000000000000000000000000C9
:1058E0000000000000000000000000000FC038C0F1
:1058F000304030401C000F0003C020C020C031C029
:105900003F800000000000000000000000000000D8
:1059100000000000040004000C000C007F800C005C
:105920000C000C000C000C000C000C000C400C4097
:1059300007800000000000000000000000000000E0
:1059400000000000000000000000104071C030C0E6
:1059500030C030C030C030C030C030C030C039E09E
:105960001E80000000000000000000000000000099
:1059700000000000000000000000000078E030405F
:1059800010801080188009000D000D000600060030
:105990000400000000000000000000000000000003
:1059A000000000000000000000000000EF70462032
:1059B000622026402640374039801980198019809E
:1059C00010000000000000000000000000000000C7
:1059D0000000000000000000000000003DE0188012
:1059E00008800D000600060007000900108010C0A6
:1059F00079E000000000000000000000000000004E
:105A000000000000000000000000000079E01080AD
:105A100010801080090009000D0006000600060035
:105A20000400040024003800000000000000000012
:105A30000000000000000000000000003F80218006
:105A400023002200060004000C001840104030C063
:105A50003F800000000000000000000000C00100C6
:105A6000010001000100010001000100010002002D
:105A7000040002000100010001000100010001001A
:105A80000100010000C0000002000200020002004C
:105A900002000200020002000200020002000200F6
:105AA00002000200020002000200020002000200E6
:105AB00002000200020002000000000030000800A6
:105AC000080008000800080008000800080004009A
:105AD0000200040008000800080008000800080090
