:020000040800F2
:1000000040080024FD030008A314000807050008A9
:10001000A114000803050008F11700080000000003
:10002000000000000000000000000000390300088C
:1000300005050008000000009503000849150008A8
:100040001704000817040008170400081704000824
:100050001704000817040008170400081704000814
:100060001704000817040008170400081704000804
:1000700017040008170400081704000817040008F4
:1000800017040008170400081704000817040008E4
:1000900017040008170400081704000817040008D4
:1000A00017040008170400081704000817040008C4
:1000B00017040008170400081704000817040008B4
:1000C00017040008170400081704000817040008A4
:1000D00017040008BD1700081704000817040008DB
:1000E00017040008170400080000000017040008A7
:1000F0001704000817040008170400081704000874
:100100001704000817040008170400081704000863
:100110001704000817040008170400081704000853
:100120001704000817040008170400081704000843
:100130001704000817040008170400081704000833
:1001400000000000000000000000000000000000AF
:100150001704000817040008170400081704000813
:100160001704000817040008170400081704000803
:1001700017040008170400081704000817040008F3
:1001800017040008170400081704000817040008E3
:1001900017040008170400081704000817040008D3
:1001A00017040008170400081704000817040008C3
:1001B00017040008170400081704000817040008B3
:1001C00017040008170400081704000817040008A3
:1001D0001704000817040008170400081704000893
:1001E0001704000817040008170400081704000883
:1001F0001704000817040008170400081704000873
:100200001704000817040008170400081704000862
:100210001704000817040008170400081704000852
:100220001704000817040008170400080000000065
:100230001704000817040008000000001704000855
:100240001704000817040008170400081704000822
:100250001704000817040008170400081704000812
:100260001704000817040008170400081704000802
:100270001704000817040008170400080000000015
:100280001704000817040008170400080000000005
:10029000000000001704000800F002F800F03CF82D
:1002A0000AA090E8000C82448344AAF10107DA45D1
:1002B00001D100F031F8AFF2090EBAE80F0013F0E7
:1002C000010F18BFFB1A43F0010318477C17000009
:1002D0009C170000103A24BF78C878C1FAD852079A
:1002E00024BF30C830C144BF04680C6070470000B0
:1002F0000023002400250026103A28BF78C1FBD82F
:10030000520728BF30C148BF0B6070471FB501F0CE
:1003100075FB1FBD10B510BD00F0BAF81146FFF710
:10032000F5FF01F067FA00F0D8F803B4FFF7F2FF29
:1003300003BC00F0DFF800002D4B19680868B0E836
:10034000F04F80F30988BFF36F8F4FF0000080F308
:10035000118870470000000008480068006880F3BA
:1003600008884FF0000080F3148862B661B6BFF3CE
:100370004F8FBFF36F8F00DF00BF00BF08ED00E0BD
:10038000DFF80C00016841F470010160704700BFA4
:1003900088ED00E0EFF30980BFF36F8F144B1A680C
:1003A0001EF0100F08BF20ED108A20E9F04F1060FA
:1003B00009B44FF0400072B680F31188BFF34F8F3D
:1003C000BFF36F8F62B601F069FA4FF0000080F35F
:1003D000118809BC19680868B0E8F04F1EF0100FCA
:1003E00008BFB0EC108A80F30988BFF36F8F7047A5
:1003F0000C000024EFF30580704700000948804797
:1004000009480047FEE7FEE7FEE7FEE7FEE7FEE7F6
:10041000FEE7FEE7FEE7FEE704480549054A064B0E
:1004200070470000E116000899020008400200240D
:100430004008002440040024400400244FF000023F
:1004400000B5134694469646203922BFA0E80C50CA
:10045000A0E80C50B1F12001BFF4F7AF090728BFA5
:10046000A0E80C5048BF0CC05DF804EB890028BF21
:1004700040F8042B08BF704748BF20F8022B11F04A
:10048000804F18BF00F8012B7047704770477047C6
:10049000754600F02BF8AE4605006946534620F03D
:1004A0000700854618B020B5FFF7B6FFBDE820402D
:1004B0004FF000064FF000074FF000084FF0000B20
:1004C00021F00701AC46ACE8C009ACE8C009ACE8D3
:1004D000C009ACE8C0098D46704710B50446AFF3BB
:1004E00000802046BDE81040FFF71FBF004870475E
:1004F000DC01002401491820ABBEFEE72600020003
:100500007047FEE77047FEE7044908B50A680243F2
:100510000A6009680140009108BD0000E0440258EB
:100520002DE9F04704466E480E46844221D06D48BE
:1005300084421ED06C4884421BD06C48844218D040
:100540006B48844215D06B48844212D06A4884427A
:100550000FD06A4884420CD06948844209D0694867
:10056000844206D06848844203D0CD2167A001F0C0
:1005700040F931684FF6FE70491E814203D9CE2101
:1005800062A001F036F9706848B1012807D002284E
:1005900005D0032803D0CF215CA001F02AF93069EF
:1005A00038B1012805D0022803D0D02157A001F08E
:1005B00020F9306890FAA0F0B0FA80F789E00120C5
:1005C000B84005407ED07068012801D0022825D1AE
:1005D000B06848B1012807D0022805D0032803D00D
:1005E000E2214AA001F005F9A16805FB05F0B26817
:1005F000424300EB400081431143A160F06828B101
:10060000012803D0E82141A001F0F3F86168F36804
:100610003068814300FB03F211436160E26805FB2F
:1006200005F03369804600FB03F100EB480922EA3C
:1006300009020A43E260706802283FD1706908B37A
:1006400001281FD002281DD003281BD0042819D050
:10065000052817D0062815D0072813D0082811D050
:1006600009280FD00A280DD00B280BD00C2809D050
:100670000D2807D00E2805D00F2803D0F52123A080
:1006800001F0B7F8FF2D0BD808FB05F0216A72695D
:1006900068434243C0EB00108143114321620DE0E7
:1006A000636A280A726900FB00F14143414301FB80
:1006B00002F0C1EB01118B4303436362236823EA19
:1006C000090300E004E0726808FB02F003432360C2
:1006D0007F1C356835FA07F07FF471AFBDE8F0870D
:1006E000000002580004025800080258000C02588A
:1006F000001002580014025800180258001C02583A
:100700000020025800240258002802582E2E2F44A0
:100710007269766572732F53544D33324837787847
:100720005F48414C5F4472697665722F5372632F44
:1007300073746D3332683778785F6C6C5F6770699B
:100740006F2E63004FF47A724FF0E021B0FBF2F0AD
:1007500000230522401E48618B610A61704700003A
:1007600002480068C0F300207047000000440258AF
:1007700000EE100A00EE901A01EE102A9DED002AFC
:10078000B8EE403AF8EE600AB8EE410AB8EE421A06
:1007900001EE903A83EE202AF8EE611ADFED062A88
:1007A00001EEA20A22EE000AC0EE010ABCEEE00A47
:1007B00010EE100A70470000000000390649030ED1
:1007C000C0F3042251FA80F1934009681940D140E6
:1007D00040EA0140704700004C4402582DE9F84FB0
:1007E000364F00250446A846386810F0030004D0B0
:1007F00001280BD0022812D10DE000F027FA70B1C9
:1008000000F01CFA2E4DC008C54008E0FFF7A8FF15
:1008100028B12C4D03E000F009FA00B12A4D002068
:100820002060264E6060A06008363868311F33684B
:100830000A68C0F30517C3F3080012F0010F00F1B6
:10084000010A03D0301D0068C0F3CC08002F33D05C
:1008500008688946C0F3004058B1306843465246A4
:100860003946C0F34620401C00902846FFF780FF21
:100870002060D9F80000C0F3404058B130684346CA
:1008800052463946C0F30640401C00902846FFF708
:100890006FFF6060D9F80000C0F3804000280BD0E3
:1008A0003068434652463946C0F30660401C00900B
:1008B0002846FFF75DFFA060BDE8F88F2844025886
:1008C0000090D00300093D0040787D012DE9F84FEC
:1008D000374F00250446A846386810F0030004D0BE
:1008E00001280BD0022812D10DE000F0AFF970B151
:1008F00000F0A4F92F4DC008C54008E0FFF730FF15
:1009000028B12D4D03E000F091F900B12B4D0020EE
:100910002060274E606026491036A0603868091DA7
:1009200033680A68C0F30537C3F3080000F1010A11
:10093000C2F300121AB1301D0068C0F3CC08002FBA
:1009400033D008688946C0F3C04058B13068434688
:1009500052463946C0F34620401C00902846FFF717
:1009600007FF2060D9F80000C0F3005058B130688C
:10097000434652463946C0F30640401C0090284684
:10098000FFF7F6FE6060D9F80000C0F34050002881
:100990000BD03068434652463946C0F30660401CCF
:1009A00000902846FFF7E4FEA060BDE8F88F000045
:1009B000284402580090D00300093D0040787D0192
:1009C0002DE9F84F384F00250446A846386810F046
:1009D000030004D001280BD0022812D10DE000F052
:1009E00035F970B100F02AF9304DC008C54008E073
:1009F000FFF7B6FE28B12E4D03E000F017F900B165
:100A00002C4D00202060284E606027491836A060D9
:100A10003868091D33680A68C0F30557C3F3080036
:100A200000F1010AC2F300221AB1301D0068C0F3C0
:100A3000CC08002F35D0002D33D008688946C0F38C
:100A4000805058B13068434652463946C0F346207C
:100A5000401C00902846FFF78BFE2060D9F800006C
:100A6000C0F3C05058B13068434652463946C0F3CF
:100A70000640401C00902846FFF77AFE6060D9F8D7
:100A80000000C0F3006000280BD030684346524697
:100A90003946C0F30660401C00902846FFF768FE08
:100AA000A060BDE8F88F0000284402580090D003F1
:100AB00000093D0040787D010248006800F4706044
:100AC0007047000018440258FEB5054642484FF0F2
:100AD0000004854208D0A5F1E060083804D03FA0AA
:100AE00040F2212100F085FE2846FFF767FE494BC2
:100AF0004FF440724FF48031C51A98424FF47D4351
:100B00005FD022DC444EB042A0EB06050AD010DCD8
:100B1000424DA0F10800B0F1E06040D090422DD0ED
:100B2000884229D100F0A2F830B36846FFF7CEFE24
:100B300009E09D4201D08D421ED100F09FF8D8B14E
:100B40006846FFF73DFF019C16E0354EA81BB542F5
:100B500004D008DC954234D08D420DD1FFF700FE61
:100B600050B1304C08E0984201D0884204D100F0E6
:100B700075F808B14FF400442046FEBD00F0C0FCFB
:100B80000446FFF799FFC0F30320285C00F01F0024
:100B900024FA00F000F086FC00F0A2FC0FE000F068
:100BA000AFFC0446FFF788FFC0F30320285C00F089
:100BB0001F0024FA00F000F075FC00F081FC0446F0
:100BC000DAE700F043F80028D6D000F037F8164CEA
:100BD000C008C440D0E70000080300072E2E2F44B1
:100BE0007269766572732F53544D33324837787873
:100BF0005F48414C5F4472697665722F5372632F70
:100C000073746D3332683778785F6C6C5F726363CE
:100C10002E6300000800030708030107061A0008F6
:100C20000003010000093D000090D0030248006865
:100C3000C0F340407047000000440258024800687A
:100C400000F0180070470000004402580248006895
:100C5000C0F380007047000000440258024800685A
:100C6000C0F340007047000070440258024800681A
:100C7000C0F3C0607047000000440258024800689A
:100C8000C0F34070704700000044025803490A68EE
:100C900022F00F0202430A60704700001844025815
:100CA0002DE9F04705468E480C464FF00106854277
:100CB00013D08C48854210D08B4885420DD08B488C
:100CC00085420AD08A48854207D08A48854204D0A6
:100CD00089A040F2591100F08CFD206880B1B0F578
:100CE000003F0DD0B0F5802F0AD0B0F5C02F07D04F
:100CF000B0F5C12F04D04FF4AE717FA000F079FDA4
:100D000060684FF48007B84205D020B17AA040F265
:100D10005D1100F06EFDA06803283CD004283AD095
:100D2000052838D0062836D0072834D0082832D0F5
:100D3000092830D00A282ED00B282CD00C282AD0F5
:100D40000D2828D00E2826D00F2824D0102822D0F5
:100D5000112820D012281ED013281CD014281AD0F5
:100D6000152818D0162816D0172814D0182812D0F5
:100D7000192810D01A280ED01B280CD01C280AD0F5
:100D80001D2808D01E2806D01F2804D05AA04FF4D2
:100D9000AF7100F02EFDE06838B1B0F1007F04D0F3
:100DA00055A040F25F1100F024FD206938B1B0F188
:100DB000807F04D04FF4B0714FA000F01AFD60693D
:100DC0004FF0806A4FF00058504507D030B1404591
:100DD00004D049A040F2611100F00BFDA0694FF072
:100DE0008059B8B1484515D0404513D0B0F1405FA7
:100DF00010D0B0F1804F0DD0B0F1A04F0AD0B0F1BB
:100E0000C04F07D0B0F1E04F04D03BA04FF4B17118
:100E100000F0EFFCE069B0F5000F05D020B136A07E
:100E200040F2631100F0E5FC206AB84205D020B121
:100E30004FF4B27130A000F0DCFC286810F0010F14
:100E40004AD1AA683A4E236AA0693240A168184381
:100E500011430843A86062686069E968504501F081
:100E600080510AD119B1494507D112B105E0BA4202
:100E700003D1286840F480502860E169D4E9042057
:100E8000D4F80CC0D4E900360A43E96840EA0C0003
:100E9000DFF8A0C01043304303F4C022104301EA3E
:100EA0000C010843E8602868218820F4006001F400
:100EB000006108432860206AB84208D1606A20B9FE
:100EC0000DA040F29B1100F094FC606A2864286D2C
:100ED000002620F0010028653046BDE8F0870000BC
:100EE0000030014000380040003C00400034014028
:100EF00000500140001400582E2E2F447269766570
:100F000072732F53544D3332483778785F48414CD1
:100F10005F4472697665722F5372632F73746D33F9
:100F200032683778785F6C6C5F7370692E6300008D
:100F3000E0FFBF8FFFFF39D801490860704700000C
:100F4000040000242DE9F05F874F0126DFF81C9292
:100F50000D46DFF81CA2B842DFF818B2044616D0DE
:100F60004C4514D0544512D05C4510D08248844280
:100F70000DD0824884420AD08148844207D08148FB
:100F8000844204D080A040F2031100F032FC2868B3
:100F9000D0B1012818D0022816D0032814D0042874
:100FA00012D0052810D006280ED007280CD008280B
:100FB0000AD0092808D00A2806D00B2804D04FF4FC
:100FC000827171A000F015FC7E496868884204D9DE
:100FD0006DA040F2051100F00CFCA8684FF4805899
:100FE000B0F1805F07D030B1404504D066A04FF427
:100FF000837100F0FEFBE86840450BD050B1B0F5BE
:10100000405F07D0B0F5005F04D05FA040F2071149
:1010100000F0EFFB286950B1B0F5806F07D0B0F554
:10102000C06F04D04FF4847157A000F0E2FB6869F0
:1010300050B1042808D0082806D00C2804D052A0AB
:1010400040F2091100F0D5FBA86968B1B0F5807FC6
:101050000AD0B0F5007F07D0B0F5407F04D04AA099
:101060004FF4857100F0C5FBE86938B1B0F5004F69
:1010700004D045A040F20B1100F0BBFB206810F03B
:10108000010F5AD1D5E90482D5F81CC0A86821689F
:1010900042EA0C024C4B40EA080010431940084356
:1010A00020606168E86821F4405101436160A168F3
:1010B000A86921F440710143A1604449BC4201D1B7
:1010C000084612E042484C450FD054450DD05C45CF
:1010D0000BD0294A944208D0284A9442F0D028499B
:1010E0008C4202D027498C4220D1FFF7EDFCE8B1B9
:1010F0006968D9B12A680026EB690B2A0ED8B3F5C6
:10110000004F344B1CD0D2B253F82220B0FBF2F087
:1011100000EB5100B0FBF1F080B2E060E068102815
:1011200004D24FF4B87118A000F063FBE16A28887C
:1011300021F00F0180B20143E1623046BDE8F09F2B
:10114000D7B24FF6F07253F82730B0FBF3F04000FF
:1011500000EB5100B0FBF1F081B201EA0200C1F3F3
:1011600042010843D9E7000000100140004400405C
:1011700000480040004C0040005000400014014076
:1011800000780040007C00402E2E2F447269766566
:1011900072732F53544D3332483778785F48414C3F
:1011A0005F4472697665722F5372632F73746D3367
:1011B00032683778785F6C6C5F75736172742E6318
:1011C0000000000020BCBE00F369FFEF0803000729
:1011D00008000007181A00084FF0E02108B5421C6B
:1011E0000A69009200D0401C0A69D20300D5401E53
:1011F0000028F9D108BD0000F0B587B01821684675
:10120000FFF71CF98020FFF77FF90420FFF77CF936
:101210000120FFF779F90820FFF776F90220FFF7A0
:1012200073F91448012181611821134EB161102115
:10123000124FB9610025012400946946CDE90145AA
:10124000CDE90354FFF76CF918206946CDE9000495
:10125000CDE9024530460494FFF762F91020694653
:10126000CDE90004CDE9024538460494FFF758F96A
:1012700007B0F0BD00080258000C025800040258E4
:1012800070B592B028216846FFF7D8F818210AA84F
:10129000FFF7D4F8294807252949002451FA80F09E
:1012A000016821F0E04101602548A830016841F063
:1012B00020010160006800F0200010902048943068
:1012C000016841F00201016000680AAE022100F0ED
:1012D000020010902820012286E8170008231948F0
:1012E0000AA9CDE90E43FFF71BF94FF480004FF434
:1012F000C1260DF10C0C0096C100820003018CE8A0
:101300001E000794089409940F4CCDE90105E0688C
:1013100020F08050E060E06840F08040E060E068ED
:1013200020F46010E06069462046FFF7B9FC2068B1
:1013300040F00100206012B070BD00000C1C0007DE
:101340004C440258000402580014005810B590B0E4
:1013500020216846FFF772F8182108A8FFF76EF8F9
:1013600049480024494951FA80F00721026822F0D7
:10137000380202604548A430026842F01002026060
:10138000006800F010000E9040489430026842F06F
:1013900001020260006808AB022200F001000E901A
:1013A0004FF4C06083E81500CDE90C41384808A926
:1013B0000B94FFF7B5F837480068C0F30220C0F17E
:1013C0000701042900D90421021D072A01D20020A7
:1013D00000E0C01E012202FA01F18240491E521EA5
:1013E00001F0030102F00202814011432A4A080180
:1013F00082F80004202028492139C1F800014FF467
:10140000E1300C2102940394CDE90040CDE9044180
:10141000069469460794214C2046FFF793FD00226D
:1014200004F1080050E8001F62F35F7140E8001308
:10143000002BF7D1002104F1080000BF50E8002F75
:1014400022F0606242EA416240E80023002BF5D1BD
:10145000206820F000502060606820F490406060B8
:10146000A06820F02A00A060206840F00100206001
:10147000E069C0F340500028FAD0E069C0F3805022
:101480000028F5D010B010BD080300074C440258E6
:10149000000002580CED00E025E000E000100140E3
:1014A000FEE7FEE704490968044A01F00F01515CB8
:1014B00001F01F01C840704718440258061A00087E
:1014C00005490968054A01F070010909515C01F0FC
:1014D0001F01C840704700001C440258061A00084B
:1014E00005490968054A01F4E061090A515C01F007
:1014F0001F01C840704700001C440258061A00082B
:101500000D480EB50168002011F038010AD00829F5
:101510000ED010290ED0182903D16846FFF75EF9C6
:1015200000980EBDFFF78AFBC1080448C8400EBDF5
:1015300003480EBD03480EBD104402580090D0036E
:1015400000093D0040787D01402010B572B680F35F
:101550001188BFF34F8FBFF36F8F62B600F0C0F9F1
:1015600018B104494FF080500860002080F31188C2
:1015700010BD000004ED00E0544810B5016821F0F2
:101580000F0141F002010160016801F00F01022921
:10159000FAD14F48016821F0070141F002010160D2
:1015A0004B480C30016841F4404101600168C1F3CF
:1015B00040310029FAD04748016841F48031016088
:1015C0000168C1F340410029FAD0424A283211682B
:1015D00021F0030141F002011160111D0B6843F479
:1015E00080330B600B6843F480230B600B6823F09F
:1015F0000C0343F008030B600B6823F002030B603D
:10160000116821F47C7141F0500111603149303191
:101610000A686FF3080242F09F020A600A6822F427
:101620007E4242F400720A600A6822F4FE0242F42A
:1016300080320A600A6822F0FE4242F080720A603C
:10164000016841F0807101600168C1F340610029C7
:10165000FAD00820FFF71AFB1E481030016821F06D
:10166000070141F003010160016801F03801182908
:10167000FAD1184C1834206820F4706020600820DB
:10168000FFF704FB201D016821F0700141F04001CB
:101690000160016821F4E06141F48061016020682B
:1016A00020F0700040F0400020600A4820300168BF
:1016B00021F0700141F0400101600748FFF742F856
:1016C000BDE810400548FFF737BC0000002000527D
:1016D0000C4802580044025880F0FA020084D717E0
:1016E0002C48F0B52C4A016841F470010160106883
:1016F00000F00F00072804D2106820F00F00C01D72
:10170000106026490020254C10340B68244D43F00E
:1017100001030B6020600B682B400B60136803F023
:101720000F03072B04D9136823F00F03DB1D13608D
:101730001A4C1C4A18341C4B261D371D2060174CB0
:101740001A4D28343060261D3860371D23603B1D3C
:1017500035601C1D3A60251D2E1D1860331D22604A
:101760002860326018600A680C4B114C22F4802209
:1017700060330A60186020686FF30F00B0F1005FFB
:1017800003D20C490120C1F8080143F2D2000A49F2
:101790000860F0BD88ED00E00020005200440258CF
:1017A0007FEDF6EA80020101000202020000FF0163
:1017B0000010005C0080005100400052084810B545
:1017C0000849094A436A094C08886428235401D30C
:1017D000012300E000231370401C088010BD0000AE
:1017E0000010014000000024020000244C000024EE
:1017F000FEE770471E4808B5016841F0020101602C
:1018000000684FF6FF031B4900F0020000901A4ADF
:101810000868184040F4A060104308600868C0F3EE
:101820000220C0F10702042A00D90422011D072961
:1018300001D2002000E0C01E012101FA02F2814025
:10184000521E491E02F0030201F0030182400A43C6
:101850000A49100181F8140DFFF78EFEFFF7CCFC4A
:10186000FFF774FDFFF70CFDC820FFF7B5FCFBE7A1
:10187000F44402580CED00E00000FA050FE000E02F
:101880000548816B096821B1816BC968096881626B
:1018900070474FF0FF31FAE70C0000240E48416B0F
:1018A00011B10121C16170470021C16101690B4A79
:1018B000B1FA81F1C1F11F0101EB810102EB81015C
:1018C00001F108034A6852684A609A4201D152689D
:1018D0004A60D168016070470C00002414010024A4
:1018E0002DE9F047434C606B002628B1A069401CED
:1018F000A0613046BDE8F087E5686D1CE56008D161
:10190000A06BE16BA163E063206A401C2062FFF7DB
:10191000B7FF3948A16A8D420FD34FF00009A16B80
:10192000096839B1A16BC968C9684A68954212D281
:10193000A26202E04FF0FF31A1622168C96A01EBA7
:10194000810150F82100012800D90126E069002812
:10195000CFD00126CDE7D1E902734A6901F104082D
:10196000BB60D1E902377B605368434501D1CB6846
:101970005360C1F8149013685B1E13608A6A9AB1B1
:10198000D1E9077C01F11803C7F808C0D1E9077C49
:10199000CCF8047057689F4201D10B6A5360C1F8BC
:1019A000289013685B1E1360CA6A0123276993405D
:1019B0003B43236102EB820200EB820252688A60A1
:1019C0009368CB609368C3F80480C2F80880CA6A41
:1019D00002EB820200EB82034B6150F822305B1C69
:1019E00040F822302268C96AD26A914297D901260A
:1019F00095E700000C000024140100244FF0407013
:101A0000E1EE100A70470000000001020304010229
:101A1000030406070809000001000000020000009E
:101A20000400000006000000080000000A0000009A
:101A30000C0000001000000020000000400000002A
:101A40008000000000010000681A00080000002467
:101A50004C000000D4020008B41A00084C00002416
:101A6000F4070000F0020008000000000090D0031E
:101A70000090D00300000000000000000000000003
:101A80000000000000000000000000000000000056
:101A90000000000000000000000000000000000046
:101AA0000000000004000000000000000000000032
:041AB0000000000032
:040000050800029954
:00000001FF
