:020000040800F2
:10000000386B0024390300088F17000843040008E8
:100010008D1700083F040008B51A00080000000012
:100020000000000000000000000000003918000877
:100030004104000800000000911700083B18000868
:100040005303000853030008530300085303000838
:100050005303000853030008530300085303000828
:100060005303000853030008530300085303000818
:100070005303000853030008530300085303000808
:1000800053030008530300085303000853030008F8
:1000900053030008530300085303000853030008E8
:1000A00053030008530300085303000853030008D8
:1000B00053030008530300085303000853030008C8
:1000C00053030008530300085303000853030008B8
:1000D00053030008811A0008530300085303000863
:1000E00053030008530300080000000053030008F6
:1000F0005303000853030008530300085303000888
:100100005303000853030008530300085303000877
:100110005303000853030008530300085303000867
:100120005303000853030008530300085303000857
:100130005303000853030008530300085303000847
:1001400000000000000000000000000000000000AF
:100150005303000853030008530300085303000827
:100160005303000853030008530300085303000817
:100170005303000853030008530300085303000807
:1001800053030008530300085303000853030008F7
:1001900053030008530300085303000853030008E7
:1001A00053030008530300085303000853030008D7
:1001B00053030008530300085303000853030008C7
:1001C00053030008530300085303000853030008B7
:1001D00053030008530300085303000853030008A7
:1001E0005303000853030008530300085303000897
:1001F0005303000853030008530300085303000887
:100200005303000853030008530300085303000876
:100210005303000853030008530300085303000866
:1002200053030008530300085303000800000000B4
:1002300053030008530300080000000053030008A4
:100240005303000853030008530300085303000836
:100250005303000853030008530300085303000826
:100260005303000853030008530300085303000816
:100270005303000853030008530300080000000064
:100280005303000853030008530300080000000054
:10029000000000005303000800F002F800F03CF8F2
:1002A0000AA090E8000C82448344AAF10107DA45D1
:1002B00001D100F031F8AFF2090EBAE80F0013F0E7
:1002C000010F18BFFB1A43F001031847687D0000B7
:1002D000887D0000103A24BF78C878C1FAD8520748
:1002E00024BF30C830C144BF04680C6070470000B0
:1002F0000023002400250026103A28BF78C1FBD82F
:10030000520728BF30C148BF0B6070471FB501F0CE
:100310006BFC1FBD10B510BD00F058F81146FFF77B
:10032000F5FF01F0C9FB00F076F803B4FFF7F2FF28
:1003300003BC00F07DF800000948804709480047E9
:10034000FEE7FEE7FEE7FEE7FEE7FEE7FEE7FEE785
:10035000FEE7FEE704480549054A064B70470000E2
:10036000A51900089902000838650024386B00249C
:1003700038670024386700244FF0000200B51346A8
:1003800094469646203922BFA0E80C50A0E80C50B5
:10039000B1F12001BFF4F7AF090728BFA0E80C5066
:1003A00048BF0CC05DF804EB890028BF40F8042B5F
:1003B00008BF704748BF20F8022B11F0804F18BFCC
:1003C00000F8012B7047704770477047754600F082
:1003D0002BF8AE4605006946534620F007008546D7
:1003E00018B020B5FFF7B6FFBDE820404FF000067B
:1003F0004FF000074FF000084FF0000B21F007010D
:10040000AC46ACE8C009ACE8C009ACE8C009ACE84F
:10041000C0098D46704710B50446AFF300802046F2
:10042000BDE81040FFF781BF00487047D464002446
:1004300001491820ABBEFEE7260002007047FEE728
:100440007047FEE770B51C4616460D4603462A2047
:1004500000F06EF9184600F07BF9304600F078F9AC
:100460002B2000F065F91835A8B200F071F91834A6
:10047000A0B200F06DF9BDE870402C2000F058B932
:1004800008B500215023A0220090084600F002F891
:1004900008BD00002DE9F043141A5F1A641CDDF852
:1004A0001C807F1C00257C434FF448566400B442F6
:1004B00002D9A4F548553446FFF7C4FF0E4FDFF8C4
:1004C0003C90002003E0421C27F8108090B2A0422C
:1004D000F9D31020C9F81800A1B2074800F048F974
:1004E000002D07D0B54202D9A5F54855E9E72C46BD
:1004F0000025E6E7BDE8F083D4000024000402589C
:1005000000F020B8F0B514461D460719059EA02F2F
:1005100015D84A19502A12D8521E93B27F1EBAB269
:10052000FFF790FF0649102088614FF6FF706C437B
:1005300000EA44013046BDE8F04000F04FB9F0BD9C
:100540000004025810B5794C4FF40020A06140001F
:10055000A061C82000F0B6FF1020A061142000F0B8
:10056000B1FF0820A061112000F0E2F8642000F043
:10057000A9FFB12000F0DCF8052000F0E1F8102020
:1005800000F0DEF8102000F0DBF8B22000F0D0F828
:10059000052000F0D5F8102000F0D2F8102000F06F
:1005A000CFF8B32000F0C4F8052000F0C9F81020FF
:1005B00000F0C6F8102000F0C3F8052000F0C0F8E5
:1005C000102000F0BDF8102000F0BAF8B42000F0C0
:1005D000AFF8032000F0B4F8C02000F0A9F86220C2
:1005E00000F0AEF8022000F0ABF8042000F0A8F80C
:1005F000C12000F09DF8C02000F0A2F8C22000F059
:1006000097F80D2000F09CF8002000F099F8C32026
:1006100000F08EF88D2000F093F86A2000F090F83A
:10062000C42000F085F88D2000F08AF8EE2000F05C
:1006300087F8C52000F07CF80E2000F081F8E0205B
:1006400000F076F8102000F07BF80E2000F078F82B
:10065000022000F075F8032000F072F80E2000F080
:100660006FF8072000F06CF8022000F069F807200E
:1006700000F066F80A2000F063F8122000F060F83D
:10068000272000F05DF8372000F05AF8002000F035
:1006900057F80D2000F054F80E2000F051F810200B
:1006A00000F04EF8E12000F043F8102000F048F888
:1006B0000E2000F045F8032000F042F8032000F07F
:1006C0003FF80F2000F03CF8062000F039F8022037
:1006D00000F036F8082000F033F80A2000F030F877
:1006E000132000F02DF8262000F02AF8362000F024
:1006F00027F8002000F024F80D2000F021F80E204B
:1007000000F01EF8102000F01BF83A2000F010F85E
:10071000052000F015F8362000F00AF8A82000F0B7
:100720000FF8BDE81040292000F002B8000C025874
:10073000024A4FF48011916100F028B80004025879
:10074000024A1021916100F021B800000004025813
:10075000064A010A00B5C3B2102090610846FFF7AF
:10076000EFFF5DF804EB1846FFF7EABF00040258FC
:1007700070B500240D46064605E000BF36F81400AB
:10078000FFF7E6FF641CAC42F8DB70BD12494A6813
:100790006FF30F0242F001024A600A68C2F340227E
:1007A000002AFAD14A69C2F34002002AFAD081F83D
:1007B0002000086840F4007008604869C0F3C00079
:1007C0000028FAD0886940F008008861886940F004
:1007D00010008861704700000014005830B50023F5
:1007E0000C46054603E0E85CFFF7AAFF5B1CA3424A
:1007F000F9DB30BD044908B50A6802430A6009689C
:100800000140009108BD0000E04402582DE9F04786
:1008100004466E480E46844221D06D4884421ED064
:100820006C4884421BD06C48844218D06B48844288
:1008300015D06B48844212D06A4884420FD06A486F
:1008400084420CD06948844209D06948844206D069
:100850006848844203D0CD2167A001F02CF93168AB
:100860004FF6FE70491E814203D9CE2162A001F0ED
:1008700022F9706848B1012807D0022805D0032862
:1008800003D0CF215CA001F016F9306938B10128FE
:1008900005D0022803D0D02157A001F00CF9306810
:1008A00090FAA0F0B0FA80F789E00120B840054046
:1008B0007ED07068012801D0022825D1B06848B1E7
:1008C000012807D0022805D0032803D0E2214AA03E
:1008D00001F0F1F8A16805FB05F0B268424300EBB6
:1008E000400081431143A160F06828B1012803D082
:1008F000E82141A001F0DFF86168F36830688143C6
:1009000000FB03F211436160E26805FB05F0336907
:10091000804600FB03F100EB480922EA09020A4382
:10092000E260706802283FD1706908B301281FD0C7
:1009300002281DD003281BD0042819D0052817D061
:10094000062815D0072813D0082811D009280FD061
:100950000A280DD00B280BD00C2809D00D2807D061
:100960000E2805D00F2803D0F52123A001F0A3F80D
:10097000FF2D0BD808FB05F0216A726968434243DA
:10098000C0EB00108143114321620DE0636A280A25
:10099000726900FB00F14143414301FB02F0C1EBEE
:1009A00001118B4303436362236823EA090300E0D8
:1009B00004E0726808FB02F0034323607F1C356883
:1009C00035FA07F07FF471AFBDE8F08700000258F8
:1009D0000004025800080258000C02580010025887
:1009E0000014025800180258001C02580020025837
:1009F00000240258002802582E2E2F447269766572
:100A000072732F53544D3332483778785F48414CD6
:100A10005F4472697665722F5372632F73746D33FE
:100A200032683778785F6C6C5F6770696F2E63002F
:100A30004FF47A724FF0E021B0FBF2F00023052270
:100A4000401E48618B610A617047000002480068DF
:100A5000C0F30020704700000044025800EE100A66
:100A600000EE901A01EE102A9DED002AB8EE403AF1
:100A7000F8EE600AB8EE410AB8EE421A01EE903A7A
:100A800083EE202AF8EE611ADFED062A01EEA20AB3
:100A900022EE000AC0EE010ABCEEE00A10EE100AD7
:100AA00070470000000000390649030EC0F304221D
:100AB00051FA80F1934009681940D14040EA014061
:100AC000704700004C4402582DE9F84F364F00257E
:100AD0000446A846386810F0030004D001280BD063
:100AE000022812D10DE000F027FA70B100F01CFAD4
:100AF0002E4DC008C54008E0FFF7A8FF28B12C4DD7
:100B000003E000F009FA00B12A4D00202060264ED3
:100B10006060A06008363868311F33680A68C0F327
:100B20000517C3F3080012F0010F00F1010A03D00A
:100B3000301D0068C0F3CC08002F33D00868894608
:100B4000C0F3004058B13068434652463946C0F3BE
:100B50004620401C00902846FFF780FF2060D9F80F
:100B60000000C0F3404058B1306843465246394611
:100B7000C0F30640401C00902846FFF76FFF6060FE
:100B8000D9F80000C0F3804000280BD030684346FD
:100B900052463946C0F30660401C00902846FFF7D5
:100BA0005DFFA060BDE8F88F284402580090D00394
:100BB00000093D0040787D012DE9F84F374F0025B1
:100BC0000446A846386810F0030004D001280BD072
:100BD000022812D10DE000F0AFF970B100F0A4F9D5
:100BE0002F4DC008C54008E0FFF730FF28B12D4D5C
:100BF00003E000F091F900B12B4D00202060274E5A
:100C0000606026491036A0603868091D33680A689C
:100C1000C0F30537C3F3080000F1010AC2F3001264
:100C20001AB1301D0068C0F3CC08002F33D008681B
:100C30008946C0F3C04058B13068434652463946F1
:100C4000C0F34620401C00902846FFF707FF2060B5
:100C5000D9F80000C0F3005058B1306843465246FE
:100C60003946C0F30640401C00902846FFF7F6FEC8
:100C70006060D9F80000C0F3405000280BD0306805
:100C8000434652463946C0F30660401C0090284651
:100C9000FFF7E4FEA060BDE8F88F0000284402588A
:100CA0000090D00300093D0040787D012DE9F84F08
:100CB000384F00250446A846386810F0030004D0D9
:100CC00001280BD0022812D10DE000F035F970B1E7
:100CD00000F02AF9304DC008C54008E0FFF7B6FE25
:100CE00028B12E4D03E000F017F900B12C4D002083
:100CF0002060284E606027491836A0603868091DBA
:100D000033680A68C0F30557C3F3080000F1010A0D
:100D1000C2F300221AB1301D0068C0F3CC08002FC6
:100D200035D0002D33D008688946C0F3805058B1C3
:100D30003068434652463946C0F34620401C009076
:100D40002846FFF78BFE2060D9F80000C0F3C050A2
:100D500058B13068434652463946C0F30640401CFD
:100D600000902846FFF77AFE6060D9F80000C0F3D3
:100D7000006000280BD03068434652463946C0F325
:100D80000660401C00902846FFF768FEA060BDE8A2
:100D9000F88F0000284402580090D00300093D005D
:100DA00040787D010248006800F4706070470000E0
:100DB00018440258FEB5054642484FF000048542EB
:100DC00008D0A5F1E060083804D03FA040F221210E
:100DD00000F071FE2846FFF767FE494B4FF4407262
:100DE0004FF48031C51A98424FF47D435FD022DC26
:100DF000444EB042A0EB06050AD010DC424DA0F1F3
:100E00000800B0F1E06040D090422DD0884229D156
:100E100000F0A2F830B36846FFF7CEFE09E09D422D
:100E200001D08D421ED100F09FF8D8B16846FFF77F
:100E30003DFF019C16E0354EA81BB54204D008DCEE
:100E4000954234D08D420DD1FFF700FE50B1304CA9
:100E500008E0984201D0884204D100F075F808B14A
:100E60004FF400442046FEBD00F0C2FC0446FFF7EC
:100E700099FFC0F30320285C00F01F0024FA00F063
:100E800000F088FC00F0A4FC0FE000F0B1FC044688
:100E9000FFF788FFC0F30320285C00F01F0024FA4E
:100EA00000F000F077FC00F083FC0446DAE700F085
:100EB00043F80028D6D000F037F8164CC008C440DC
:100EC000D0E70000080300072E2E2F4472697665D4
:100ED00072732F53544D3332483778785F48414C02
:100EE0005F4472697665722F5372632F73746D332A
:100EF00032683778785F6C6C5F7263632E630000D2
:100F00000800030708030107F27F0008000301003F
:100F100000093D000090D00302480068C0F3404043
:100F200070470000004402580248006800F01800B2
:100F3000704700000044025802480068C0F3800077
:100F4000704700000044025802480068C0F34000A7
:100F5000704700007044025802480068C0F3C06047
:100F6000704700000044025802480068C0F3407017
:100F7000704700000044025803490A6822F00F023B
:100F800002430A6070470000184402582DE9F047F8
:100F900005468E480C464FF00106854213D08C481A
:100FA000854210D08B4885420DD08B4885420AD0AF
:100FB0008A48854207D08A48854204D089A040F2F9
:100FC000591100F078FD206880B1B0F5003F0DD0D8
:100FD000B0F5802F0AD0B0F5C02F07D0B0F5C12FE3
:100FE00004D04FF4AE717FA000F065FD60684FF44F
:100FF0008007B84205D020B17AA040F25D1100F020
:101000005AFDA06803283CD004283AD0052838D0DF
:10101000062836D0072834D0082832D0092830D006
:101020000A282ED00B282CD00C282AD00D2828D006
:101030000E2826D00F2824D0102822D0112820D006
:1010400012281ED013281CD014281AD0152818D006
:10105000162816D0172814D0182812D0192810D006
:101060001A280ED01B280CD01C280AD01D2808D006
:101070001E2806D01F2804D05AA04FF4AF7100F0EC
:101080001AFDE06838B1B0F1007F04D055A040F2FD
:101090005F1100F010FD206938B1B0F1807F04D0FD
:1010A0004FF4B0714FA000F006FD60694FF0806A08
:1010B0004FF00058504507D030B1404504D049A00A
:1010C00040F2611100F0F7FCA0694FF08059B8B10F
:1010D000484515D0404513D0B0F1405F10D0B0F175
:1010E000804F0DD0B0F1A04F0AD0B0F1C04F07D063
:1010F000B0F1E04F04D03BA04FF4B17100F0DBFC45
:10110000E069B0F5000F05D020B136A040F26311C0
:1011100000F0D1FC206AB84205D020B14FF4B27182
:1011200030A000F0C8FC286810F0010F4AD1AA686E
:101130003A4E236AA0693240A1681843114308431C
:10114000A86062686069E968504501F080510AD181
:1011500019B1494507D112B105E0BA4203D1286857
:1011600040F480502860E169D4E90420D4F80CC030
:10117000D4E900360A43E96840EA0C00DFF8A0C071
:101180001043304303F4C022104301EA0C0108432A
:10119000E8602868218820F4006001F400610843B9
:1011A0002860206AB84208D1606A20B90DA040F2D8
:1011B0009B1100F080FC606A2864286D002620F0F6
:1011C000010028653046BDE8F0870000003001408E
:1011D00000380040003C0040003401400050014015
:1011E000001400582E2E2F447269766572732F53A7
:1011F000544D3332483778785F48414C5F447269C8
:101200007665722F5372632F73746D33326837783B
:10121000785F6C6C5F7370692E630000E0FFBF8FB6
:10122000FFFF39D80149086070470000040000241E
:101230002DE9F05F874F0126DFF81C920D46DFF89D
:101240001CA2B842DFF818B2044616D04C4514D0A0
:10125000544512D05C4510D0824884420DD082485B
:1012600084420AD08148844207D08148844204D015
:1012700080A040F2031100F01EFC2868D0B10128C4
:1012800018D0022816D0032814D0042812D005281C
:1012900010D006280ED007280CD008280AD009281C
:1012A00008D00A2806D00B2804D04FF4827171A010
:1012B00000F001FC7E496868884204D96DA040F2C4
:1012C000051100F0F8FBA8684FF48058B0F1805F7A
:1012D00007D030B1404504D066A04FF4837100F0D0
:1012E000EAFBE86840450BD050B1B0F5405F07D04D
:1012F000B0F5005F04D05FA040F2071100F0DBFB07
:10130000286950B1B0F5806F07D0B0F5C06F04D038
:101310004FF4847157A000F0CEFB686950B10428E7
:1013200008D0082806D00C2804D052A040F2091199
:1013300000F0C1FBA86968B1B0F5807F0AD0B0F5B4
:10134000007F07D0B0F5407F04D04AA04FF48571EC
:1013500000F0B1FBE86938B1B0F5004F04D045A00A
:1013600040F20B1100F0A7FB206810F0010F5AD1DA
:10137000D5E90482D5F81CC0A868216842EA0C02AD
:101380004C4B40EA08001043194008432060616854
:10139000E86821F4405101436160A168A86921F423
:1013A00040710143A1604449BC4201D1084612E0AA
:1013B00042484C450FD054450DD05C450BD0294ACE
:1013C000944208D0284A9442F0D028498C4202D056
:1013D00027498C4220D1FFF7EDFCE8B16968D9B10B
:1013E0002A680026EB690B2A0ED8B3F5004F344B60
:1013F0001CD0D2B253F82220B0FBF2F000EB510027
:10140000B0FBF1F080B2E060E068102804D24FF445
:10141000B87118A000F04FFBE16A288821F00F0195
:1014200080B20143E1623046BDE8F09FD7B24FF68B
:10143000F07253F82730B0FBF3F0400000EB51009E
:10144000B0FBF1F081B201EA0200C1F342010843AE
:10145000D9E700000010014000440040004800406F
:10146000004C004000500040001401400078004053
:10147000007C00402E2E2F447269766572732F53C4
:10148000544D3332483778785F48414C5F44726935
:101490007665722F5372632F73746D3332683778A9
:1014A000785F6C6C5F75736172742E63000000006E
:1014B00020BCBE00F369FFEF080300070800000727
:1014C000048000084FF0E02108B5421C0A69009230
:1014D00000D0401C0A69D20300D5401E0028F9D173
:1014E00008BD0000F0B587B018216846FEF744FF3C
:1014F0008020FFF77FF90420FFF77CF90120FFF738
:1015000079F90820FFF776F90220FFF773F91448FC
:10151000012181611821134EB1611021124FB9616F
:101520000025012400946946CDE90145CDE9035425
:10153000FFF76CF918206946CDE90004CDE90245B2
:1015400030460494FFF762F910206946CDE90004A3
:10155000CDE9024538460494FFF758F907B0F0BDCD
:1015600000080258000C02580004025870B592B0EE
:1015700028216846FEF700FF18210AA8FEF7FCFEA6
:10158000294807252949002451FA80F0016821F0F3
:10159000E04101602548A830016841F02001016068
:1015A000006800F02000109020489430016841F05D
:1015B0000201016000680AAE022100F002001090F2
:1015C0002820012286E81700082319480AA9CDE936
:1015D0000E43FFF71BF94FF480004FF4C1260DF1C5
:1015E0000C0C0096C100820003018CE81E000794D9
:1015F000089409940F4CCDE90105E06820F0805073
:10160000E060E06840F08040E060E06820F4601056
:10161000E06069462046FFF7B9FC206840F0010011
:10162000206012B070BD00000C1C00074C44025832
:10163000000402580014005810B590B020216846EC
:10164000FEF79AFE182108A8FEF796FE49480024E6
:10165000494951FA80F00721026822F038020260FD
:101660004548A430026842F010020260006800F0B1
:1016700010000E9040489430026842F0010202606F
:10168000006808AB022200F001000E904FF4C06029
:1016900083E81500CDE90C41384808A90B94FFF701
:1016A000B5F837480068C0F30220C0F107010429EB
:1016B00000D90421021D072A01D2002000E0C01E2B
:1016C000012202FA01F18240491E521E01F003017B
:1016D00002F00202814011432A4A080182F8000404
:1016E000202028492139C1F800014FF4E1300C21B4
:1016F00002940394CDE90040CDE904410694694683
:101700000794214C2046FFF793FD002204F10800C6
:1017100050E8001F62F35F7140E80013002BF7D11F
:10172000002104F1080000BF50E8002F22F06062A1
:1017300042EA416240E80023002BF5D1206820F006
:1017400000502060606820F490406060A06820F045
:101750002A00A060206840F001002060E069C0F32A
:1017600040500028FAD0E069C0F380500028F5D03E
:1017700010B010BD080300074C4402580000025886
:101780000CED00E025E000E000100140FEE7FEE780
:101790007047000004490968044A01F00F01515CD8
:1017A00001F01F01C840704718440258F27F00083A
:1017B00005490968054A01F070010909515C01F009
:1017C0001F01C840704700001C440258F27F000807
:1017D00005490968054A01F4E061090A515C01F014
:1017E0001F01C840704700001C440258F27F0008E7
:1017F0000D480EB50168002011F038010AD0082903
:101800000ED010290ED0182903D16846FFF75CF9D5
:1018100000980EBDFFF788FBC1080448C8400EBD04
:1018200003480EBD03480EBD104402580090D0037B
:1018300000093D0040787D0170477047544810B55D
:10184000016821F00F0141F002010160016801F01F
:101850000F010229FAD14F48016821F0070141F038
:10186000020101604B480C30016841F440410160C5
:101870000168C1F340310029FAD04748016841F4BA
:10188000803101600168C1F340410029FAD0424A29
:101890002832116821F0030141F002011160111D8D
:1018A0000B6843F480330B600B6843F480230B60B8
:1018B0000B6823F00C0343F008030B600B6823F064
:1018C00002030B60116821F47C7141F0500111603A
:1018D000314930310A686FF3080242F09F020A6012
:1018E0000A6822F47E4242F400720A600A6822F416
:1018F000FE0242F480320A600A6822F0FE4242F0A0
:1019000080720A60016841F0807101600168C1F372
:1019100040610029FAD00820FFF72EFB1E48103046
:10192000016821F0070141F003010160016801F045
:1019300038011829FAD1184C1834206820F4706046
:1019400020600820FFF718FB201D016821F07001BE
:1019500041F040010160016821F4E06141F48061DF
:101960000160206820F0700040F0400020600A48CC
:101970002030016821F0700141F04001016007480A
:10198000FFF756F8BDE810400548FFF74BBC0000D4
:10199000002000520C4802580044025880F0FA021D
:1019A0000084D7172C48F0B52C4A016841F4700127
:1019B0000160106800F00F00072804D2106820F0C2
:1019C0000F00C01D106026490020254C10340B6804
:1019D000244D43F001030B6020600B682B400B602B
:1019E000136803F00F03072B04D9136823F00F03C8
:1019F000DB1D13601A4C1C4A18341C4B261D371D66
:101A00002060174C1A4D28343060261D3860371D71
:101A100023603B1D35601C1D3A60251D2E1D18607E
:101A2000331D22602860326018600A680C4B114C2C
:101A300022F4802260330A60186020686FF30F0080
:101A4000B0F1005F03D20C490120C1F8080143F254
:101A5000D2000A490860F0BD88ED00E00020005285
:101A6000004402587FEDF6EA800201010002020202
:101A70000000FF010010005C008000510040005297
:101A8000084810B50849094A436A094C088864287F
:101A9000235401D3012300E000231370401C08806D
:101AA00010BD0000001001400000002402000024CE
:101AB0000C000024FEE77047454808B5016841F076
:101AC0000201016000684FF6FF03424900F0020086
:101AD0000090414A0868184040F4A0601043086034
:101AE0000868C0F30220C0F10702042A00D90422CA
:101AF000011D072901D2002000E0C01E012101FACA
:101B000002F28140521E491E02F0030201F003015D
:101B100082400A433149100181F8140D2D490831E2
:101B200000200A68920311D4BFF34F8FBFF36F8F69
:101B30002B4A1060BFF34F8FBFF36F8F0A6842F4D8
:101B400000320A60BFF34F8FBFF36F8F0A68D20372
:101B500023D4204A78321060BFF34F8F101F43F612
:101B6000FF7400681E4D1035C0F34E32C0F3C90338
:101B700004EA4216184600BF46EA80772F60401EEE
:101B8000FAD2521EF4D2BFF34F8F086840F480306F
:101B90000860BFF34F8FBFF36F8FFFF74FFEFFF764
:101BA000A1FCFFF749FDFFF7E1FCFEF7A9FC4FF6AA
:101BB0001F00FEF765FC0B4C002150230846A022B5
:101BC0000094FEF79FFCC820FFF77CFCF4E70000C0
:101BD000F44402580CED00E00000FA050FE000E0CC
:101BE00050EF00E0F21B00084FF04070E1EE100AE9
:101BF0007047FFFFFFFFFFFFFFFFFFFFFFFFFFFF3C
:101C0000FFFFFFFFFFFFFFFFFFFFFFFFFFFFFFFFE4
:101C1000FFFFFFFFFFFFFFFFFFFFFFFFFFFFFFFFD4
:101C2000FFFFFFFFFFFFFFFFFFFFFFFFFFFFFFFFC4
:101C3000FFFFFFFFFFFFFFFFFFFFFFFFFFFFFFFFB4
:101C4000FFFFFFFFFFFFFFFFFFFFFFFFFFFFFFFFA4
:101C5000FFFFFFFFFFFFFFFFFFFFFFFFFFFFFFDFB4
:101C6000FFFFFFFEFFFEFFFFFFFFFFFFFFFFFFFF86
:101C7000FFFFFFFFFFFFFFFFFFFFFFFFFFFFFFFF74
:101C8000FFFFFFFFFFFFFFFFFFFFFFFFFFFFFFFF64
:101C9000FFFFFFFFFFFFFFFFFFFFFFFFFFFFFFFF54
:101CA000FFFFFFFFFFFFFFFFF7FFFFFFFFFFFFFF4C
:101CB000FFFFFFFFFFDFFFFFFFFFFFFFFFFFFFFF54
:101CC000FFFFFFFFFFFFFFFFFFFFFFFFFFFFFFFF24
:101CD000FFFFFFFFFFFFFFFFFFFFFFFFFFFFFFFF14
:101CE000FFFFFFFFFFFFFFFFFFFFFFFFFFFFFFFF04
:101CF000FFFFFFFFFFFFFFFFFFFFFFFFFFFFFFFFF4
:101D0000FFFFFFFFFFFFFFFFFFFFFFFFFFFFFFFFE3
:101D1000FFFFFFFFFFFFFFFFFFFFFFFFFFFFFFFFD3
:101D2000FFFFFFFFFFFFFFFFFFFFFFFFFFFFFFFFC3
:101D3000FFFFFFFFFFFFFFFFFFFFFFFFFFFFFFFFB3
:101D4000FFFFFFFFFFFFFFFFFFFFFFFFFFFFFFFFA3
:101D5000FFFFFFFFFFFFFFFFFFFFFFFFFFFFFFFF93
:101D6000FFFFFFFFFFFFFFFFFFFFFFFFFFFFFFFF83
:101D7000FFFFFFFFFFFFFFFFFFFFFFFFFFFFFFFF73
:101D8000FFFFFFFFFFFFFFFFFFFFFFFFFFFFFFFF63
:101D9000FFFFFFFFFFFFFFFFFFFFFFDFFFFFFFFF73
:101DA000FFDEFFDEFFFEFFFEFFFEFFFFFFFFFFFF88
:101DB000FFFFFFFFFFFFFFFFFFFFFFFFFFFFFFFF33
:101DC000FFFFFFFFFFFFFFFFFFFFFFDFFFFFFFFF43
:101DD000FFDFFFFFFFFFFFFFFFFFFFDFFFDFFFFF73
:101DE000FFFFFFFFFFFFFFFFFFFFFFFFFFFFFFFF03
:101DF000FFFFFFFFFFFFFFFFFFDEFFFFFFFFFFFF14
:101E0000FFFFFFFFFFFFFFFFFFFFFFFFFFFFFFFFE2
:101E1000FFFFFFFFFFFFFFFFFFFFFFFFFFFFFFFFD2
:101E2000FFFFFFFFFFFFFFFFFFFFFFFFFFFFFFFFC2
:101E3000FFFFFFFFFFFFFFFFFFFFFFFFFFFFFFFFB2
:101E4000FFFFFFFFFFFFFFFFFFFFFFFFFFFFFFFFA2
:101E5000FFFFFFFFFFFFFFFFFFFFFFFFFFFFFFFF92
:101E6000FFFFFFFFFFFFFFFFFFFFFFFFFFFFFFFF82
:101E7000FFFFFFFFFFFFFFFFFFFFFFFFFFFFFFFF72
:101E8000FFFFFFFFFFFFFFFFFFFFFFFFFFFFFFFF62
:101E9000FFFFFFFFFFFFFFFFFFFFFFFFFFFFFFFF52
:101EA000FFFFFFFFFFFFFFFFFFFFFFFFFFFFFFFF42
:101EB000FFFFFFFFFFFFFFFFFFFFFFFFFFFFFFFF32
:101EC000FFFFFFFFFFFFFFFFFFFFFFFFFFFFFFFF22
:101ED000FFFFFFFFFFFFFFFFFFFFFFFFFFFFFFDF32
:101EE000FFFFFFFFFFFEFFFDFFFDFFFDFFFEFFFE0B
:101EF000FFFFFFFFFFFFFFDFFFDFFFFFFFFFFFFF32
:101F0000FFFFFFFFFFFFFFDFFFFFFFFFFFFFFFFF01
:101F1000FFFFFFFFFFFFFFDFFFDFFFFFFFFFFFFF11
:101F2000FFFFFFFFFFFFFFFFFFFFFFDEFFFFFFFFE2
:101F3000FFFFF7DFFFFFFFFFFFFFFFFFFFDFFFDF19
:101F4000FFFFFFFFFFFFFFFFFFFFFFFFFFFFFFFFA1
:101F5000FFFFFFFFFFFFFFFFFFFFFFFFFFFFFFFF91
:101F6000FFFFFFFFFFFFFFFFFFFFFFFFFFFFFFFF81
:101F7000FFFFFFFFFFFFFFFFFFFFFFFFFFFFFFFF71
:101F8000FFFFFFFFFFFFFFFFFFFFFFFFFFFFFFFF61
:101F9000FFFFFFFFFFFFFFFFFFFFFFFFFFFFFFFF51
:101FA000FFFFFFFFFFFFFFFFFFFFFFFFFFFFFFFF41
:101FB000FFFFFFFFFFFFFFFFFFFFFFFFFFFFFFFF31
:101FC000FFFFFFFFFFFFFFFFFFFFFFFFFFFFFFFF21
:101FD000FFFFFFFFFFFFFFFFFFFFFFFFFFFFFFFF11
:101FE000FFFFFFFFFFFFFFFFFFFFFFFFFFFFFFFF01
:101FF000FFFFFFFFFFFFFFFFFFFFFFFFFFFFFFFFF1
:10200000FFFFFFFFFFFFFFFFFFFFFFFFFFFFFFFFE0
:10201000FFFFFFFFFFFFFFDFFFFFFFDFFFFFFFDF30
:10202000FFFFFFDDACF1940C8BAA9C2CB510E6777A
:10203000FFDDFFFEFFFDFFFEFFFEFFFEFFFEFFDEFA
:10204000FFDEFFDEFFFEFFDEFFFEFFFEFFDEFFFE28
:10205000FFDEFFFEFFFFFFFEFFFEFFFEFFFEFFFEB7
:10206000FFFEFFFEFFDEFFFEFFFEFFFFFFFFFFDFC5
:10207000FFFFFFFFFFFFFFFFFFFFFFFFFFFFFFFF70
:10208000FFFFFFFFFFFFFFFFFFFFFFFFFFFFFFFF60
:10209000FFFFFFFFFFFFFFFFFFFFFFFFFFFFFFFF50
:1020A000FFFFFFFFFFFFFFFFFFFFFFFFFFFFFFFF40
:1020B000FFFFFFFFFFFFFFFFFFFFFFFFFFFFFFFF30
:1020C000FFFFFFFFFFFFFFFFFFFFFFFFFFFFFFFF20
:1020D000FFFFFFFFFFFFFFFFFFFFFFFFFFFFFFFF10
:1020E000FFFFFFFFFFFFFFFFFFFFFFFFFFFFFFFF00
:1020F000FFFFFFFFFFFFFFFFFFFFFFFFFFFFFFFFF0
:10210000FFFFFFFFFFFFFFFFFFFFFFFFFFFFFFFFDF
:10211000FFFFFFFFFFFFFFFFFFFFFFFFFFFFFFFFCF
:10212000FFFFFFFFFFFFFFFFFFFFFFFFFFFFFFFFBF
:10213000FFFFFFFFFFFFFFFFFFFFFFFFFFFFFFFFAF
:10214000FFFFFFFFFFFFFFFFFFFFFFFFFFFFFFFF9F
:10215000FFFFFFDFFFFFFFDFFFDFFFFFFFFFFFDF0F
:10216000FFFE9C6E7B0793879B87A3C99BA99369FE
:1021700093898BC993E99C0AA44BA44CAC4CAC4DFD
:10218000AC2CB48EBCCFC530CD71CD92D5D3DE147E
:10219000D5F4DDF5E676EEF8FF9AFFDBFFFDFFFDF7
:1021A000FFFEFFDEFFFEFFFEFFFEFFFEFFFFFFFF65
:1021B000FFFFFFFFF7FFFFFFFFFFFFFFFFFFFFFF37
:1021C000FFFFFFFFFFFFFFFFFFFFFFFFFFFFFFFF1F
:1021D000FFFFFFFFFFFFFFFFFFFFFFFFFFFFFFFF0F
:1021E000FFFFFFFFFFFFFFFFFFFFFFFFFFFFFFFFFF
:1021F000FFFFFFFFFFFFFFFFFFFFFFFFFFFFFFFFEF
:10220000FFFFFFFFFFFFFFFFFFFFFFFFFFFFFFFFDE
:10221000FFFFFFFFFFFFFFFFFFFFFFFFFFFFFFFFCE
:10222000FFFFFFFFFFFFFFFFFFFFFFFFFFFFFFFFBE
:10223000FFFFFFFFFFFFFFFFFFFFFFFFFFFFFFFFAE
:10224000FFFFFFFFFFFFFFFFFFFFFFFFFFFFFFFF9E
:10225000FFFFFFFFFFFFFFFFFFFFFFFFFFFFFFFF8E
:10226000FFFFFFFFFFFFFFFFFFFFFFFFFFFFFFFF7E
:10227000FFFFFFFFFFFFFFFFFFFFFFFFFFFFFFFF6E
:10228000FFFFFFFFFFFFFFFFFFFFFFFFFFFFFFFF5E
:10229000FFFFFFFFFFFFFFFFFFFFFFFFFFDEFFDD91
:1022A000FFDC83489BC8AC09ABC7A387ABA8A38856
:1022B0009B67938793A793A79BA89BA89BA89B88A2
:1022C0009B889B689B489B689327934882E762445E
:1022D00072C77AE77B087B077B28730773497B4AC1
:1022E000838B836B836B9C4EBD52F75AFFDDFFDF00
:1022F000FFDFFFFFFFFFFFFFFFFFFFFFFFDFFFFF2E
:10230000FFFFFFFFFFFFFFFFFFFFFFFFFFFFFFFFDD
:10231000FFFFFFFFFFFFFFFFFFFFFFFFFFFFFFFFCD
:10232000FFFFFFFFFFFFFFFFFFFFFFFFFFFFFFFFBD
:10233000FFFFFFFFFFFFFFFFFFFFFFFFFFFFFFFFAD
:10234000FFFFFFFFFFFFFFFFFFFFFFFFFFFFFFFF9D
:10235000FFFFFFFFFFFFFFFFFFFFFFFFFFFFFFFF8D
:10236000FFFFFFFFFFFFFFFFFFFFFFFFFFFFFFFF7D
:10237000FFFFFFFFFFFFFFFFFFFFFFFFFFFFFFFF6D
:10238000FFFFFFFFFFFFFFFFFFFFFFFFFFFFFFFF5D
:10239000FFFFFFFFFFFFFFFFFFFFFFFFFFFFFFFF4D
:1023A000FFFFFFFFFFFFFFFFFFFFFFFFFFFFFFFF3D
:1023B000FFFFFFFFFFFFFFFFFFFFFFFFFFFFFFFF2D
:1023C000FFFFFFFFFFFFFFFFFFFFFFFFFFFFFFFF1D
:1023D000FFFFFFDFFFDFFFFFFFFFFFDEFFDCFF1779
:1023E000B4ACABE9B429A3A8A3A8A3879B67934780
:1023F0009B6893479347934793478B4793479347EC
:102400009B479B47A34792E68AA58AC6724551829D
:1024100051E36A666A666A857B288B8993EB8B69D0
:1024200083288B6993899369728562047B09FF3BDA
:10243000FFDEFFDEFFFEFFFFFFFFFFFFFFFFFFFFEF
:10244000FFFFFFFFFFFFFFFFFFFFFFFFFFFFFFFF9C
:10245000FFFFFFFFFFFFFFFFFFFFFFFFFFFFFFFF8C
:10246000FFFFFFFFFFFFFFFFFFFFFFFFFFFFFFFF7C
:10247000FFFFFFFFFFFFFFFFFFFFFFFFFFFFFFFF6C
:10248000FFFFFFFFFFFFFFFFFFFFFFFFFFFFFFFF5C
:10249000FFFFFFFFFFFFFFFFFFFFFFFFFFFFFFFF4C
:1024A000FFFFFFFFFFFFFFFFFFFFFFFFFFFFFFFF3C
:1024B000FFFFFFFFFFFFFFFFFFFFFFFFFFFFFFFF2C
:1024C000FFFFFFFFFFFFFFFFFFFFFFFFFFFFFFFF1C
:1024D000FFFFFFFFFFFFFFFFFFFFFFFFFFFFFFFF0C
:1024E000FFFFFFFFFFFFFFFFFFFFFFFFFFFFFFFFFC
:1024F000FFFFFFFFFFFFFFFFFFFFFFFFFFFFFFFFEC
:10250000FFFFFFFFFFFFFFFFFFFFFFFFFFFFFFFFDB
:10251000FFFFFFFFFFFFFFFFFFDEF739ACAE9BC9F8
:10252000BC8AB429ABC89B479326934793479B67C4
:102530009B679B489B489B689B68936793479B4717
:102540009B479B06AB47A30692C68A868AE78AE723
:1025500061C359A37265832793A98B4883277AE6C1
:1025600082E78AE78AE6A3A99B4872445182518494
:102570008B8CCDB4FF7BFFFEFFFFFFFFFFFFFFFF54
:10258000FFFFFFFFFFFFFFFFFFFFFFFFFFFFFFFF5B
:10259000FFFFFFFFFFFFFFFFFFFFFFFFFFFFFFFF4B
:1025A000FFFFFFFFFFFFFFFFFFFFFFFFFFFFFFFF3B
:1025B000FFFFFFFFFFFFFFFFFFFFFFFFFFFFFFFF2B
:1025C000FFFFFFFFFFFFFFFFFFFFFFFFFFFFFFFF1B
:1025D000FFFFFFFFFFFFFFFFFFFFFFFFFFFFFFFF0B
:1025E000FFFFFFFFFFFFFFFFFFFFFFFFFFFFFFFFFB
:1025F000FFFFFFFFFFFFFFFFFFFFFFFFFFFFFFFFEB
:10260000FFFFFFFFFFFFFFFFFFFFFFFFFFFFFFFFDA
:10261000FFFFFFFFFFFFFFFFFFFFFFFFFFFFFFFFCA
:10262000FFFFFFFFFFFFFFFFFFFFFFFFFFFFFFFFBA
:10263000FFFFFFFFFFFFFFFFFFFFFFFFFFFFFFFFAA
:10264000FFFFFFFFFFDFFFFFFFFFFFFFFFFFFFFFBA
:10265000FFFFFFDFFFFFFFDDC5B29C4BB4ACBCAB9F
:10266000C4CBB3E9A3878AE68AE682C5932693465C
:102670009B669B479B68A388932693469B679B67B3
:102680009B26A347A307A3079AC692659AA6AB69A0
:10269000A3488A858AC693279367A3E982E66A03DB
:1026A00061C371E369E382859BA882C66A24516392
:1026B00059A46A466A66ACD1FFDEFFFFFFFFFFFF49
:1026C000FFFFFFFFFFFFFFFFFFFFFFFFFFFFFFFF1A
:1026D000FFFFFFFFFFFFFFFFFFFFFFFFFFFFFFFF0A
:1026E000FFFFFFFFFFFFFFFFFFFFFFFFFFFFFFFFFA
:1026F000FFFFFFFFFFFFFFFFFFFFFFFFFFFFFFFFEA
:10270000FFFFFFFFFFFFFFFFFFFFFFFFFFFFFFFFD9
:10271000FFFFFFFFFFFFFFFFFFFFFFFFFFFFFFFFC9
:10272000FFFFFFFFFFFFFFFFFFFFFFFFFFFFFFFFB9
:10273000FFFFFFFFFFFFFFFFFFFFFFFFFFFFFFFFA9
:10274000FFFFFFFFFFFFFFFFFFFFFFFFFFFFFFFF99
:10275000FFFFFFFFFFFFFFFFFFFFFFFFFFFFFFFF89
:10276000FFFFFFFFFFFFFFFFFFFFFFFFFFFFFFFF79
:10277000FFFFFFFFFFFFFFFFFFFFFFFFFFFFFFFF69
:10278000FFFFFFFFFFFFFFFFFFDFFFFFFFFFFFFF79
:10279000FFDFFFFFFFFEA48EC5B0D5AFC50CC4CBD5
:1027A000BC6AA3A792E5828582A59B48932693667F
:1027B000A3A7A3A8ABA89B47ABA8A3669B26A32669
:1027C000A347A3079AE7A2E7AB08A2C79A869A8510
:1027D000B348B328A3079AE693269B888AE68AE73C
:1027E0009B4982667A4493279B88A3EA830859C44D
:1027F000518359A36A456A66836BFFBDFFDEFFDF25
:10280000FFFFFFFFFFFFFFDEFFFFFFFFFFFFFFDF19
:10281000FFFFFFFFFFFFFFFFFFFFFFFFFFFFFFFFC8
:10282000FFFFFFFFFFFFFFFFFFFFFFFFFFFFFFFFB8
:10283000FFFFFFFFFFFFFFFFFFFFFFFFFFFFFFFFA8
:10284000FFFFFFFFFFFFFFFFFFFFFFFFFFFFFFFF98
:10285000FFFFFFFFFFFFFFFFFFFFFFFFFFFFFFFF88
:10286000FFFFFFFFFFFFFFFFFFFFFFFFFFFFFFFF78
:10287000FFFFFFFFFFFFFFFFFFFFFFFFFFFFFFFF68
:10288000FFFFFFFFFFFFFFFFFFFFFFFFFFFFFFFF58
:10289000FFFFFFFFFFFFFFFFFFFFFFFFFFFFFFFF48
:1028A000FFFFFFFFFFFFFFFFFFFFFFFFFFFFFFFF38
:1028B000FFFFFFFFFFFFFFFFFFFFFFFFFFFFFFFF28
:1028C000FFFFFFDFFFFFFFFFFFDFFFFFFFDFFFFF78
:1028D000FFFFFFFE9C8F838ACD90C4CCC4AABC6945
:1028E000BC29A38892E69306A3A8A3A8ABE8B429C1
:1028F000B429BC6ABC49B3E8AB87AB46A326A306A0
:10290000A2E79AA6A2C7A2E8AB099A879A66A2870D
:102910009A66A2C7A2C79AC792A692C692E79B6977
:102920009B49934882C6B42BABEA9B69726661E50A
:10293000492261E46A04724572456A46BCF1FFDED1
:10294000FFDEFFFFFFFFFFFFFFFFFFDEFFFFFFFFD9
:10295000FFFFFFFFFFFFFFFFFFFFFFFFFFFFFFFF87
:10296000FFFFFFFFFFFFFFFFFFFFFFFFFFFFFFFF77
:10297000FFFFFFFFFFFFFFFFFFFFFFFFFFFFFFFF67
:10298000FFFFFFFFFFFFFFFFFFFFFFFFFFFFFFFF57
:10299000FFFFFFFFFFFFFFFFFFFFFFFFFFFFFFFF47
:1029A000FFFFFFFFFFFFFFFFFFFFFFFFFFFFFFFF37
:1029B000FFFFFFFFFFFFFFFFFFFFFFFFFFFFFFFF27
:1029C000FFFFFFFFFFFFFFFFFFFFFFFFFFFFFFFF17
:1029D000FFFFFFFFFFFFFFFFFFFFFFFFFFFFFFFF07
:1029E000FFFFFFFFFFFFFFFFFFFFFFFFFFFFFFFFF7
:1029F000FFFFFFFFFFFFFFFFFFFFFFFFFFFFFFFFE7
:102A0000FFFFFFFFFFDFFFFFFFFFFFFFFFFFFFFFF6
:102A1000FFFFD65662A76AA6AC2BCCEDCCCBC48AFE
:102A2000B3E8ABA8A388ABC9B3EAB42AAC0AAC2A12
:102A3000A3E9A3C8BCABCCEDCCCCCCCDC44BC44B30
:102A4000B368AB08A308A2E89A879A87A2C89A66D7
:102A50009A8692669AA7AB289AE78A657A04824595
:102A60008AC782868AE79B489B89A3CA6A24494110
:102A700059C451626A0472047A657A657266BD321D
:102A8000FFFEFFFFFFFFFFDFFFFFFFFFFFFFFFDF97
:102A9000FFFFFFFFFFFFFFFFFFFFFFFFFFFFFFFF46
:102AA000FFFFFFFFFFFFFFFFFFFFFFFFFFFFFFFF36
:102AB000FFFFFFFFFFFFFFFFFFFFFFFFFFFFFFFF26
:102AC000FFFFFFFFFFFFFFFFFFFFFFFFFFFFFFFF16
:102AD000FFFFFFFFFFFFFFFFFFFFFFFFFFFFFFFF06
:102AE000FFFFFFFFFFFFFFFFFFFFFFFFFFFFFFFFF6
:102AF000FFFFFFFFFFFFFFFFFFFFFFFFFFFFFFFFE6
:102B0000FFFFFFFFFFFFFFFFFFFFFFFFFFFFFFFFD5
:102B1000FFFFFFFFFFFFFFFFFFFFFFFFFFFFFFFFC5
:102B2000FFFFFFFFFFFFFFFFFFFFFFFFFFFFFFFFB5
:102B3000FFFFFFFFFFFFFFFFFFFFFFFFFFFFFFFFA5
:102B4000FFFFFFFFFFFFFFFFFFFFFFFFFFFFFFDFB5
:102B5000FFFE736A28E030A082E7CCCECCADBBE9A3
:102B6000BBE9B3E9BC2ABC4BC4ADB46DA40B83284C
:102B700072A75A245A256A866A866A857AC67A8531
:102B80008AC68A8592858A4492859A8692659AA693
:102B90009AA69AC69AE6A328A328A328928681C457
:102BA0008A26822579E4698261A261A25141492085
:102BB000518269E472048A8582648AA582A56A4585
:102BC000940DFFDEFFFFFFFFFFDFFFDFFFFFFFFFD3
:102BD000FFFFFFFFFFFFFFFFFFFFFFFFFFFFFFFF05
:102BE000FFFFFFFFFFFFFFFFFFFFFFFFFFFFFFFFF5
:102BF000FFFFFFFFFFFFFFFFFFFFFFFFFFFFFFFFE5
:102C0000FFFFFFFFFFFFFFFFFFFFFFFFFFFFFFFFD4
:102C1000FFFFFFFFFFFFFFFFFFFFFFFFFFFFFFFFC4
:102C2000FFFFFFFFFFFFFFFFFFFFFFFFFFFFFFFFB4
:102C3000FFFFFFFFFFFFFFFFFFFFFFFFFFFFFFFFA4
:102C4000FFFFFFFFFFFFFFFFFFFFFFFFFFFFFFFF94
:102C5000FFFFFFFFFFFFFFFFFFFFFFFFFFFFFFFF84
:102C6000FFFFFFFFFFFFFFFFFFFFFFFFFFFFFFFF74
:102C7000FFFFFFFFFFFFFFFFFFFFFFFFFFFFFFFF64
:102C8000FFFFFFFFFFFFFFFFFFFFFFFFFFFFFFFF54
:102C9000FFFE73296A857AE7AC0B9B69A348B3A949
:102CA000AB68AB67ABA8A34772036A04492038E05E
:102CB00030C0390028A02060288030A049607AC642
:102CC000AC2BC4CDBC6BCCACBC0AA347A327A327B9
:102CD0009B069AE69AE6AB68AB48AB28AB089A67C6
:102CE00089E581E582058A677A2569E472246A03A9
:102CF00061C37A05824582658A658A858AA582C70D
:102D00006A668BCDFFFEFFDEFFFFFFFFFFFFFFFFC9
:102D1000FFFFFFFFFFFFFFFFFFFFFFFFFFFFFFFFC3
:102D2000FFFFFFFFFFFFFFFFFFFFFFFFFFFFFFFFB3
:102D3000FFFFFFFFFFFFFFFFFFFFFFFFFFFFFFFFA3
:102D4000FFFFFFFFFFFFFFFFFFFFFFFFFFFFFFFF93
:102D5000FFFFFFFFFFFFFFFFFFFFFFFFFFFFFFFF83
:102D6000FFFFFFFFFFFFFFFFFFFFFFFFFFFFFFFF73
:102D7000FFFFFFFFFFFFFFFFFFFFFFFFFFFFFFFF63
:102D8000FFFFFFFFFFFFFFFFFFFFFFFFFFFFFFFF53
:102D9000FFFFFFFFFFFFFFFFFFFFFFFFFFFFFFFF43
:102DA000FFFFFFFFFFFFFFFFFFFFFFFFFFFFFFFF33
:102DB000FFFFFFFFFFFFFFFFFFFFFFFFFFFFFFFF23
:102DC000FFFFFFFFFFFFFFFFFFFFFFFFFFDEFFFF34
:102DD000DE988B8A8B2882E782C67A657A657A04C8
:102DE00079E379E3698169A171E29327B44BC4CD9A
:102DF000B44BB44BA3E9B42AB44ACCEDCD2DCD2EBF
:102E0000CD6FCD6FDDF1DE11E611E5B0CCCCC44A5B
:102E1000C429BBC8AB47A326AB47AB07AB07A2C7C8
:102E20008A2592878A2692A78A878246824582458A
:102E300082458224824582458AA692C68AC68AC66F
:102E40007AA66A86C573FFFEFFDEFFFFFFDFFFFF86
:102E5000FFFFFFFFFFFFFFFFFFFFFFFFFFFFFFFF82
:102E6000FFFFFFFFFFFFFFFFFFFFFFFFFFFFFFFF72
:102E7000FFFFFFFFFFFFFFFFFFFFFFFFFFFFFFFF62
:102E8000FFFFFFFFFFFFFFFFFFFFFFFFFFFFFFFF52
:102E9000FFFFFFFFFFFFFFFFFFFFFFFFFFFFFFFF42
:102EA000FFFFFFFFFFFFFFFFFFFFFFFFFFFFFFFF32
:102EB000FFFFFFFFFFFFFFFFFFFFFFFFFFFFFFFF22
:102EC000FFFFFFFFFFFFFFFFFFFFFFFFFFFFFFFF12
:102ED000FFFFFFFFFFFFFFFFFFFFFFFFFFFFFFFF02
:102EE000FFFFFFFFFFFFFFFFFFFFFFFFFFFFFFFFF2
:102EF000FFFFFFFFFFFFFFFFFFFFFFFFFFFFFFFFE2
:102F0000FFFFFFFFFFFFFFFFFFFFFFFEFFFEFFFED4
:102F10008C0E6225724461E361E361A26A047A2443
:102F20007A047A2482448A859327B40AC4ACD50DE6
:102F3000D56FD56FD56FCD2ED52ECD2ED54FD59043
:102F4000D5D1DE53E695E694E693E632E5D0D50C8E
:102F5000CCABBC09C429AB87B388B3889AE69AC6C0
:102F60009AE78A8692A792A792C792A792A79AE712
:102F700092A6928592A692C78AA68AA68AA58285DB
:102F80008AE68AE76A86B511FFFEFFDEFFFFFFDEF5
:102F9000FFFFFFFFFFFFFFFFFFFFFFFFFFFFFFFF41
:102FA000FFFFFFFFFFFFFFFFFFFFFFFFFFFFFFFF31
:102FB000FFFFFFFFFFFFFFFFFFFFFFFFFFFFFFFF21
:102FC000FFFFFFFFFFFFFFFFFFFFFFFFFFFFFFFF11
:102FD000FFFFFFFFFFFFFFFFFFFFFFFFFFFFFFFF01
:102FE000FFFFFFFFFFFFFFFFFFFFFFFFFFFFFFFFF1
:102FF000FFFFFFFFFFFFFFFFFFFFFFFFFFFFFFFFE1
:10300000FFFFFFFFFFFFFFFFFFFFFFFFFFFFFFFFD0
:10301000FFFFFFFFFFFFFFFFFFFFFFFFFFFFFFFFC0
:10302000FFFFFFFFFFFFFFFFFFFFFFFFFFFFFFFFB0
:10303000FFFFFFFFFFFFFFFFFFFFFFFFFFFFFFFFA0
:10304000FFFFFFFFFFFFFFFEFFFEFF9CACF15A8773
:103050005A46622461E361E36A247A657A647A8578
:1030600082A59B689306A387BC4ABC6BC50DD58F10
:10307000CDB0C591D614D614D5F3DE35D615E67786
:10308000E697E698E6B8E697E695EE94CD4EDDAF86
:10309000D54DD4EBD4EBBC09B3E8AB87A347A3472A
:1030A0009B079B2792E792E7930792E79B289B0752
:1030B00092E792E69AE79B289B48A368A3689B0740
:1030C00092E6930782A66A057288D5B5FFDEFFDF18
:1030D000FFFFFFFFFFFFFFFFFFFFFFDFFFFFFFFF20
:1030E000FFDFFFFFFFFFFFFFFFFFFFFFFFFFFFFF10
:1030F000FFFFFFFFFFFFFFFFFFFFFFFFFFFFFFFFE0
:10310000FFFFFFFFFFFFFFFFFFFFFFFFFFFFFFFFCF
:10311000FFFFFFFFFFFFFFFFFFFFFFFFFFFFFFFFBF
:10312000FFFFFFFFFFFFFFFFFFFFFFFFFFFFFFFFAF
:10313000FFFFFFFFFFFFFFFFFFFFFFFFFFFFFFFF9F
:10314000FFFFFFFFFFFFFFFFFFFFFFFFFFFFFFFF8F
:10315000FFFFFFFFFFFFFFFFFFFFFFFFFFFFFFFF7F
:10316000FFFFFFFFFFFFFFFFFFFFFFFFFFFFFFFF6F
:10317000FFFFFFFFFFFFFFFFFFFFFFFFFFFFFFFF5F
:10318000FFFFFFDFFFFFFFFEA4B152264A0441C349
:1031900051E4498351E45A047AC6830693689BC973
:1031A000B46BB44BBC6BB44ABC6BB48BC52EBD2E98
:1031B000C591C5D3C5D4CDF5C5F5CE16D657DE78A5
:1031C000D678DE78DE78DE77E676E654EE94DDD0EB
:1031D000D58ECD0CD52CCCECC4ABBC4AB409ABC855
:1031E000A388930693069B47A3899B489B489B27EC
:1031F000A3489B079AE7A348A3689B6793068AA501
:103200008AA58A858A8682667A466A05832AE6576F
:10321000FFDDFFFEFFFEFFFFFFFFFFFFFFDFFFFF02
:10322000FFFFFFFFFFFFFFFFFFDFFFDFFFFFFFFFEE
:10323000FFFFFFFFFFFFFFFFFFFFFFFFFFFFFFFF9E
:10324000FFFFFFFFFFFFFFFFFFFFFFFFFFFFFFFF8E
:10325000FFFFFFFFFFFFFFFFFFFFFFFFFFFFFFFF7E
:10326000FFFFFFFFFFFFFFFFFFFFFFFFFFFFFFFF6E
:10327000FFFFFFFFFFFFFFFFFFFFFFFFFFFFFFFF5E
:10328000FFFFFFFFFFFFFFFFFFFFFFFFFFFFFFFF4E
:10329000FFFFFFFFFFFFFFFFFFFFFFFFFFFFFFFF3E
:1032A000FFFFFFFFFFFFFFFFFFFFFFFFFFFFFFFF2E
:1032B000FFFFFFFFFFFFFFFFFFFFFFFFFFFFFFFF1E
:1032C000FFFFFFFFC5F73143292231433122396225
:1032D000312241A449E56A87832893C99C0AAC6BD3
:1032E000AC6BAC4AA3E99BA89BC9A40AACADA48D66
:1032F0009C4DA48EA48EAD10B552BD93BDB4CE1519
:10330000DE97DE77DE56DE55DE55E675DE53DE12DD
:10331000CDB0D5D0D5AECD6EC50CBCCBB46AAC09A2
:10332000A3C8ABC9A388A347A3489B279B2792C6E2
:103330008A858A65A328AB68A34892E68AA592C6C7
:103340008AA592C68A868AA782657A8682C77AC744
:1033500072C7B4CFFF9BFFFDFFFEFFFEFFFFFFFF25
:10336000FFFFFFFFFFDEFFFFFFDFFFFFFFFFFFFFAE
:10337000FFFFFFFFFFFFFFFFFFFFFFFFFFFFFFFF5D
:10338000FFFFFFFFFFFFFFFFFFFFFFFFFFFFFFFF4D
:10339000FFFFFFFFFFFFFFFFFFFFFFFFFFFFFFFF3D
:1033A000FFFFFFFFFFFFFFFFFFFFFFFFFFFFFFFF2D
:1033B000FFFFFFFFFFFFFFFFFFFFFFFFFFFFFFFF1D
:1033C000FFFFFFFFFFFFFFFFFFFFFFFFFFFFFFFF0D
:1033D000FFFFFFFFFFFFFFFFFFFFFFFFFFFFFFFFFD
:1033E000FFFFFFFFFFFFFFFFFFFFFFFFFFFFFFFFED
:1033F000FFFFFFFFFFFFFFFFFFFFFFFFFFFFFFFFDD
:10340000FFFFD6BA18A2292329232902312231220B
:1034100028E128C128E14183834993EAA46C9C0AEE
:103420008B88AC6BA42AAC6C93899C0B9C2C730886
:103430006AC77B498BCA8BEBA48EB571B572BD721E
:10344000BD92ACF0C5B3C592CDD2C591C550CDB13A
:10345000C56FC54EC54DBD0CBCECBCCCBCABB44AB5
:10346000A3E9A3A89B679B2692E68A8592C68A85D4
:103470008A85A3079AC692C692A692A692A68A8524
:103480008A658A8592C692C692E78AE68AE68B06A4
:10349000934882E772C793CBC593F75BFFFEFFFEAD
:1034A000FFFFFFFFFFFFFFDEFFFFFFFFFFFFFFFF4D
:1034B000FFFFFFFFFFFFFFFFFFFFFFFFFFFFFFFF1C
:1034C000FFFFFFFFFFFFFFFFFFFFFFFFFFFFFFFF0C
:1034D000FFFFFFFFFFFFFFFFFFFFFFFFFFFFFFFFFC
:1034E000FFFFFFFFFFFFFFFFFFFFFFFFFFFFFFFFEC
:1034F000FFFFFFFFFFFFFFFFFFFFFFFFFFFFFFFFDC
:10350000FFFFFFFFFFFFFFFFFFFFFFFFFFFFFFFFCB
:10351000FFFFFFFFFFFFFFFFFFFFFFFFFFFFFFFFBB
:10352000FFFFFFFFFFFFFFFFFFFFFFFFFFFFFFFFAB
:10353000FFFFFFFFFFFFFFFFFFFFFFFFFFFFFFFF9B
:10354000FFFFE73C106118C218C120A128E120A0AC
:1035500028E1294141E362C7838A8B8A93EBA46DFA
:10356000ACAEAC6D9BEB93CA93AA8B8A6246416367
:10357000392149A26AA67B48942BA4CEAD0FC5B2CF
:10358000D634DE54DE34D5F3DE13D5F2D5D1CD906A
:10359000C58FC54EC52DB4ABB4ABAC4AAC49AC2954
:1035A000A3C89367934693269306828482648AA570
:1035B0009B0892A692A78A4592868A667A058A8691
:1035C00092A792A792868A868AA68AA58AE68AE523
:1035D0008AE682C683078B4883077B07940CDE77D5
:1035E000FFFDFFFEFFFFFFFFFFFFFFDEFFFEFFFF10
:1035F000FFFFFFFFFFFFFFFFFFFFFFFFFFFFFFFFDB
:10360000FFFFFFFFFFFFFFFFFFFFFFFFFFFFFFFFCA
:10361000FFFFFFFFFFFFFFFFFFFFFFFFFFFFFFFFBA
:10362000FFFFFFFFFFFFFFFFFFFFFFFFFFFFFFFFAA
:10363000FFFFFFFFFFFFFFFFFFFFFFFFFFFFFFFF9A
:10364000FFFFFFFFFFFFFFFFFFFFFFFFFFFFFFFF8A
:10365000FFFFFFFFFFFFFFFFFFFFFFFFFFFFFFFF7A
:10366000FFFFFFFFFFFFFFFFFFFFFFFFFFFFFFFF6A
:10367000FFFFFFFFFFFFFFFFFFFFFFFFFFFFFFFF5A
:10368000FFFFFFFFFFDE630B316520C228E23164DC
:1036900039844A2552866B088C0C9C4D8BEB836ACF
:1036A000836A7B0872E772A662043920310049A35D
:1036B00052046A8683689C2B9C4BA48CC590D612BE
:1036C000D612D613DE33DE53CDB1CD70D5B0CD8F4B
:1036D000CD6EC50DBCEDAC6AB48BAC29AC09ABE8C2
:1036E0009B87A38793268AC592E693079B2892E738
:1036F00092A782468A468A46820582059267928709
:10370000928792C79B088AA692C693069306930651
:103710008B0693278B27934793678B478B6772E6BC
:10372000940CDE98FFDEFFFFFFFFFFFFFFFFFFFFB0
:10373000FFFFFFFFFFFFFFFFFFFFFFFFFFFFFFFF99
:10374000FFFFFFFFFFFFFFFFFFFFFFFFFFFFFFFF89
:10375000FFFFFFFFFFFFFFFFFFFFFFFFFFFFFFFF79
:10376000FFFFFFFFFFFFFFFFFFFFFFFFFFFFFFFF69
:10377000FFFFFFFFFFFFFFFFFFFFFFFFFFFFFFFF59
:10378000FFFFFFFFFFFFFFFFFFFFFFFFFFFFFFFF49
:10379000FFFFFFFFFFFFFFFFFFFFFFFFFFFFFFFF39
:1037A000FFFFFFFFFFFFFFFFFFFFFFFFFFFFFFFF29
:1037B000FFFFFFFFFFFFFFFFFFFFFFFFFFFFFFFF19
:1037C000FFFFFFDFFFFFFFFFFFDEDEB99CB26B2BC9
:1037D0006B2B41C539C441C4396252245A6572E722
:1037E0006AA66AA6626549815A0372E67B688BC93C
:1037F0008BCA8BEA940BA48CBD4FC590CDD1D5F26A
:10380000DE33D5F2DE33D5F2DE32D5B0D58FC52C1E
:10381000C50CC4ECBCABB449B429ABC8ABC8ABA8AD
:103820009B479B47A347A3489AE78A868A868A666E
:103830008A6682468246820582258A4692669286FA
:103840008A659AE78AA69B0793078AE693078AC543
:103850008B0793278B279347934793678B468B461A
:1038600083277B07940CEF1AFFDEFFFFFFFFFFDECD
:10387000FFFFFFFFFFFFFFFFFFFFFFFFFFFFFFFF58
:10388000FFFFFFFFFFFFFFFFFFFFFFFFFFFFFFFF48
:10389000FFFFFFFFFFFFFFFFFFFFFFFFFFFFFFFF38
:1038A000FFFFFFFFFFFFFFFFFFFFFFFFFFFFFFFF28
:1038B000FFFFFFFFFFFFFFFFFFFFFFFFFFFFFFFF18
:1038C000FFFFFFFFFFFFFFFFFFFFFFFFFFFFFFFF08
:1038D000FFFFFFFFFFFFFFFFFFFFFFFFFFFFFFFFF8
:1038E000FFFFFFFFFFFFFFFFFFFFFFFFFFFFFFFFE8
:1038F000FFFFFFFFFFFFFFFFFFFFFFFFFFFFFFFFD8
:10390000FFFFFFFFFFFFFFFFFFFFFFDFFFFFFFFFE7
:10391000FFFFFFFFFFFEFFFEFFFDB53183AA732807
:103920007B697B487B488BC98BEA940A940A942B69
:10393000A4ADAD0FC5B1C591C5B1D5D2D5F2D612E2
:10394000D612DE33D5F1D5D1CDAFD5AFC52CC4EB72
:10395000BCAAB429B409BC4ABC29ABA8AB88A3470C
:103960009B079AE692A6928692868A668A468A255E
:103970008A467A0579E482258A458A4692868A654E
:1039800092A692A5A3689B478B068B279327934803
:1039900093279347938893478B2693469367934641
:1039A000936793488B497AE8A4B0FFFEFFDEFFDE01
:1039B000FFFFFFFFFFFFFFFFFFFFFFFFFFFFFFFF17
:1039C000FFFFFFFFFFFFFFFFFFFFFFFFFFFFFFFF07
:1039D000FFFFFFFFFFFFFFFFFFFFFFFFFFFFFFFFF7
:1039E000FFFFFFFFFFFFFFFFFFFFFFFFFFFFFFFFE7
:1039F000FFFFFFFFFFFFFFFFFFFFFFFFFFFFFFFFD7
:103A0000FFFFFFFFFFFFFFFFFFFFFFFFFFFFFFFFC6
:103A1000FFFFFFFFFFFFFFFFFFFFFFFFFFFFFFFFB6
:103A2000FFFFFFFFFFFFFFFFFFFFFFFFFFFFFFFFA6
:103A3000FFFFFFFFFFFFFFFFFFFFFFFFFFFFFFFF96
:103A4000FFFFFFFFFFFFFFFFFFFFFFFFFFFFFFFF86
:103A5000FFFFFFFFFFFFFFFFFFFEFFFE9C8F942D88
:103A6000944C9C4C940A8BEA8C0A9C8DACEFBD71F3
:103A7000C592BD91BD91C5B2CDF3CDD3CDD2D5D236
:103A8000D5D2CDB1CD8FCD8FCD6ECD4DCD2DC4EC5A
:103A9000BC6AC46BC42AAB88A347A327A30792A61A
:103AA000928692668A458A258A6692668A46822529
:103AB00079E47A0582468A6692869AC79AC69AC639
:103AC0009AE69306932693479367936893488B27C8
:103AD0008B2783068B268B268B269347934793074A
:103AE00082A67A458AE893498B287B29E698FFDEEF
:103AF000FFFFFFFFFFFFFFDFFFFFFFFFFFDFFFFF16
:103B0000FFFFFFFFFFFFFFFFFFFFFFFFFFFFFFFFC5
:103B1000FFFFFFFFFFFFFFFFFFFFFFFFFFFFFFFFB5
:103B2000FFFFFFFFFFFFFFFFFFFFFFFFFFFFFFFFA5
:103B3000FFFFFFFFFFFFFFFFFFFFFFFFFFFFFFFF95
:103B4000FFFFFFFFFFFFFFFFFFFFFFFFFFFFFFFF85
:103B5000FFFFFFFFFFFFFFFFFFFFFFFFFFFFFFFF75
:103B6000FFFFFFFFFFFFFFFFFFFFFFFFFFFFFFFF65
:103B7000FFFFFFFFFFFFFFFFFFFFFFFFFFFFFFFF55
:103B8000FFFFFFFFFFFFFFFFFFFFFFFFFFFFFFFF45
:103B9000FFFFFFFFFFDFFFFFFFFFFFFFB553ACF1AC
:103BA000ACF0ACCFACEFB530BD71C5B2BD92C59233
:103BB000BD72BD92BDB2BDB2C5B2C5B2C591CDB1E7
:103BC000CDB1CD90D5AFCD6EC50CC4ECC48BBC29A6
:103BD000BC09B388B388AB48AB279AC79AA692456D
:103BE0008A2592669266928792878A468225820407
:103BF000820482258A6692668A6592859AA69B06C9
:103C0000A3679B46934793468B47936793488B27BD
:103C10008B279B8893678B469347932782A67A05C9
:103C200071A471C47A0482858AE7830872A7BD33C0
:103C3000FFDEFFFFFFFFFFFFFFDFFFFFFFFFFFFFD5
:103C4000FFFFFFFFFFFFFFFFFFFFFFFFFFFFFFFF84
:103C5000FFFFFFFFFFFFFFFFFFFFFFFFFFFFFFFF74
:103C6000FFFFFFFFFFFFFFFFFFFFFFFFFFFFFFFF64
:103C7000FFFFFFFFFFFFFFFFFFFFFFFFFFFFFFFF54
:103C8000FFFFFFFFFFFFFFFFFFFFFFFFFFFFFFFF44
:103C9000FFFFFFFFFFFFFFFFFFFFFFFFFFFFFFFF34
:103CA000FFFFFFFFFFFFFFFFFFFFFFFFFFFFFFFF24
:103CB000FFFFFFFFFFFFFFFFFFFFFFFFFFFFFFFF14
:103CC000FFFFFFFFFFFFFFFFFFFFFFFFFFFFFFFF04
:103CD000FFFFFFFFFFFFFFFFFFFFFFFFBDB5ACF1E1
:103CE000B532B512B511B512B532C573C594C5B4A8
:103CF000C593C592BD71BD71C591C591C590BD4FAC
:103D0000BD0DC52DC4EBBC8ABC49BC29B3E8AB874B
:103D1000A326A2E69AA6926592458A2592669266A5
:103D20009A87926692468A46820582048A259286FE
:103D300092869AA69AA79AA6A2C7A307A3079B272B
:103D4000A3679B679B6793478B268B2693279327B5
:103D500093688B2693679B88932782867A257A05BA
:103D60007A267A2682467225722461E37AA67AC779
:103D70009C0DFFFEFFDEFFFFFFFFFFFFFFDFFFFFEA
:103D8000FFFFFFFFFFFFFFFFFFFFFFFFFFFFFFFF43
:103D9000FFFFFFFFFFFFFFFFFFFFFFFFFFFFFFFF33
:103DA000FFFFFFFFFFFFFFFFFFFFFFFFFFFFFFFF23
:103DB000FFFFFFFFFFFFFFFFFFFFFFFFFFFFFFFF13
:103DC000FFFFFFFFFFFFFFFFFFFFFFFFFFFFFFFF03
:103DD000FFFFFFFFFFFFFFFFFFFFFFFFFFFFFFFFF3
:103DE000FFFFFFFFFFFFFFFFFFFFFFFFFFFFFFFFE3
:103DF000FFFFFFFFFFFFFFFFFFFFFFFFFFFFFFFFD3
:103E0000FFFFFFFFFFFFFFFFFFFFFFFFFFFFFFFFC2
:103E1000FFFFFFFFFFFFFFFFFFFFFFDEC5D6B5126D
:103E2000C574C573BD33B512B512B532BD33BD32DD
:103E3000BD32BD52BD51C571BD50B50FB50EBD0DE2
:103E4000BD2DBCCBBC8AC46AC449BBE8B3C8B38728
:103E5000AB46A2C69A859A869A869A669A869A866A
:103E600092469A66924692459AA6A2C7A2E7A2E710
:103E7000A2E6A2E7AB07AB28AB47AB47A347A368D3
:103E8000ABA89B879B889B879B889B889B889B680C
:103E90009B679B8893688AE77A4571E471C47A04CA
:103EA0007A257A257A257204720472046A048AC714
:103EB0007AA793CDFFFEFFFEFFFFFFFFFFFFFFFF8F
:103EC000FFFFFFFFFFFFFFFFFFFFFFFFFFFFFFFF02
:103ED000FFFFFFFFFFFFFFFFFFFFFFFFFFFFFFFFF2
:103EE000FFFFFFFFFFFFFFFFFFFFFFFFFFFFFFFFE2
:103EF000FFFFFFFFFFFFFFFFFFFFFFFFFFFFFFFFD2
:103F0000FFFFFFFFFFFFFFFFFFFFFFFFFFFFFFFFC1
:103F1000FFFFFFFFFFFFFFFFFFFFFFFFFFFFFFFFB1
:103F2000FFFFFFFFFFFFFFFFFFFFFFFFFFFFFFFFA1
:103F3000FFFFFFFFFFFFFFFFFFFFFFFFFFFFFFFF91
:103F4000FFFFFFFFFFFFFFFFFFFFFFFFFFFFFFFF81
:103F5000FFFFFFFFFFFFFFFFFFFFEF3CC5B5CDB544
:103F6000C593C593C572BD72BD72BD52C572CD9366
:103F7000D5B3CDB3CDB3CDB3CDD2C5B1C56FBD2D06
:103F8000BCECB48ABC8ABC49BC08BBE8B3A7AB662E
:103F9000AB46AB27AB07AB27AB07A2E7A2C7A2C7CD
:103FA000A2A6AAE7A2C7A2C7A2C6A2E6B327B348A1
:103FB000B347B367BBC8BBC8B3A8ABA8B3C8ABC84B
:103FC000A3C89BA79B879B879B879B679B67A368CF
:103FD000A3688AC67A2469A369C372057A257A25FB
:103FE0007A4582867A457A4571E469E47A45824564
:103FF00082C77287BD32FFFEFFDEFFFFFFFFFFFFBC
:10400000FFDFFFFFFFFFFFFFFFFFFFFFFFFFFFFFE0
:10401000FFFFFFFFFFFFFFFFFFFFFFFFFFFFFFFFB0
:10402000FFFFFFFFFFFFFFFFFFFFFFFFFFFFFFFFA0
:10403000FFFFFFFFFFFFFFFFFFFFFFFFFFFFFFFF90
:10404000FFFFFFFFFFFFFFFFFFFFFFFFFFFFFFFF80
:10405000FFFFFFFFFFFFFFFFFFFFFFFFFFFFFFFF70
:10406000FFFFFFFFFFFFFFFFFFFFFFFFFFFFFFFF60
:10407000FFFFFFFFFFFFFFFFFFFFFFFFFFFFFFFF50
:10408000FFFFFFFFFFFFFFFFFFFFFFFFFFFFFFFF40
:10409000FFFFFFFFFFFFFFFFFFFFF75CBD95CDD5E3
:1040A000C593BD31BD71C592C5B3C593C593C55206
:1040B000C532CD73CD93D5D4CDD3CDB2CDB1CDB0A6
:1040C000CDAFC52DC4ECC48AC48AC46AC449C4082F
:1040D000BBE8BBC8B388B367AB27AB47B347BBA943
:1040E000BBA9BBA8C3C9C3C9BBA8BBA8C409CC2A68
:1040F000C3E9C449C449C429C449BC49B429ABE88B
:10410000A3C8A3C89B879B679B88A36893278AA59E
:104110007A2471A371C371E47A258246824682654E
:10412000826582657204720471C371E4826582657E
:104130008AE78B298309FFDDFFFEFFDEFFDFFFFF3C
:10414000FFFFFFFFFFFFFFFFFFFFFFFFFFFFFFFF7F
:10415000FFFFFFFFFFFFFFFFFFFFFFFFFFFFFFFF6F
:10416000FFFFFFFFFFFFFFFFFFFFFFFFFFFFFFFF5F
:10417000FFFFFFFFFFFFFFFFFFFFFFFFFFFFFFFF4F
:10418000FFFFFFFFFFFFFFFFFFFFFFFFFFFFFFFF3F
:10419000FFFFFFFFFFFFFFFFFFFFFFFFFFFFFFFF2F
:1041A000FFFFFFFFFFFFFFFFFFFFFFFFFFFFFFFF1F
:1041B000FFFFFFFFFFFFFFFFFFFFFFFFFFFFFFFF0F
:1041C000FFFFFFFFFFFFFFFFFFFFFFFFFFFFFFFFFF
:1041D000FFFFFFFFFFFFFFFFFFFFFFFFC5D6C5B4D7
:1041E000CDD4CDD3C5D3BD93BD93BD73C5B4CD934D
:1041F000CD93CDD5D5D5D615D615D615D5F4CDD2EA
:10420000CD90CD8FC54DC52CCD0CC4AAC469C46A50
:10421000CC6AC408C408BC08BC08C449C449C44921
:10422000C449D4ABC48AC48ACCABCCCBC4AAC4AA7C
:10423000CCAAC48ABC69BC6ABC6AB449ABE8ABE925
:10424000B42AA3C9A3A9A3899B4882A67224720495
:104250007A047A0482258A4682468246826682668B
:1042600082467A0571C469C47205720482868AE640
:1042700093068AC67AC7BD11FFFDFFFFFFFFFFFF50
:10428000FFFFFFFFFFFFFFFFFFFFFFFFFFFFFFFF3E
:10429000FFFFFFFFFFFFFFFFFFFFFFFFFFFFFFFF2E
:1042A000FFFFFFFFFFFFFFFFFFFFFFFFFFFFFFFF1E
:1042B000FFFFFFFFFFFFFFFFFFFFFFFFFFFFFFFF0E
:1042C000FFFFFFFFFFFFFFFFFFFFFFFFFFFFFFFFFE
:1042D000FFFFFFFFFFFFFFFFFFFFFFFFFFFFFFFFEE
:1042E000FFFFFFFFFFFFFFFFFFFFFFFFFFFFFFFFDE
:1042F000FFFFFFFFFFFFFFFFFFFFFFFFFFFFFFFFCE
:10430000FFFFFFFFFFFFFFFFFFFFFFFFFFFFFFFFBD
:10431000FFFFFFFFFFFFFFFFFFFFFFFFC5F6C5D554
:10432000BD94BD93C5B3BD73B553B511B532BD32A0
:10433000C572C593CDD4D616D616D5F5D5F5D5F418
:10434000D613D612D5D0CD6EC54CCD0CC4CBC48AF5
:10435000C48AC46ACCAAD4CBCCCAD50BD4EBD50BB7
:10436000D50CD50BD54CD54CCD0BCCEBCCEBC4CB75
:10437000BC89BC69C48AC4AABC6AB429B429ABE9A3
:104380009B889B688AC6828582657A457A45826663
:104390008A868A66824582458A468A6782467A0587
:1043A00071C4698369C47A257A65828682A58AE6A2
:1043B0008B06932793286A65E656FFFEFFFFFFDF13
:1043C000FFFFFFFFFFFFFFFFFFFFFFFFFFFFFFFFFD
:1043D000FFFFFFFFFFFFFFFFFFFFFFFFFFFFFFFFED
:1043E000FFFFFFFFFFFFFFFFFFFFFFFFFFFFFFFFDD
:1043F000FFFFFFFFFFFFFFFFFFFFFFFFFFFFFFFFCD
:10440000FFFFFFFFFFFFFFFFFFFFFFFFFFFFFFFFBC
:10441000FFFFFFFFFFFFFFFFFFFFFFFFFFFFFFFFAC
:10442000FFFFFFFFFFFFFFFFFFFFFFFFFFFFFFFF9C
:10443000FFFFFFFFFFFFFFFFFFFFFFFFFFFFFFFF8C
:10444000FFFFFFFFFFFFFFFFFFFFFFFFFFFFFFFF7C
:10445000FFFFFFFFFFDFFFFFFFFFFFDEBDD6C6163A
:10446000C5D5CDF5C5B4BD73BD53BD52BD72C572C2
:10447000C592C592CDF4D615D636D636D635D614D5
:10448000CDD2C5B0C58FC56EC54DC54CCD2CCD2C7C
:10449000CD0CCD2DCD0CD54DD54DD54DD54DD56DA6
:1044A000D56DD54DCD2CCD2CD54DD52CCCEBCCCB45
:1044B000C4AAC4AAC4A9B408ABA7ABC8ABC89B879D
:1044C00093478B068AA58AC58A858AA58AA68AA665
:1044D00092C78A868266826682468A4779C5696300
:1044E000612269837A25826682858AC6930693272C
:1044F00093279307932782E66225FFFDFFDEFFFFE8
:10450000FFFFFFFFFFFFFFBEFFFFFFFFFFDFFFFF1C
:10451000FFFFFFFFFFFFFFFFFFFFFFFFFFFFFFFFAB
:10452000FFFFFFFFFFFFFFFFFFFFFFFFFFFFFFFF9B
:10453000FFFFFFFFFFFFFFFFFFFFFFFFFFFFFFFF8B
:10454000FFFFFFFFFFFFFFFFFFFFFFFFFFFFFFFF7B
:10455000FFFFFFFFFFFFFFFFFFFFFFFFFFFFFFFF6B
:10456000FFFFFFFFFFFFFFFFFFFFFFFFFFFFFFFF5B
:10457000FFFFFFFFFFFFFFFFFFFFFFFFFFFFFFFF4B
:10458000FFFFFFFFFFFFFFFFFFFFFFFFFFFFFFFF3B
:10459000FFFFFFFFFFFFFFFFFFFFFFBEBDD6BDD543
:1045A000BDB5BDB5C5B4C594C594C593C592BD92FE
:1045B000C592CDD3CDF3D5F4CDF4CDD4CDF4D6146E
:1045C000D5F3D5F2CDD1CDAFCD8ECD8ECD8ECD6EF6
:1045D000CD6ED56ED58EDDAED58ED5AED58ED58EC3
:1045E000D56DCD6DCD2CC4EBBCAABC8AC48ABC6A87
:1045F000BC49B428B428BC08BC08ABA8A388A388CD
:104600009326ABA8A3889B069B0792E69AE6928620
:104610008A658A8682668246822671A45902612250
:1046200079E57A0482458A858AA68AC68AE693064F
:1046300093078AE782A68AC672656287FFFEFFDF5C
:10464000FFFFFFFFFFDFFFFFFFFFFFDFFFFFFFFFBA
:10465000FFFFFFFFFFFFFFFFFFFFFFFFFFFFFFFF6A
:10466000FFFFFFFFFFFFFFFFFFFFFFFFFFFFFFFF5A
:10467000FFFFFFFFFFFFFFFFFFFFFFFFFFFFFFFF4A
:10468000FFFFFFFFFFFFFFFFFFFFFFFFFFFFFFFF3A
:10469000FFFFFFFFFFFFFFFFFFFFFFFFFFFFFFFF2A
:1046A000FFFFFFFFFFFFFFFFFFFFFFFFFFFFFFFF1A
:1046B000FFFFFFFFFFFFFFFFFFFFFFFFFFFFFFFF0A
:1046C000FFFFFFFFFFFFFFFFFFFFFFFFFFFFFFFFFA
:1046D000FFFFFFFFFFFFFFFFFFFFF7BEC617BDD5C0
:1046E000C5D5BDB5C5B4C5B5CDD5CDD4CDD3C5B370
:1046F000C5B3CDD4D5F4D5F4D5F4D5F4D5F3D5F4EC
:10470000D5F4D613D613D5F2D5D1D5D0D5D0D5CFB3
:10471000D5CFD5AED58DD5AED58ECD4DC52CCD2C26
:10472000BCEBC4EBBC8ABC69BC69BC49BC29BC28D5
:10473000BC28B428B3E8B3C8BC08ABA7B3C8B3C897
:10474000AB88AB68B3A9AB48AB4892C692C692A6F9
:104750009AA78A668A86822571C46142616369A4C8
:104760007A0582668AC78AE68AC68AC692E693076F
:1047700092E68AE68AE77A856A2449637B4BFFFFE3
:10478000FFDFFFFFFFFFFFFFFFFFFFFFFFFFFFFF59
:10479000FFFFFFFFFFFFFFFFFFFFFFFFFFFFFFFF29
:1047A000FFFFFFFFFFFFFFFFFFFFFFFFFFFFFFFF19
:1047B000FFFFFFFFFFFFFFFFFFFFFFFFFFFFFFFF09
:1047C000FFFFFFFFFFFFFFFFFFFFFFFFFFFFFFFFF9
:1047D000FFFFFFFFFFFFFFFFFFFFFFFFFFFFFFFFE9
:1047E000FFFFFFFFFFFFFFFFFFFFFFFFFFFFFFFFD9
:1047F000FFFFFFFFFFFFFFFFFFFFFFFFFFFFFFFFC9
:10480000FFFFFFFFFFFFFFFFFFFFFFFFFFFFFFFFB8
:10481000FFFFFFDFFFFFFFFFFFFFEF5CC5F7BDB549
:10482000BDD5C5F5CDF5CDD5CDD5C5B4C593BD7335
:10483000C573C593CD93CDB3CDB3CDD3CDD2CDB2CA
:10484000CDD2D5F3D5F3D5F3D5D2D5B1CD8FCD6EAD
:10485000CD6DC54CCD4DCD2CBD0BC50CBCEBB4AA5C
:10486000B48ABCCBBCAABCAAC4CBBC8ABC49BC49D8
:10487000BC69BC4ABC6ABC4ACCABC48ACCABC46A77
:10488000C44ABBC9AB68A30792C692C69AE792A670
:1048900092868A6682457A0571C46963616371C4D0
:1048A0007A6682868AA68AC69307930792C68AC6C4
:1048B0008AA68AE782A6724561C359A439029C2F51
:1048C000FFFFFFBEFFFFFFFFFFFFFFFFFFFFFFFF39
:1048D000FFFFFFFFFFFFFFFFFFFFFFFFFFFFFFFFE8
:1048E000FFFFFFFFFFFFFFFFFFFFFFFFFFFFFFFFD8
:1048F000FFFFFFFFFFFFFFFFFFFFFFFFFFFFFFFFC8
:10490000FFFFFFFFFFFFFFFFFFFFFFFFFFFFFFFFB7
:10491000FFFFFFFFFFFFFFFFFFFFFFFFFFFFFFFFA7
:10492000FFFFFFFFFFFFFFFFFFFFFFFFFFFFFFFF97
:10493000FFFFFFFFFFFFFFFFFFFFFFFFFFFFFFFF87
:10494000FFFFFFFFFFFFFFFFFFFFFFFFFFFFFFFF77
:10495000FFFFFFFFFFFFFFFFFFFFE6FBBD95B55425
:10496000B573BD94C5D5C5F6CDF6C5F5C5D5C5D5C8
:10497000CDF5CDB4CD92C592CD91CDB1CDD1D5D21D
:10498000D5D2D5F3DDF3DDF3D5F2D5D1CD90CD8FF2
:10499000CD6ECD4DC50CCD2DCD6DCD2DCD4DCD4D8F
:1049A000CD2DCD2DCD4DCD4DCD2CC4EBC4EBC4EBD9
:1049B000C4CBBCCBC4ECCCECD52CCCEBCCCBC46AFC
:1049C000BC09BBE9AB489B078AC68AC68AA68A8609
:1049D0008A86824582457A0571C469A371C482457D
:1049E0008A868AA692E792E68AA5828592E693074E
:1049F0008AA67A2469E369C45983598359C438E182
:104A0000C574FFFEFFFEFFDFFFFFFFDFFFFFFFFFBD
:104A1000FFFFFFFFFFFFFFFFFFFFFFFFFFFFFFFFA6
:104A2000FFFFFFFFFFFFFFFFFFFFFFFFFFFFFFFF96
:104A3000FFFFFFFFFFFFFFFFFFFFFFFFFFFFFFFF86
:104A4000FFFFFFFFFFFFFFFFFFFFFFFFFFFFFFFF76
:104A5000FFFFFFFFFFFFFFFFFFFFFFFFFFFFFFFF66
:104A6000FFFFFFFFFFFFFFFFFFFFFFFFFFFFFFFF56
:104A7000FFFFFFFFFFFFFFFFFFFFFFFFFFFFFFFF46
:104A8000FFFFFFFFFFFFFFFFFFFFFFFFFFFFFFFF36
:104A9000FFFFFFFFFFFFFFFFFFFFE6DAB554B5742E
:104AA000B553B573BD73BD94BDB4C5B4C5D4C5B459
:104AB000C5B4CDB4CD93CD92CD91CDB1CDB1CDB165
:104AC000CDB1CD91CD91CD91CD91CD90CD90CD90D9
:104AD000CD8FCD6ED58ECD6ED5AFDDB0D5B0D58FA7
:104AE000DDD0D58FCD6FCD6ECD6ECD6ECD4ECD4D93
:104AF000CD4DCD4EC52DCD2DCD4DC50BC4CBC48ACE
:104B0000B3E8AB679B068A858AC68AC682A6828678
:104B10008266824571E471C371C371E471E48245B8
:104B20008A868AA68AC68AC692E78AC68AA68AA67C
:104B300082667A2569E45983596361A461C461C4BA
:104B400030A0DE78FFFEF7FFFFFFFFFFFFFFFFFF54
:104B5000FFFFFFFFFFFFFFFFFFFFFFFFFFFFFFFF65
:104B6000FFFFFFFFFFFFFFFFFFFFFFFFFFFFFFFF55
:104B7000FFFFFFFFFFFFFFFFFFFFFFFFFFFFFFFF45
:104B8000FFFFFFFFFFFFFFFFFFFFFFFFFFFFFFFF35
:104B9000FFFFFFFFFFFFFFFFFFFFFFFFFFFFFFFF25
:104BA000FFFFFFFFFFFFFFFFFFFFFFFFFFFFFFFF15
:104BB000FFFFFFFFFFFFFFFFFFFFFFFFFFFFFFFF05
:104BC000FFFFFFFFFFFFFFFFFFFFFFFFFFFFFFFFF5
:104BD000FFFFFFFFF7FFFFFFFFFFE71CB574BD946A
:104BE000BD93BD52B531B531B532BD72C592C593D5
:104BF000C593CDB4CDD4D5F4D5F3D5F3D5D2D5D294
:104C0000CDB1CD91CD91CD90CD90CD90CD90CD70B9
:104C1000C570CDB0CD8FCD8FD5B0CD6FCD8FD5B088
:104C2000D590D5B0CD70CD6FD5B0D58FCD6FCD4EE1
:104C3000CD4ED58FCD4ED56ED56DD54DC4CBC48A56
:104C4000B3C89AC592C58A658AC682A682868266DC
:104C500082467A057A4582457A047A0482668AA772
:104C60008A868A868AA68AA68A85826582658286DF
:104C70007224618361A461A369E469C461A361C30F
:104C80006A4672E9FFFEFFFFFFFFFFFFFFDFFFFF46
:104C9000FFFFFFFFFFFFFFFFFFFFFFFFFFFFFFFF24
:104CA000FFFFFFFFFFFFFFFFFFFFFFFFFFFFFFFF14
:104CB000FFFFFFFFFFFFFFFFFFFFFFFFFFFFFFFF04
:104CC000FFFFFFFFFFFFFFFFFFFFFFFFFFFFFFFFF4
:104CD000FFFFFFFFFFFFFFFFFFFFFFFFFFFFFFFFE4
:104CE000FFFFFFFFFFFFFFFFFFFFFFFFFFFFFFFFD4
:104CF000FFFFFFFFFFFFFFFFFFFFFFFFFFFFFFFFC4
:104D0000FFFFFFFFFFFFFFFFFFFFFFFFFFFFFFFFB3
:104D1000FFFFFFFFFFFFFFFFFFFFF75CB554BD7311
:104D2000BD52BD71BD51B531AD10ACCFACCFB4F0FB
:104D3000BD31C572CDB3CDD4D5D4D5D3D5D3D5D28D
:104D4000CDB2CDB1CDB1CDB1D5D1D5D2D5D2CDB2F7
:104D5000CDB1CDB0CDB0C58FC58FC54FCD90CD9065
:104D6000D5B1D590D590D590D590CD70CD70CD6F73
:104D7000CD4ECD6ECD4ECD2DC4CBBCABA3A79325D0
:104D800092E592A592A592C692C68AA682A682664E
:104D90008A867A257A057A047A257A2582458A6672
:104DA0008A868AA68A868A858AA682457A257A256F
:104DB000720469A469C469E461C469E372047A860F
:104DC00082E86287FFBCFFFFFFFFFFFFFFFFFFDFFF
:104DD000FFFFFFFFFFFFFFFFFFFFFFFFFFFFFFFFE3
:104DE000FFFFFFFFFFFFFFFFFFFFFFFFFFFFFFFFD3
:104DF000FFFFFFFFFFFFFFFFFFFFFFFFFFFFFFFFC3
:104E0000FFFFFFFFFFFFFFFFFFFFFFFFFFFFFFFFB2
:104E1000FFFFFFFFFFFFFFFFFFFFFFFFFFFFFFFFA2
:104E2000FFFFFFFFFFFFFFFFFFFFFFFFFFFFFFFF92
:104E3000FFFFFFFFFFFFFFFFFFFFFFFFFFFFFFFF82
:104E4000FFFFFFFFFFFFFFFFFFFFFFFFFFFFFFFF72
:104E5000FFFFFFFFFFFEFFFFFFDEFFFEB553BD318B
:104E6000BD30BD2FBD30B50FAD0FAD0FB50FB510B7
:104E7000BD30BD72C5B3CDB3CDB3CD93CD93CD927F
:104E8000CDB2CD91CDB1D5D1D5F1D5D1D5D1CDB191
:104E9000CD90CDB0C5B0C58FC56FCD90C56FCD904D
:104EA000D5B0D5B0D590D590CD70CD4FCD70CD4F7C
:104EB000CD4ECD4ECD2DC4ACAC099B6793068B0572
:104EC0008AE592E69B078AA58AC68AC77A458266E2
:104ED0007A05824571C47A048A8682868AA692E718
:104EE0008AA68AA68AA68285826582657A257A053F
:104EF00079E571E569E46A046A04828682A68AC754
:104F00008B086266C5D4FFFEFFDFFFFFFFFFFFFFD8
:104F1000FFFFFFFFFFFFFFFFFFFFFFFFFFFFFFFFA1
:104F2000FFFFFFFFFFFFFFFFFFFFFFFFFFFFFFFF91
:104F3000FFFFFFFFFFFFFFFFFFFFFFFFFFFFFFFF81
:104F4000FFFFFFFFFFFFFFFFFFFFFFFFFFFFFFFF71
:104F5000FFFFFFFFFFFFFFFFFFFFFFFFFFFFFFFF61
:104F6000FFFFFFFFFFFFFFFFFFFFFFFFFFFFFFFF51
:104F7000FFFFFFFFFFFFFFFFFFFFFFFFFFFFFFFF41
:104F8000FFFFFFFFFFFFFFFFFFFFFFFFFFFFFFFF31
:104F9000FFFFFFFFFFFFFFFEFFDEFFFECDD5ACAF43
:104FA000B4CEB4CDACACACADACCEACCDACCDB4EE3F
:104FB000B50FBD71C592C592C572C572C552C57295
:104FC000C571CD91CDB1CDB0CDB0CDB0CD90CD909E
:104FD000CD90C56FC56EC56FCDAFD5D0CD6FCD6F40
:104FE000D590D58FD590D58FD58FCD6FCD4FC52E80
:104FF000BCCCB48BC4ABBC4AA3889B2793068B065E
:105000008AE68AC692E682858AA682657A457A25EC
:105010007A05824582458245826582868AC68AC62D
:105020008AE682A682857A657A457A457A257A0566
:1050300079E57A0569E472257A85724482A67A65F3
:10504000726562459C6FFFFEFFFFFFDFFFFFFFFF02
:10505000FFDEFFFFFFFFFFFFFFFFFFFFFFFFFFFF81
:10506000FFFFFFFFFFFFFFFFFFFFFFFFFFFFFFFF50
:10507000FFFFFFFFFFFFFFFFFFFFFFFFFFFFFFFF40
:10508000FFFFFFFFFFFFFFFFFFFFFFFFFFFFFFFF30
:10509000FFFFFFFFFFFFFFFFFFFFFFFFFFFFFFFF20
:1050A000FFFFFFFFFFFFFFFFFFFFFFFFFFFFFFFF10
:1050B000FFFFFFFFFFFFFFFFFFFFFFFFFFFFFFFF00
:1050C000FFFFFFFFFFFFFFFFFFFFFFFFFFFFFFFFF0
:1050D000FFFFFFFFFFFFFFFFFFFFFFFEEEF9A48EC4
:1050E000B48CB48BAC6BA44AA44BA46BA46BA44B40
:1050F000B4ACB4EEB54FC571C591C592C592C5515A
:10510000C551C551C550C54FC54EBD4EBD2DBD0D78
:10511000BD0DBD2DC52DC50DC50DC50CC52DC52D90
:10512000CD2DCD2DCD4ECD2DCD2DCD2DC4ECC4EC22
:10513000BCABBC8BB429A3679AE692E68AC682C64A
:105140008AE78AC682858AA6826582857A457A251B
:105150007A457A257A0482458AA68AA68AC6930762
:10516000932782857A447A447A657A457A457A2506
:10517000720571E47245724572447A857A857AA621
:10518000728662467B4AFFFEFFFFFFDFF7BFFFFF2D
:10519000FFFFFFFFFFFFFFFFFFFFFFFFFFFFFFFF1F
:1051A000FFFFFFFFFFFFFFFFFFFFFFFFFFFFFFFF0F
:1051B000FFFFFFFFFFFFFFFFFFFFFFFFFFFFFFFFFF
:1051C000FFFFFFFFFFFFFFFFFFFFFFFFFFFFFFFFEF
:1051D000FFFFFFFFFFFFFFFFFFFFFFFFFFFFFFFFDF
:1051E000FFFFFFFFFFFFFFFFFFFFFFFFFFFFFFFFCF
:1051F000FFFFFFFFFFFFFFFFFFFFFFFFFFFFFFFFBF
:10520000FFFFFFFFFFFFFFFFFFFFFFFFFFFFFFFFAE
:10521000FFFFFFFFFFFFFFFFFFFFFFDEFF9B93EBA3
:10522000AC4BBCACB46AB48BB48BAC6AA449A44A92
:10523000A44AA46BACADB4EEBD50C591CD92C5727D
:10524000C571BD30BD30BD0FBD0EBD0EBD0DBD0D58
:10525000BD0DBCCBC50CBD0CBCECBCEBC52CC4EB74
:10526000C4CBC4EBCD0CC4EBC4ECBC8AB44AB409C7
:10527000B409ABC8AB87A3279AC692A68AA68AC6EA
:1052800082C68AA68285826582657A457A4571E4FE
:1052900072247A457A8582A682867A65828682859C
:1052A0007A248AA68285828582657A457A657A66BD
:1052B000722569E46A047244726582C67A8572A6B0
:1052C0006A865A25DE77FFFEFFFFFFFFFFFFFFFF25
:1052D000FFFFFFFFFFFFFFFFFFFFFFFFFFFFFFFFDE
:1052E000FFFFFFFFFFFFFFFFFFFFFFFFFFFFFFFFCE
:1052F000FFFFFFFFFFFFFFFFFFFFFFFFFFFFFFFFBE
:10530000FFFFFFFFFFFFFFFFFFFFFFFFFFFFFFFFAD
:10531000FFFFFFFFFFFFFFFFFFFFFFFFFFFFFFFF9D
:10532000FFFFFFFFFFFFFFFFFFFFFFFFFFFFFFFF8D
:10533000FFFFFFFFFFFFFFFFFFFFFFFFFFFFFFFF7D
:10534000FFFFFFFFFFFFFFFFFFFFFFFFFFFFFFFF6D
:10535000FFFFFFFFFFFFFFFFFFFFFFFEFFBB8B68AD
:10536000A42AB44ABCAABCABBCCCC50DBCECB48B63
:10537000B4ACAC8CAC8CACADACCDBD0FBD50C5717C
:10538000CD92C551BD30B4EFB4CEB4ADB4CDB4CD33
:10539000B4ECB4ECB4ECB4ABBCCBBCCBBCEBBCCA93
:1053A000C4CBC4CBC4CBBC6ABC49B3C8B3C8A36626
:1053B000AB889B069AE6A2E6A2C6928692A68AA629
:1053C000828582658265824582657A45722572048E
:1053D000722472657AA67AA682A68AE78AA6826570
:1053E00082858265826582867A867265728572A6FA
:1053F000728582C77A867A8672457A867AC66A8686
:105400006AA75A47FFFEFFDEFFDEFFDFFFFFFFFF59
:10541000FFFFFFFFFFFFFFFFFFFFFFFFFFFFFFFF9C
:10542000FFFFFFFFFFFFFFFFFFFFFFFFFFFFFFFF8C
:10543000FFFFFFFFFFFFFFFFFFFFFFFFFFFFFFFF7C
:10544000FFFFFFFFFFFFFFFFFFFFFFFFFFFFFFFF6C
:10545000FFFFFFFFFFFFFFFFFFFFFFFFFFFFFFFF5C
:10546000FFFFFFFFFFFFFFFFFFFFFFFFFFFFFFFF4C
:10547000FFFFFFFFFFFFFFFFFFFFFFFFFFFFFFFF3C
:10548000FFFFFFFFFFFFFFFFFFFFFFFFFFFFFFFF2C
:10549000FFFFFFDFFFDFFFFFFFFFFFFEFF7A834815
:1054A000A429BC8ABC8AC4CBC4ECBCECBCECBCEC6C
:1054B000B4ACB4CDB4CDB4CDB4CDB4CEB4EEBD0F98
:1054C000BD30C551C551C551BD30BD2FBD0FBCEE5E
:1054D000B4EDB4ACB4CCB4CCBCCCBCCBBCCBB48AF7
:1054E000B469BC8ABC49B3E8ABA7A326AB67A306E3
:1054F000A327A30792A69AA69AC692A68A868AA6E8
:105500008A868A868A868AA682667A866A0472452E
:10551000724572657AA67AA67A8582A58AE682A6FF
:105520007A6582657A657A8572656A45728572A642
:1055300072A659E26A447A8672456A046A456A86A6
:1055400051E5BD74FFBEFFFFFFFFFFFFFFDFFFFF61
:10555000FFFFFFFFFFFFFFFFFFFFFFFFFFFFFFFF5B
:10556000FFFFFFFFFFFFFFFFFFFFFFFFFFFFFFFF4B
:10557000FFFFFFFFFFFFFFFFFFFFFFFFFFFFFFFF3B
:10558000FFFFFFFFFFFFFFFFFFFFFFFFFFFFFFFF2B
:10559000FFFFFFFFFFFFFFFFFFFFFFFFFFFFFFFF1B
:1055A000FFFFFFFFFFFFFFFFFFFFFFFFFFFFFFFF0B
:1055B000FFFFFFFFFFFFFFFFFFFFFFFFFFFFFFFFFB
:1055C000FFFFFFFFFFFFFFFFFFFFFFFFFFFFFFFFEB
:1055D000FFFFFFFFFFFFFFFFFFFFFFFEEF197B272E
:1055E000A409BC49C469BC6ABC8AC4ECC50CC50C1E
:1055F000CD4EBCEDBCEDBCEDBCCDB4CDB4ADACACD2
:10560000ACADACADB4CEB4EFBD0FBD30C530BD0F49
:10561000BCEEBCEEC50EC50DBCCDBCECBCCBBCAB72
:10562000BC8AB449B409ABC8A3879B269B069AC61B
:1056300092A592A69AE79AE792C68AA58AC68AC6D2
:105640008AA68A868AC77A667265620462246204C0
:105650006A447AA672857AA57AC67AA582C682C677
:105660007AA582C67A8572446A246A246A6572A51C
:1056700072C66A8559E261A361A359A361E45A2500
:1056800041C4FF7CFFFFFFDFFFFFFFFFFFFFFFFFC6
:10569000FFFFFFFFFFFFFFFFFFFFFFFFFFFFFFFF1A
:1056A000FFFFFFFFFFFFFFFFFFFFFFFFFFFFFFFF0A
:1056B000FFFFFFFFFFFFFFFFFFFFFFFFFFFFFFFFFA
:1056C000FFFFFFFFFFFFFFFFFFFFFFFFFFFFFFFFEA
:1056D000FFFFFFFFFFFFFFFFFFFFFFFFFFFFFFFFDA
:1056E000FFFFFFFFFFFFFFFFFFFFFFFFFFFFFFFFCA
:1056F000FFFFFFFFFFFFFFFFFFFFFFFFFFFFFFFFBA
:10570000FFFFFFFFFFFFFFFFFFFFFFFFFFFFFFFFA9
:10571000FFFFFFDFFFFFF7DFFFFFFFFFEF198388CA
:10572000B48BC4CBC4ABC4ABC4CCC4ECC4ECC50D0B
:10573000C52ECD4EC50EBCCDB4ACB4CDBCEDB4CCF5
:10574000B4CCAC8CAC8CA44CA44CAC6CB4AEB4CE8D
:10575000B4CEB4CEB4CDBD0EC52EC52EB4ABB46A96
:10576000B469AC08ABE8ABC8A3679B2792E69B077C
:1057700092A69AC79AE892C692A692E68AA58265F0
:1057800082857A4572256A2559E35A0462246A445F
:105790007285728572A67AA67AA67AC67AA572856D
:1057A00072656A44620361E36A24728572A5728538
:1057B00072A6728572657266724672876A6649C49D
:1057C000BDB4FFFFFFDFFFFFF7BEFFFFFFFFFFFFDF
:1057D000FFFFFFFFFFFFFFFFFFFFFFFFFFFFFFFFD9
:1057E000FFFFFFFFFFFFFFFFFFFFFFFFFFFFFFFFC9
:1057F000FFFFFFFFFFFFFFFFFFFFFFFFFFFFFFFFB9
:10580000FFFFFFFFFFFFFFFFFFFFFFFFFFFFFFFFA8
:10581000FFFFFFFFFFFFFFFFFFFFFFFFFFFFFFFF98
:10582000FFFFFFFFFFFFFFFFFFFFFFFFFFFFFFFF88
:10583000FFFFFFFFFFFFFFFFFFFFFFFFFFFFFFFF78
:10584000FFFFFFFFFFDFFFFFFFFFFFFFFFFFFFFF88
:10585000FFFFFFFFFFFFFFDFFFFFFFFFF79B834718
:10586000AC49BCABCD0CC50DC4EDC4EDC50EBD0E31
:10587000CD90CD90C550C52FB4ADAC6BA40AB48CFF
:10588000AC4AB48CA42AAC6CAC6BAC8CB4CDB4ADCB
:10589000ACADAC8DAC8CA46BB4ACB4ACBCECBCEC1F
:1058A000B469BC49B407B408ABA7A38792C69AE60B
:1058B00092A6A3089AC792A68AA692E782A6828693
:1058C0007A456A2459A2516259C359C362046A24B1
:1058D0006A44728672866A6572856A656A44620481
:1058E0006A4459E3620462036A447AA672A57A851F
:1058F0007AA582C67AA5726572875A2649C5DE994D
:10590000FFFEFFFFFFFFFFFFFFFFFFFFFFFFFFFFA8
:10591000FFFFFFFFFFFFFFFFFFFFFFFFFFFFFFFF97
:10592000FFFFFFFFFFFFFFFFFFFFFFFFFFFFFFFF87
:10593000FFFFFFFFFFFFFFFFFFFFFFFFFFFFFFFF77
:10594000FFFFFFFFFFFFFFFFFFFFFFFFFFFFFFFF67
:10595000FFFFFFFFFFFFFFFFFFFFFFFFFFFFFFFF57
:10596000FFFFFFFFFFFFFFFFFFFFFFFFFFFFFFFF47
:10597000FFFFFFFFFFFFFFFFFFFFFFFFFFFFFFFF37
:10598000FFFFFFFFFFFFFFFFFFFFFFFFFFFFFFFF27
:10599000FFFFFFDFFFFFFFFFFFFFFFFFEF39836820
:1059A000AC6AC4CBC4ECC50EC52FC52EC52FCD9097
:1059B000CD90C570CD91BD0FB4EE93CA9388830688
:1059C000830693A893A89BEAA40AA42A9C2A9C0A6B
:1059D0009C2BA46C9C4BA44BA40A9C09B4CCBCEC9F
:1059E000BCCBC4AABC69BC28B3C7A3679B27A34789
:1059F000A30792A69AE78A659AE78AA68AC67A6575
:105A00007245518251A2494159C351C36245620452
:105A1000620462246A4562046204620462246204CD
:105A20006A446A456A246A65726572857AA57AA6AF
:105A30007AA67A8582C672A75A257B6BFFFEFFDEA7
:105A4000FFFFFFFFFFFFFFFFFFFFFFFFFFFFFFFF66
:105A5000FFFFFFFFFFFFFFFFFFFFFFFFFFFFFFFF56
:105A6000FFFFFFFFFFFFFFFFFFFFFFFFFFFFFFFF46
:105A7000FFFFFFFFFFFFFFFFFFFFFFFFFFFFFFFF36
:105A8000FFFFFFFFFFFFFFFFFFFFFFFFFFFFFFFF26
:105A9000FFFFFFFFFFFFFFFFFFFFFFFFFFFFFFFF16
:105AA000FFFFFFFFFFFFFFFFFFFFFFFFFFFFFFFF06
:105AB000FFFFFFFFFFDFFFFFFFFFFFFFFFFFFFFF16
:105AC000FFFFFFFFFFFFFFFFFFDFFFFFFFFFFFDF26
:105AD000FFFFFFFFFFFFFFFFFFFFFFFED6768B8874
